{
  "_format": "hh-sol-artifact-1",
  "contractName": "Catalyst_AaveV2Rewards_Delegate",
  "sourceName": "contracts/delegates/aaveV2/AaveV2Rewards_Delegate.sol",
  "abi": [
    {
      "inputs": [
        {
          "internalType": "contract IAaveIncentivesController",
          "name": "controller",
          "type": "address"
        },
        {
          "internalType": "address[]",
          "name": "assets",
          "type": "address[]"
        }
      ],
      "name": "harvestRewards",
      "outputs": [
        {
          "internalType": "address[]",
          "name": "rewards",
          "type": "address[]"
        },
        {
          "internalType": "uint256[]",
          "name": "amounts",
          "type": "uint256[]"
        }
      ],
      "stateMutability": "nonpayable",
      "type": "function"
    }
  ],
  "bytecode": "0x608060405234801561001057600080fd5b50610945806100206000396000f3fe608060405234801561001057600080fd5b506004361061002b5760003560e01c806361dfdefc14610030575b600080fd5b61004a60048036038101906100459190610526565b610061565b604051610058929190610708565b60405180910390f35b606080600073ffffffffffffffffffffffffffffffffffffffff168473ffffffffffffffffffffffffffffffffffffffff1614610254578373ffffffffffffffffffffffffffffffffffffffff166399248ea76040518163ffffffff1660e01b8152600401602060405180830381865afa1580156100e3573d6000803e3d6000fd5b505050506040513d601f19601f820116820180604052508101906101079190610754565b8260008151811061011b5761011a610781565b5b602002602001019073ffffffffffffffffffffffffffffffffffffffff16908173ffffffffffffffffffffffffffffffffffffffff16815250508373ffffffffffffffffffffffffffffffffffffffff16633111e7b3847fffffffffffffffffffffffffffffffffffffffffffffffffffffffffffffffff306040518463ffffffff1660e01b81526004016101b2939291906107ce565b6020604051808303816000875af11580156101d1573d6000803e3d6000fd5b505050506040513d601f19601f820116820180604052508101906101f59190610838565b8160008151811061020957610208610781565b5b6020026020010181815250506102536040518060400160405280600481526020017f737465700000000000000000000000000000000000000000000000000000000081525061025b565b5b9250929050565b6102f18160405160240161026f91906108ed565b6040516020818303038152906040527f41304fac000000000000000000000000000000000000000000000000000000007bffffffffffffffffffffffffffffffffffffffffffffffffffffffff19166020820180517bffffffffffffffffffffffffffffffffffffffffffffffffffffffff83818316178352505050506102f4565b50565b60008151905060006a636f6e736f6c652e6c6f679050602083016000808483855afa5050505050565b6000604051905090565b600080fd5b600080fd5b600073ffffffffffffffffffffffffffffffffffffffff82169050919050565b600061035c82610331565b9050919050565b600061036e82610351565b9050919050565b61037e81610363565b811461038957600080fd5b50565b60008135905061039b81610375565b92915050565b600080fd5b6000601f19601f8301169050919050565b7f4e487b7100000000000000000000000000000000000000000000000000000000600052604160045260246000fd5b6103ef826103a6565b810181811067ffffffffffffffff8211171561040e5761040d6103b7565b5b80604052505050565b600061042161031d565b905061042d82826103e6565b919050565b600067ffffffffffffffff82111561044d5761044c6103b7565b5b602082029050602081019050919050565b600080fd5b61046c81610351565b811461047757600080fd5b50565b60008135905061048981610463565b92915050565b60006104a261049d84610432565b610417565b905080838252602082019050602084028301858111156104c5576104c461045e565b5b835b818110156104ee57806104da888261047a565b8452602084019350506020810190506104c7565b5050509392505050565b600082601f83011261050d5761050c6103a1565b5b813561051d84826020860161048f565b91505092915050565b6000806040838503121561053d5761053c610327565b5b600061054b8582860161038c565b925050602083013567ffffffffffffffff81111561056c5761056b61032c565b5b610578858286016104f8565b9150509250929050565b600081519050919050565b600082825260208201905092915050565b6000819050602082019050919050565b6105b781610351565b82525050565b60006105c983836105ae565b60208301905092915050565b6000602082019050919050565b60006105ed82610582565b6105f7818561058d565b93506106028361059e565b8060005b8381101561063357815161061a88826105bd565b9750610625836105d5565b925050600181019050610606565b5085935050505092915050565b600081519050919050565b600082825260208201905092915050565b6000819050602082019050919050565b6000819050919050565b61067f8161066c565b82525050565b60006106918383610676565b60208301905092915050565b6000602082019050919050565b60006106b582610640565b6106bf818561064b565b93506106ca8361065c565b8060005b838110156106fb5781516106e28882610685565b97506106ed8361069d565b9250506001810190506106ce565b5085935050505092915050565b6000604082019050818103600083015261072281856105e2565b9050818103602083015261073681846106aa565b90509392505050565b60008151905061074e81610463565b92915050565b60006020828403121561076a57610769610327565b5b60006107788482850161073f565b91505092915050565b7f4e487b7100000000000000000000000000000000000000000000000000000000600052603260045260246000fd5b6107b98161066c565b82525050565b6107c881610351565b82525050565b600060608201905081810360008301526107e881866105e2565b90506107f760208301856107b0565b61080460408301846107bf565b949350505050565b6108158161066c565b811461082057600080fd5b50565b6000815190506108328161080c565b92915050565b60006020828403121561084e5761084d610327565b5b600061085c84828501610823565b91505092915050565b600081519050919050565b600082825260208201905092915050565b60005b8381101561089f578082015181840152602081019050610884565b838111156108ae576000848401525b50505050565b60006108bf82610865565b6108c98185610870565b93506108d9818560208601610881565b6108e2816103a6565b840191505092915050565b6000602082019050818103600083015261090781846108b4565b90509291505056fea26469706673582212204c9635e1e1d19b64d50500c79f1e9f7a95e7c0ae96b9bd929b94367b31e52da164736f6c634300080c0033",
  "linkReferences": {},
  "deployedLinkReferences": {}
}