{
  "_format": "hh-sol-artifact-1",
  "contractName": "Vault",
  "sourceName": "contracts/Vault.sol",
  "abi": [
    {
      "inputs": [
        {
          "internalType": "string",
          "name": "name_",
          "type": "string"
        },
        {
          "internalType": "address",
          "name": "swapper_",
          "type": "address"
        },
        {
          "internalType": "address",
          "name": "feesCollector_",
          "type": "address"
        },
        {
          "internalType": "address",
          "name": "configProvider_",
          "type": "address"
        }
      ],
      "stateMutability": "nonpayable",
      "type": "constructor"
    },
    {
      "anonymous": false,
      "inputs": [
        {
          "indexed": true,
          "internalType": "address",
          "name": "pool",
          "type": "address"
        },
        {
          "indexed": true,
          "internalType": "address",
          "name": "asset",
          "type": "address"
        },
        {
          "indexed": false,
          "internalType": "uint256",
          "name": "amount",
          "type": "uint256"
        }
      ],
      "name": "Borrow",
      "type": "event"
    },
    {
      "anonymous": false,
      "inputs": [
        {
          "indexed": true,
          "internalType": "address",
          "name": "previousOwner",
          "type": "address"
        },
        {
          "indexed": true,
          "internalType": "address",
          "name": "newOwner",
          "type": "address"
        }
      ],
      "name": "OwnershipTransferred",
      "type": "event"
    },
    {
      "anonymous": false,
      "inputs": [
        {
          "indexed": true,
          "internalType": "address",
          "name": "pool",
          "type": "address"
        },
        {
          "indexed": true,
          "internalType": "address",
          "name": "asset",
          "type": "address"
        },
        {
          "indexed": false,
          "internalType": "uint256",
          "name": "amount",
          "type": "uint256"
        }
      ],
      "name": "Repay",
      "type": "event"
    },
    {
      "anonymous": false,
      "inputs": [
        {
          "indexed": true,
          "internalType": "address",
          "name": "pool",
          "type": "address"
        },
        {
          "indexed": true,
          "internalType": "address",
          "name": "asset",
          "type": "address"
        },
        {
          "indexed": false,
          "internalType": "uint256",
          "name": "amount",
          "type": "uint256"
        }
      ],
      "name": "Supply",
      "type": "event"
    },
    {
      "anonymous": false,
      "inputs": [
        {
          "indexed": true,
          "internalType": "address",
          "name": "pool",
          "type": "address"
        },
        {
          "indexed": true,
          "internalType": "address",
          "name": "asset",
          "type": "address"
        },
        {
          "indexed": false,
          "internalType": "uint256",
          "name": "amount",
          "type": "uint256"
        }
      ],
      "name": "Withdraw",
      "type": "event"
    },
    {
      "inputs": [
        {
          "components": [
            {
              "internalType": "address",
              "name": "pool",
              "type": "address"
            },
            {
              "internalType": "address",
              "name": "asset",
              "type": "address"
            },
            {
              "internalType": "uint256",
              "name": "amount",
              "type": "uint256"
            },
            {
              "internalType": "address",
              "name": "controller",
              "type": "address"
            }
          ],
          "internalType": "struct IPoolDelegate.CallParams",
          "name": "params",
          "type": "tuple"
        }
      ],
      "name": "borrow",
      "outputs": [],
      "stateMutability": "nonpayable",
      "type": "function"
    },
    {
      "inputs": [
        {
          "components": [
            {
              "internalType": "address",
              "name": "pool",
              "type": "address"
            },
            {
              "internalType": "address",
              "name": "asset",
              "type": "address"
            },
            {
              "internalType": "uint256",
              "name": "amount",
              "type": "uint256"
            },
            {
              "internalType": "address",
              "name": "controller",
              "type": "address"
            }
          ],
          "internalType": "struct IPoolDelegate.CallParams",
          "name": "params",
          "type": "tuple"
        }
      ],
      "name": "borrowed",
      "outputs": [
        {
          "internalType": "uint256",
          "name": "",
          "type": "uint256"
        }
      ],
      "stateMutability": "view",
      "type": "function"
    },
    {
      "inputs": [
        {
          "internalType": "bytes",
          "name": "data",
          "type": "bytes"
        }
      ],
      "name": "checkData",
      "outputs": [],
      "stateMutability": "view",
      "type": "function"
    },
    {
      "inputs": [],
      "name": "currentDebtAsset",
      "outputs": [
        {
          "internalType": "address",
          "name": "",
          "type": "address"
        }
      ],
      "stateMutability": "view",
      "type": "function"
    },
    {
      "inputs": [],
      "name": "currentDebtPool",
      "outputs": [
        {
          "internalType": "address",
          "name": "",
          "type": "address"
        }
      ],
      "stateMutability": "view",
      "type": "function"
    },
    {
      "inputs": [
        {
          "internalType": "bytes",
          "name": "data",
          "type": "bytes"
        }
      ],
      "name": "executeSwap",
      "outputs": [],
      "stateMutability": "nonpayable",
      "type": "function"
    },
    {
      "inputs": [
        {
          "components": [
            {
              "internalType": "address",
              "name": "pool",
              "type": "address"
            },
            {
              "internalType": "address",
              "name": "asset",
              "type": "address"
            },
            {
              "internalType": "uint256",
              "name": "amount",
              "type": "uint256"
            },
            {
              "internalType": "address",
              "name": "controller",
              "type": "address"
            }
          ],
          "internalType": "struct IPoolDelegate.CallParams",
          "name": "params",
          "type": "tuple"
        }
      ],
      "name": "getExcess",
      "outputs": [
        {
          "internalType": "uint256",
          "name": "",
          "type": "uint256"
        }
      ],
      "stateMutability": "view",
      "type": "function"
    },
    {
      "inputs": [],
      "name": "name",
      "outputs": [
        {
          "internalType": "string",
          "name": "",
          "type": "string"
        }
      ],
      "stateMutability": "view",
      "type": "function"
    },
    {
      "inputs": [],
      "name": "owner",
      "outputs": [
        {
          "internalType": "address",
          "name": "",
          "type": "address"
        }
      ],
      "stateMutability": "view",
      "type": "function"
    },
    {
      "inputs": [],
      "name": "renounceOwnership",
      "outputs": [],
      "stateMutability": "nonpayable",
      "type": "function"
    },
    {
      "inputs": [
        {
          "components": [
            {
              "internalType": "address",
              "name": "pool",
              "type": "address"
            },
            {
              "internalType": "address",
              "name": "asset",
              "type": "address"
            },
            {
              "internalType": "uint256",
              "name": "amount",
              "type": "uint256"
            },
            {
              "internalType": "address",
              "name": "controller",
              "type": "address"
            }
          ],
          "internalType": "struct IPoolDelegate.CallParams",
          "name": "params",
          "type": "tuple"
        }
      ],
      "name": "repay",
      "outputs": [],
      "stateMutability": "payable",
      "type": "function"
    },
    {
      "inputs": [
        {
          "internalType": "address[]",
          "name": "assets",
          "type": "address[]"
        }
      ],
      "name": "requestSwaps",
      "outputs": [],
      "stateMutability": "nonpayable",
      "type": "function"
    },
    {
      "inputs": [
        {
          "internalType": "string",
          "name": "name_",
          "type": "string"
        }
      ],
      "name": "setName",
      "outputs": [],
      "stateMutability": "nonpayable",
      "type": "function"
    },
    {
      "inputs": [
        {
          "components": [
            {
              "internalType": "address",
              "name": "pool",
              "type": "address"
            },
            {
              "internalType": "address",
              "name": "asset",
              "type": "address"
            },
            {
              "internalType": "uint256",
              "name": "amount",
              "type": "uint256"
            },
            {
              "internalType": "address",
              "name": "controller",
              "type": "address"
            }
          ],
          "internalType": "struct IPoolDelegate.CallParams",
          "name": "params",
          "type": "tuple"
        }
      ],
      "name": "supplied",
      "outputs": [
        {
          "internalType": "uint256",
          "name": "",
          "type": "uint256"
        }
      ],
      "stateMutability": "view",
      "type": "function"
    },
    {
      "inputs": [
        {
          "components": [
            {
              "internalType": "address",
              "name": "pool",
              "type": "address"
            },
            {
              "internalType": "address",
              "name": "asset",
              "type": "address"
            },
            {
              "internalType": "uint256",
              "name": "amount",
              "type": "uint256"
            },
            {
              "internalType": "address",
              "name": "controller",
              "type": "address"
            }
          ],
          "internalType": "struct IPoolDelegate.CallParams",
          "name": "params",
          "type": "tuple"
        }
      ],
      "name": "supply",
      "outputs": [],
      "stateMutability": "payable",
      "type": "function"
    },
    {
      "inputs": [
        {
          "internalType": "address",
          "name": "asset",
          "type": "address"
        },
        {
          "internalType": "uint256",
          "name": "amount",
          "type": "uint256"
        },
        {
          "internalType": "address",
          "name": "to",
          "type": "address"
        }
      ],
      "name": "transfer",
      "outputs": [],
      "stateMutability": "nonpayable",
      "type": "function"
    },
    {
      "inputs": [
        {
          "internalType": "address",
          "name": "newOwner",
          "type": "address"
        }
      ],
      "name": "transferOwnership",
      "outputs": [],
      "stateMutability": "nonpayable",
      "type": "function"
    },
    {
      "inputs": [
        {
          "components": [
            {
              "internalType": "address",
              "name": "pool",
              "type": "address"
            },
            {
              "internalType": "address",
              "name": "asset",
              "type": "address"
            },
            {
              "internalType": "uint256",
              "name": "amount",
              "type": "uint256"
            },
            {
              "internalType": "address",
              "name": "controller",
              "type": "address"
            }
          ],
          "internalType": "struct IPoolDelegate.CallParams",
          "name": "params",
          "type": "tuple"
        }
      ],
      "name": "withdraw",
      "outputs": [],
      "stateMutability": "nonpayable",
      "type": "function"
    },
    {
      "inputs": [
        {
          "components": [
            {
              "internalType": "address",
              "name": "pool",
              "type": "address"
            },
            {
              "internalType": "address",
              "name": "asset",
              "type": "address"
            },
            {
              "internalType": "uint256",
              "name": "amount",
              "type": "uint256"
            },
            {
              "internalType": "address",
              "name": "controller",
              "type": "address"
            }
          ],
          "internalType": "struct IPoolDelegate.CallParams[]",
          "name": "params",
          "type": "tuple[]"
        }
      ],
      "name": "withdrawExcesses",
      "outputs": [],
      "stateMutability": "nonpayable",
      "type": "function"
    }
  ],
  "bytecode": "0x60806040523480156200001157600080fd5b50604051620048cb380380620048cb8339818101604052810190620000379190620004bf565b8084620000596200004d6200014160201b60201c565b6200014960201b60201c565b81600560006101000a81548173ffffffffffffffffffffffffffffffffffffffff021916908373ffffffffffffffffffffffffffffffffffffffff1602179055508060019080519060200190620000b29291906200020d565b50505082600660006101000a81548173ffffffffffffffffffffffffffffffffffffffff021916908373ffffffffffffffffffffffffffffffffffffffff16021790555081600760006101000a81548173ffffffffffffffffffffffffffffffffffffffff021916908373ffffffffffffffffffffffffffffffffffffffff16021790555050505050620005b5565b600033905090565b60008060009054906101000a900473ffffffffffffffffffffffffffffffffffffffff169050816000806101000a81548173ffffffffffffffffffffffffffffffffffffffff021916908373ffffffffffffffffffffffffffffffffffffffff1602179055508173ffffffffffffffffffffffffffffffffffffffff168173ffffffffffffffffffffffffffffffffffffffff167f8be0079c531659141344cd1fd0a4f28419497f9722a3daafe3b4186f6b6457e060405160405180910390a35050565b8280546200021b906200057f565b90600052602060002090601f0160209004810192826200023f57600085556200028b565b82601f106200025a57805160ff19168380011785556200028b565b828001600101855582156200028b579182015b828111156200028a5782518255916020019190600101906200026d565b5b5090506200029a91906200029e565b5090565b5b80821115620002b95760008160009055506001016200029f565b5090565b6000604051905090565b600080fd5b600080fd5b600080fd5b600080fd5b6000601f19601f8301169050919050565b7f4e487b7100000000000000000000000000000000000000000000000000000000600052604160045260246000fd5b6200032682620002db565b810181811067ffffffffffffffff82111715620003485762000347620002ec565b5b80604052505050565b60006200035d620002bd565b90506200036b82826200031b565b919050565b600067ffffffffffffffff8211156200038e576200038d620002ec565b5b6200039982620002db565b9050602081019050919050565b60005b83811015620003c6578082015181840152602081019050620003a9565b83811115620003d6576000848401525b50505050565b6000620003f3620003ed8462000370565b62000351565b905082815260208101848484011115620004125762000411620002d6565b5b6200041f848285620003a6565b509392505050565b600082601f8301126200043f576200043e620002d1565b5b815162000451848260208601620003dc565b91505092915050565b600073ffffffffffffffffffffffffffffffffffffffff82169050919050565b600062000487826200045a565b9050919050565b62000499816200047a565b8114620004a557600080fd5b50565b600081519050620004b9816200048e565b92915050565b60008060008060808587031215620004dc57620004db620002c7565b5b600085015167ffffffffffffffff811115620004fd57620004fc620002cc565b5b6200050b8782880162000427565b94505060206200051e87828801620004a8565b93505060406200053187828801620004a8565b92505060606200054487828801620004a8565b91505092959194509250565b7f4e487b7100000000000000000000000000000000000000000000000000000000600052602260045260246000fd5b600060028204905060018216806200059857607f821691505b60208210811415620005af57620005ae62000550565b5b50919050565b61430680620005c56000396000f3fe6080604052600436106101145760003560e01c80638da5cb5b116100a0578063d4d4ed0011610064578063d4d4ed0014610366578063dbba0f01146103a3578063e74f6ff6146103cc578063ef33f95d146103f7578063f2fde38b1461041357610114565b80638da5cb5b14610297578063985f61a1146102c25780639d0506ae146102eb5780639e2578ed14610314578063c47f00271461033d57610114565b80635b8a60c4116100e75780635b8a60c4146101b45780635ba34b53146101dd578063715018a61461021a57806375b783191461023157806388dab3391461026e57610114565b806305e4833a1461011957806306fdde03146101355780633eea1ef3146101605780635acb354a1461018b575b600080fd5b610133600480360381019061012e919061302d565b61043c565b005b34801561014157600080fd5b5061014a6105b0565b60405161015791906130e2565b60405180910390f35b34801561016c57600080fd5b50610175610642565b6040516101829190613113565b60405180910390f35b34801561019757600080fd5b506101b260048036038101906101ad9190613152565b61066c565b005b3480156101c057600080fd5b506101db60048036038101906101d6919061302d565b610a05565b005b3480156101e957600080fd5b5061020460048036038101906101ff919061302d565b610bdc565b604051610211919061318e565b60405180910390f35b34801561022657600080fd5b5061022f610dae565b005b34801561023d57600080fd5b506102586004803603810190610253919061302d565b610dc2565b604051610265919061318e565b60405180910390f35b34801561027a57600080fd5b5061029560048036038101906102909190613276565b610f94565b005b3480156102a357600080fd5b506102ac611024565b6040516102b99190613113565b60405180910390f35b3480156102ce57600080fd5b506102e960048036038101906102e4919061331a565b61104d565b005b3480156102f757600080fd5b50610312600480360381019061030d919061331a565b611370565b005b34801561032057600080fd5b5061033b600480360381019061033691906133bd565b6114a1565b005b34801561034957600080fd5b50610364600480360381019061035f9190613460565b611815565b005b34801561037257600080fd5b5061038d6004803603810190610388919061302d565b611833565b60405161039a919061318e565b60405180910390f35b3480156103af57600080fd5b506103ca60048036038101906103c591906134ad565b6118ef565b005b3480156103d857600080fd5b506103e1611a08565b6040516103ee9190613113565b60405180910390f35b610411600480360381019061040c9190613152565b611a32565b005b34801561041f57600080fd5b5061043a60048036038101906104359190613500565b611e05565b005b610444611e89565b6000816020015173ffffffffffffffffffffffffffffffffffffffff166370a08231306040518263ffffffff1660e01b81526004016104839190613113565b602060405180830381865afa1580156104a0573d6000803e3d6000fd5b505050506040513d601f19601f820116820180604052508101906104c49190613542565b905060006104d183610bdc565b9050826040015181106104e85782604001516104ea565b805b8360400181815250506105416040518060400160405280601081526020017f746f207472616e73666572203d2025730000000000000000000000000000000081525083856040015161053c919061359e565b611f07565b82604001518210156105a25761055a8360200151611fa3565b6105a161056561203c565b30848660400151610576919061359e565b866020015173ffffffffffffffffffffffffffffffffffffffff16612044909392919063ffffffff16565b5b6105ab836120cd565b505050565b6060600180546105bf90613601565b80601f01602080910402602001604051908101604052809291908181526020018280546105eb90613601565b80156106385780601f1061060d57610100808354040283529160200191610638565b820191906000526020600020905b81548152906001019060200180831161061b57829003601f168201915b5050505050905090565b6000600360009054906101000a900473ffffffffffffffffffffffffffffffffffffffff16905090565b610674611e89565b600073ffffffffffffffffffffffffffffffffffffffff16600360009054906101000a900473ffffffffffffffffffffffffffffffffffffffff1673ffffffffffffffffffffffffffffffffffffffff1614610705576040517f08c379a00000000000000000000000000000000000000000000000000000000081526004016106fc9061367f565b60405180910390fd5b600073ffffffffffffffffffffffffffffffffffffffff16600460009054906101000a900473ffffffffffffffffffffffffffffffffffffffff1673ffffffffffffffffffffffffffffffffffffffff1614610796576040517f08c379a000000000000000000000000000000000000000000000000000000000815260040161078d9061367f565b60405180910390fd5b8060200160208101906107a99190613500565b600460006101000a81548173ffffffffffffffffffffffffffffffffffffffff021916908373ffffffffffffffffffffffffffffffffffffffff1602179055508060000160208101906107fc9190613500565b600360006101000a81548173ffffffffffffffffffffffffffffffffffffffff021916908373ffffffffffffffffffffffffffffffffffffffff1602179055506000600560009054906101000a900473ffffffffffffffffffffffffffffffffffffffff1673ffffffffffffffffffffffffffffffffffffffff16637e8f3aed83600001602081019061088f9190613500565b6040518263ffffffff1660e01b81526004016108ab9190613113565b602060405180830381865afa1580156108c8573d6000803e3d6000fd5b505050506040513d601f19601f820116820180604052508101906108ec91906136b4565b90506000635acb354a60e01b8360405160240161090991906137a2565b604051602081830303815290604052907bffffffffffffffffffffffffffffffffffffffffffffffffffffffff19166020820180517bffffffffffffffffffffffffffffffffffffffffffffffffffffffff8381831617835250505050905061097282826123e0565b508260200160208101906109869190613500565b73ffffffffffffffffffffffffffffffffffffffff168360000160208101906109af9190613500565b73ffffffffffffffffffffffffffffffffffffffff167f312a5e5e1079f5dda4e95dbbd0b908b291fd5b992ef22073643ab691572c5b5285604001356040516109f8919061318e565b60405180910390a3505050565b610a0d611e89565b610a168161240d565b600060026000836000015173ffffffffffffffffffffffffffffffffffffffff1673ffffffffffffffffffffffffffffffffffffffff1681526020019081526020016000206000836020015173ffffffffffffffffffffffffffffffffffffffff1673ffffffffffffffffffffffffffffffffffffffff16815260200190815260200160002054905080826040015111610abf57816040015181610aba919061359e565b610ac2565b60005b60026000846000015173ffffffffffffffffffffffffffffffffffffffff1673ffffffffffffffffffffffffffffffffffffffff1681526020019081526020016000206000846020015173ffffffffffffffffffffffffffffffffffffffff1673ffffffffffffffffffffffffffffffffffffffff16815260200190815260200160002081905550816020015173ffffffffffffffffffffffffffffffffffffffff1663a9059cbb610b72611024565b84604001516040518363ffffffff1660e01b8152600401610b949291906137bd565b6020604051808303816000875af1158015610bb3573d6000803e3d6000fd5b505050506040513d601f19601f82011682018060405250810190610bd7919061381e565b505050565b600080600560009054906101000a900473ffffffffffffffffffffffffffffffffffffffff1673ffffffffffffffffffffffffffffffffffffffff1663271dc945846000015185602001516040518363ffffffff1660e01b8152600401610c4492919061384b565b602060405180830381865afa158015610c61573d6000803e3d6000fd5b505050506040513d601f19601f82011682018060405250810190610c8591906136b4565b90506000600560009054906101000a900473ffffffffffffffffffffffffffffffffffffffff1673ffffffffffffffffffffffffffffffffffffffff16637e8f3aed85600001516040518263ffffffff1660e01b8152600401610ce89190613113565b602060405180830381865afa158015610d05573d6000803e3d6000fd5b505050506040513d601f19601f82011682018060405250810190610d2991906136b4565b90508073ffffffffffffffffffffffffffffffffffffffff16630941cb3d836040518263ffffffff1660e01b8152600401610d649190613113565b602060405180830381865afa158015610d81573d6000803e3d6000fd5b505050506040513d601f19601f82011682018060405250810190610da59190613542565b92505050919050565b610db6611e89565b610dc060006125da565b565b600080600560009054906101000a900473ffffffffffffffffffffffffffffffffffffffff1673ffffffffffffffffffffffffffffffffffffffff1663271dc945846000015185602001516040518363ffffffff1660e01b8152600401610e2a92919061384b565b602060405180830381865afa158015610e47573d6000803e3d6000fd5b505050506040513d601f19601f82011682018060405250810190610e6b91906136b4565b90506000600560009054906101000a900473ffffffffffffffffffffffffffffffffffffffff1673ffffffffffffffffffffffffffffffffffffffff16637e8f3aed85600001516040518263ffffffff1660e01b8152600401610ece9190613113565b602060405180830381865afa158015610eeb573d6000803e3d6000fd5b505050506040513d601f19601f82011682018060405250810190610f0f91906136b4565b90508073ffffffffffffffffffffffffffffffffffffffff1663155a7205836040518263ffffffff1660e01b8152600401610f4a9190613113565b602060405180830381865afa158015610f67573d6000803e3d6000fd5b505050506040513d601f19601f82011682018060405250810190610f8b9190613542565b92505050919050565b60008151905060005b8181101561101f57610fc8838281518110610fbb57610fba613874565b5b6020026020010151611833565b838281518110610fdb57610fda613874565b5b6020026020010151604001818152505061100e83828151811061100157611000613874565b5b602002602001015161240d565b80611018906138a3565b9050610f9d565b505050565b60008060009054906101000a900473ffffffffffffffffffffffffffffffffffffffff16905090565b6110578282611370565b6000600460009054906101000a900473ffffffffffffffffffffffffffffffffffffffff1673ffffffffffffffffffffffffffffffffffffffff166370a08231306040518263ffffffff1660e01b81526004016110b49190613113565b602060405180830381865afa1580156110d1573d6000803e3d6000fd5b505050506040513d601f19601f820116820180604052508101906110f59190613542565b90506111f483838080601f016020809104026020016040519081016040528093929190818152602001838380828437600081840152601f19601f82011690508083019250505050505050600660009054906101000a900473ffffffffffffffffffffffffffffffffffffffff1673ffffffffffffffffffffffffffffffffffffffff1663245a7bfc6040518163ffffffff1660e01b8152600401602060405180830381865afa1580156111ac573d6000803e3d6000fd5b505050506040513d601f19601f820116820180604052508101906111d091906136b4565b73ffffffffffffffffffffffffffffffffffffffff1661269e90919063ffffffff16565b506000600460009054906101000a900473ffffffffffffffffffffffffffffffffffffffff1673ffffffffffffffffffffffffffffffffffffffff166370a08231306040518263ffffffff1660e01b81526004016112529190613113565b602060405180830381865afa15801561126f573d6000803e3d6000fd5b505050506040513d601f19601f820116820180604052508101906112939190613542565b9050600082826112a3919061359e565b905060006112b0826126e8565b905060006040518060800160405280600360009054906101000a900473ffffffffffffffffffffffffffffffffffffffff1673ffffffffffffffffffffffffffffffffffffffff168152602001600460009054906101000a900473ffffffffffffffffffffffffffffffffffffffff1673ffffffffffffffffffffffffffffffffffffffff168152602001838152602001600073ffffffffffffffffffffffffffffffffffffffff168152509050611367816120cd565b50505050505050565b600082826004908092611385939291906138f6565b8101906113929190613b0a565b509150503073ffffffffffffffffffffffffffffffffffffffff16816060015173ffffffffffffffffffffffffffffffffffffffff1614611408576040517f08c379a00000000000000000000000000000000000000000000000000000000081526004016113ff90613be1565b60405180910390fd5b600460009054906101000a900473ffffffffffffffffffffffffffffffffffffffff1673ffffffffffffffffffffffffffffffffffffffff16816020015173ffffffffffffffffffffffffffffffffffffffff161461149c576040517f08c379a000000000000000000000000000000000000000000000000000000000815260040161149390613c4d565b60405180910390fd5b505050565b600082829050905060005b8181101561180f5760008484838181106114c9576114c8613874565b5b90506020020160208101906114de9190613500565b73ffffffffffffffffffffffffffffffffffffffff166370a08231306040518263ffffffff1660e01b81526004016115169190613113565b602060405180830381865afa158015611533573d6000803e3d6000fd5b505050506040513d601f19601f820116820180604052508101906115579190613542565b9050600060405180604001604052803073ffffffffffffffffffffffffffffffffffffffff16815260200163985f61a160e01b7bffffffffffffffffffffffffffffffffffffffffffffffffffffffff1916815250905060006040518060e001604052808888878181106115ce576115cd613874565b5b90506020020160208101906115e39190613500565b73ffffffffffffffffffffffffffffffffffffffff168152602001600460009054906101000a900473ffffffffffffffffffffffffffffffffffffffff1673ffffffffffffffffffffffffffffffffffffffff1681526020018481526020013073ffffffffffffffffffffffffffffffffffffffff168152602001600581526020013073ffffffffffffffffffffffffffffffffffffffff16815260200160011515815250905061176c600660009054906101000a900473ffffffffffffffffffffffffffffffffffffffff1673ffffffffffffffffffffffffffffffffffffffff1663245a7bfc6040518163ffffffff1660e01b8152600401602060405180830381865afa1580156116fa573d6000803e3d6000fd5b505050506040513d601f19601f8201168201806040525081019061171e91906136b4565b8489898881811061173257611731613874565b5b90506020020160208101906117479190613500565b73ffffffffffffffffffffffffffffffffffffffff166128b69092919063ffffffff16565b600660009054906101000a900473ffffffffffffffffffffffffffffffffffffffff1673ffffffffffffffffffffffffffffffffffffffff16639547c9d783836040518363ffffffff1660e01b81526004016117c9929190613d74565b600060405180830381600087803b1580156117e357600080fd5b505af11580156117f7573d6000803e3d6000fd5b5050505050505080611808906138a3565b90506114ac565b50505050565b61181d611e89565b81816001919061182e929190612dd4565b505050565b60008061183f83610dc2565b9050600060026000856000015173ffffffffffffffffffffffffffffffffffffffff1673ffffffffffffffffffffffffffffffffffffffff1681526020019081526020016000206000856020015173ffffffffffffffffffffffffffffffffffffffff1673ffffffffffffffffffffffffffffffffffffffff168152602001908152602001600020549050808210156118d95760006118e6565b80826118e5919061359e565b5b92505050919050565b6118f7611e89565b60008373ffffffffffffffffffffffffffffffffffffffff166370a08231306040518263ffffffff1660e01b81526004016119329190613113565b602060405180830381865afa15801561194f573d6000803e3d6000fd5b505050506040513d601f19601f820116820180604052508101906119739190613542565b90508373ffffffffffffffffffffffffffffffffffffffff1663a9059cbb8383861161199f57856119a1565b835b6040518363ffffffff1660e01b81526004016119be9291906137bd565b6020604051808303816000875af11580156119dd573d6000803e3d6000fd5b505050506040513d601f19601f82011682018060405250810190611a01919061381e565b5050505050565b6000600460009054906101000a900473ffffffffffffffffffffffffffffffffffffffff16905090565b611a3a611e89565b6000816020016020810190611a4f9190613500565b73ffffffffffffffffffffffffffffffffffffffff166370a08231306040518263ffffffff1660e01b8152600401611a879190613113565b602060405180830381865afa158015611aa4573d6000803e3d6000fd5b505050506040513d601f19601f82011682018060405250810190611ac89190613542565b90508160400135811015611b8057816020016020810190611ae99190613500565b73ffffffffffffffffffffffffffffffffffffffff166323b872dd611b0c61203c565b30848660400135611b1d919061359e565b6040518463ffffffff1660e01b8152600401611b3b93929190613d9e565b6020604051808303816000875af1158015611b5a573d6000803e3d6000fd5b505050506040513d601f19601f82011682018060405250810190611b7e919061381e565b505b816040013560026000846000016020810190611b9c9190613500565b73ffffffffffffffffffffffffffffffffffffffff1673ffffffffffffffffffffffffffffffffffffffff1681526020019081526020016000206000846020016020810190611beb9190613500565b73ffffffffffffffffffffffffffffffffffffffff1673ffffffffffffffffffffffffffffffffffffffff1681526020019081526020016000206000828254611c349190613dd5565b925050819055506000600560009054906101000a900473ffffffffffffffffffffffffffffffffffffffff1673ffffffffffffffffffffffffffffffffffffffff16637e8f3aed846000016020810190611c8e9190613500565b6040518263ffffffff1660e01b8152600401611caa9190613113565b602060405180830381865afa158015611cc7573d6000803e3d6000fd5b505050506040513d601f19601f82011682018060405250810190611ceb91906136b4565b9050600063ef33f95d60e01b84604051602401611d0891906137a2565b604051602081830303815290604052907bffffffffffffffffffffffffffffffffffffffffffffffffffffffff19166020820180517bffffffffffffffffffffffffffffffffffffffffffffffffffffffff83818316178352505050509050611d7182826123e0565b50836020016020810190611d859190613500565b73ffffffffffffffffffffffffffffffffffffffff16846000016020810190611dae9190613500565b73ffffffffffffffffffffffffffffffffffffffff167fd1cf3d156d5f8f0d50f6c122ed609cec09d35c9b9fb3fff6ea0959134dae424e8660400135604051611df7919061318e565b60405180910390a350505050565b611e0d611e89565b600073ffffffffffffffffffffffffffffffffffffffff168173ffffffffffffffffffffffffffffffffffffffff161415611e7d576040517f08c379a0000000000000000000000000000000000000000000000000000000008152600401611e7490613e9d565b60405180910390fd5b611e86816125da565b50565b611e9161203c565b73ffffffffffffffffffffffffffffffffffffffff16611eaf611024565b73ffffffffffffffffffffffffffffffffffffffff1614611f05576040517f08c379a0000000000000000000000000000000000000000000000000000000008152600401611efc90613f09565b60405180910390fd5b565b611f9f8282604051602401611f1d929190613f29565b6040516020818303038152906040527f9710a9d0000000000000000000000000000000000000000000000000000000007bffffffffffffffffffffffffffffffffffffffffffffffffffffffff19166020820180517bffffffffffffffffffffffffffffffffffffffffffffffffffffffff83818316178352505050506129c8565b5050565b61203981604051602401611fb79190613113565b6040516020818303038152906040527f2c2ecbc2000000000000000000000000000000000000000000000000000000007bffffffffffffffffffffffffffffffffffffffffffffffffffffffff19166020820180517bffffffffffffffffffffffffffffffffffffffffffffffffffffffff83818316178352505050506129c8565b50565b600033905090565b6120c7846323b872dd60e01b85858560405160240161206593929190613d9e565b604051602081830303815290604052907bffffffffffffffffffffffffffffffffffffffffffffffffffffffff19166020820180517bffffffffffffffffffffffffffffffffffffffffffffffffffffffff83818316178352505050506129f1565b50505050565b600073ffffffffffffffffffffffffffffffffffffffff16600360009054906101000a900473ffffffffffffffffffffffffffffffffffffffff1673ffffffffffffffffffffffffffffffffffffffff161415612129576123dd565b6000600560009054906101000a900473ffffffffffffffffffffffffffffffffffffffff1673ffffffffffffffffffffffffffffffffffffffff16637e8f3aed83600001516040518263ffffffff1660e01b815260040161218a9190613113565b602060405180830381865afa1580156121a7573d6000803e3d6000fd5b505050506040513d601f19601f820116820180604052508101906121cb91906136b4565b905060006305e4833a60e01b836040516024016121e89190613fae565b604051602081830303815290604052907bffffffffffffffffffffffffffffffffffffffffffffffffffffffff19166020820180517bffffffffffffffffffffffffffffffffffffffffffffffffffffffff8381831617835250505050905061225182826123e0565b50600061225d84610bdc565b1415612326576122a16040518060400160405280600c81526020017f657874696e677569736865640000000000000000000000000000000000000000815250612ab8565b6000600360006101000a81548173ffffffffffffffffffffffffffffffffffffffff021916908373ffffffffffffffffffffffffffffffffffffffff1602179055506000600460006101000a81548173ffffffffffffffffffffffffffffffffffffffff021916908373ffffffffffffffffffffffffffffffffffffffff1602179055505b6123696040518060400160405280600a81526020017f726570617965643d2573000000000000000000000000000000000000000000008152508460400151611f07565b826020015173ffffffffffffffffffffffffffffffffffffffff16836000015173ffffffffffffffffffffffffffffffffffffffff167f05f2eeda0e08e4b437f487c8d7d29b14537d15e3488170dc3de5dbdf8dac468485604001516040516123d2919061318e565b60405180910390a350505b50565b606061240583836040518060600160405280602781526020016142aa60279139612b51565b905092915050565b600061241882610dc2565b90508160400151811161242b5780612431565b81604001515b8260400181815250506000600560009054906101000a900473ffffffffffffffffffffffffffffffffffffffff1673ffffffffffffffffffffffffffffffffffffffff16637e8f3aed84600001516040518263ffffffff1660e01b815260040161249b9190613113565b602060405180830381865afa1580156124b8573d6000803e3d6000fd5b505050506040513d601f19601f820116820180604052508101906124dc91906136b4565b90506000635b8a60c460e01b846040516024016124f99190613fae565b604051602081830303815290604052907bffffffffffffffffffffffffffffffffffffffffffffffffffffffff19166020820180517bffffffffffffffffffffffffffffffffffffffffffffffffffffffff8381831617835250505050905061256282826123e0565b50836020015173ffffffffffffffffffffffffffffffffffffffff16846000015173ffffffffffffffffffffffffffffffffffffffff167f9b1bfa7fa9ee420a16e124f794c35ac9f90472acc99140eb2f6447c714cad8eb86604001516040516125cc919061318e565b60405180910390a350505050565b60008060009054906101000a900473ffffffffffffffffffffffffffffffffffffffff169050816000806101000a81548173ffffffffffffffffffffffffffffffffffffffff021916908373ffffffffffffffffffffffffffffffffffffffff1602179055508173ffffffffffffffffffffffffffffffffffffffff168173ffffffffffffffffffffffffffffffffffffffff167f8be0079c531659141344cd1fd0a4f28419497f9722a3daafe3b4186f6b6457e060405160405180910390a35050565b60606126e083836040518060400160405280601e81526020017f416464726573733a206c6f772d6c6576656c2063616c6c206661696c65640000815250612c1e565b905092915050565b600080606483116126fa576000612708565b6064836127079190613ff8565b5b905060006019841161271b576000612729565b6019846127289190613ff8565b5b9050600460009054906101000a900473ffffffffffffffffffffffffffffffffffffffff1673ffffffffffffffffffffffffffffffffffffffff1663a9059cbb600760009054906101000a900473ffffffffffffffffffffffffffffffffffffffff16846040518363ffffffff1660e01b81526004016127aa9291906137bd565b6020604051808303816000875af11580156127c9573d6000803e3d6000fd5b505050506040513d601f19601f820116820180604052508101906127ed919061381e565b50600460009054906101000a900473ffffffffffffffffffffffffffffffffffffffff1673ffffffffffffffffffffffffffffffffffffffff1663a9059cbb61283461203c565b836040518363ffffffff1660e01b81526004016128529291906137bd565b6020604051808303816000875af1158015612871573d6000803e3d6000fd5b505050506040513d601f19601f82011682018060405250810190612895919061381e565b508082856128a3919061359e565b6128ad919061359e565b92505050919050565b6000818473ffffffffffffffffffffffffffffffffffffffff1663dd62ed3e30866040518363ffffffff1660e01b81526004016128f492919061384b565b602060405180830381865afa158015612911573d6000803e3d6000fd5b505050506040513d601f19601f820116820180604052508101906129359190613542565b61293f9190613dd5565b90506129c28463095ea7b360e01b85846040516024016129609291906137bd565b604051602081830303815290604052907bffffffffffffffffffffffffffffffffffffffffffffffffffffffff19166020820180517bffffffffffffffffffffffffffffffffffffffffffffffffffffffff83818316178352505050506129f1565b50505050565b60008151905060006a636f6e736f6c652e6c6f679050602083016000808483855afa5050505050565b6000612a53826040518060400160405280602081526020017f5361666545524332303a206c6f772d6c6576656c2063616c6c206661696c65648152508573ffffffffffffffffffffffffffffffffffffffff16612c1e9092919063ffffffff16565b9050600081511115612ab35780806020019051810190612a73919061381e565b612ab2576040517f08c379a0000000000000000000000000000000000000000000000000000000008152600401612aa99061409b565b60405180910390fd5b5b505050565b612b4e81604051602401612acc91906130e2565b6040516020818303038152906040527f41304fac000000000000000000000000000000000000000000000000000000007bffffffffffffffffffffffffffffffffffffffffffffffffffffffff19166020820180517bffffffffffffffffffffffffffffffffffffffffffffffffffffffff83818316178352505050506129c8565b50565b6060612b5c84612c36565b612b9b576040517f08c379a0000000000000000000000000000000000000000000000000000000008152600401612b929061412d565b60405180910390fd5b6000808573ffffffffffffffffffffffffffffffffffffffff1685604051612bc39190614194565b600060405180830381855af49150503d8060008114612bfe576040519150601f19603f3d011682016040523d82523d6000602084013e612c03565b606091505b5091509150612c13828286612c59565b925050509392505050565b6060612c2d8484600085612cc0565b90509392505050565b6000808273ffffffffffffffffffffffffffffffffffffffff163b119050919050565b60608315612c6957829050612cb9565b600083511115612c7c5782518084602001fd5b816040517f08c379a0000000000000000000000000000000000000000000000000000000008152600401612cb091906130e2565b60405180910390fd5b9392505050565b606082471015612d05576040517f08c379a0000000000000000000000000000000000000000000000000000000008152600401612cfc9061421d565b60405180910390fd5b612d0e85612c36565b612d4d576040517f08c379a0000000000000000000000000000000000000000000000000000000008152600401612d4490614289565b60405180910390fd5b6000808673ffffffffffffffffffffffffffffffffffffffff168587604051612d769190614194565b60006040518083038185875af1925050503d8060008114612db3576040519150601f19603f3d011682016040523d82523d6000602084013e612db8565b606091505b5091509150612dc8828286612c59565b92505050949350505050565b828054612de090613601565b90600052602060002090601f016020900481019282612e025760008555612e49565b82601f10612e1b57803560ff1916838001178555612e49565b82800160010185558215612e49579182015b82811115612e48578235825591602001919060010190612e2d565b5b509050612e569190612e5a565b5090565b5b80821115612e73576000816000905550600101612e5b565b5090565b6000604051905090565b600080fd5b600080fd5b600080fd5b6000601f19601f8301169050919050565b7f4e487b7100000000000000000000000000000000000000000000000000000000600052604160045260246000fd5b612ed982612e90565b810181811067ffffffffffffffff82111715612ef857612ef7612ea1565b5b80604052505050565b6000612f0b612e77565b9050612f178282612ed0565b919050565b600080fd5b600073ffffffffffffffffffffffffffffffffffffffff82169050919050565b6000612f4c82612f21565b9050919050565b612f5c81612f41565b8114612f6757600080fd5b50565b600081359050612f7981612f53565b92915050565b6000819050919050565b612f9281612f7f565b8114612f9d57600080fd5b50565b600081359050612faf81612f89565b92915050565b600060808284031215612fcb57612fca612e8b565b5b612fd56080612f01565b90506000612fe584828501612f6a565b6000830152506020612ff984828501612f6a565b602083015250604061300d84828501612fa0565b604083015250606061302184828501612f6a565b60608301525092915050565b60006080828403121561304357613042612e81565b5b600061305184828501612fb5565b91505092915050565b600081519050919050565b600082825260208201905092915050565b60005b83811015613094578082015181840152602081019050613079565b838111156130a3576000848401525b50505050565b60006130b48261305a565b6130be8185613065565b93506130ce818560208601613076565b6130d781612e90565b840191505092915050565b600060208201905081810360008301526130fc81846130a9565b905092915050565b61310d81612f41565b82525050565b60006020820190506131286000830184613104565b92915050565b600080fd5b6000608082840312156131495761314861312e565b5b81905092915050565b60006080828403121561316857613167612e81565b5b600061317684828501613133565b91505092915050565b61318881612f7f565b82525050565b60006020820190506131a3600083018461317f565b92915050565b600080fd5b600067ffffffffffffffff8211156131c9576131c8612ea1565b5b602082029050602081019050919050565b600080fd5b60006131f26131ed846131ae565b612f01565b90508083825260208201905060808402830185811115613215576132146131da565b5b835b8181101561323e578061322a8882612fb5565b845260208401935050608081019050613217565b5050509392505050565b600082601f83011261325d5761325c6131a9565b5b813561326d8482602086016131df565b91505092915050565b60006020828403121561328c5761328b612e81565b5b600082013567ffffffffffffffff8111156132aa576132a9612e86565b5b6132b684828501613248565b91505092915050565b600080fd5b60008083601f8401126132da576132d96131a9565b5b8235905067ffffffffffffffff8111156132f7576132f66132bf565b5b602083019150836001820283011115613313576133126131da565b5b9250929050565b6000806020838503121561333157613330612e81565b5b600083013567ffffffffffffffff81111561334f5761334e612e86565b5b61335b858286016132c4565b92509250509250929050565b60008083601f84011261337d5761337c6131a9565b5b8235905067ffffffffffffffff81111561339a576133996132bf565b5b6020830191508360208202830111156133b6576133b56131da565b5b9250929050565b600080602083850312156133d4576133d3612e81565b5b600083013567ffffffffffffffff8111156133f2576133f1612e86565b5b6133fe85828601613367565b92509250509250929050565b60008083601f8401126134205761341f6131a9565b5b8235905067ffffffffffffffff81111561343d5761343c6132bf565b5b602083019150836001820283011115613459576134586131da565b5b9250929050565b6000806020838503121561347757613476612e81565b5b600083013567ffffffffffffffff81111561349557613494612e86565b5b6134a18582860161340a565b92509250509250929050565b6000806000606084860312156134c6576134c5612e81565b5b60006134d486828701612f6a565b93505060206134e586828701612fa0565b92505060406134f686828701612f6a565b9150509250925092565b60006020828403121561351657613515612e81565b5b600061352484828501612f6a565b91505092915050565b60008151905061353c81612f89565b92915050565b60006020828403121561355857613557612e81565b5b60006135668482850161352d565b91505092915050565b7f4e487b7100000000000000000000000000000000000000000000000000000000600052601160045260246000fd5b60006135a982612f7f565b91506135b483612f7f565b9250828210156135c7576135c661356f565b5b828203905092915050565b7f4e487b7100000000000000000000000000000000000000000000000000000000600052602260045260246000fd5b6000600282049050600182168061361957607f821691505b6020821081141561362d5761362c6135d2565b5b50919050565b7f5661756c743a204f6e65206c6f616e20617420612074696d6500000000000000600082015250565b6000613669601983613065565b915061367482613633565b602082019050919050565b600060208201905081810360008301526136988161365c565b9050919050565b6000815190506136ae81612f53565b92915050565b6000602082840312156136ca576136c9612e81565b5b60006136d88482850161369f565b91505092915050565b60006136f06020840184612f6a565b905092915050565b61370181612f41565b82525050565b60006137166020840184612fa0565b905092915050565b61372781612f7f565b82525050565b6080820161373e60008301836136e1565b61374b60008501826136f8565b5061375960208301836136e1565b61376660208501826136f8565b506137746040830183613707565b613781604085018261371e565b5061378f60608301836136e1565b61379c60608501826136f8565b50505050565b60006080820190506137b7600083018461372d565b92915050565b60006040820190506137d26000830185613104565b6137df602083018461317f565b9392505050565b60008115159050919050565b6137fb816137e6565b811461380657600080fd5b50565b600081519050613818816137f2565b92915050565b60006020828403121561383457613833612e81565b5b600061384284828501613809565b91505092915050565b60006040820190506138606000830185613104565b61386d6020830184613104565b9392505050565b7f4e487b7100000000000000000000000000000000000000000000000000000000600052603260045260246000fd5b60006138ae82612f7f565b91507fffffffffffffffffffffffffffffffffffffffffffffffffffffffffffffffff8214156138e1576138e061356f565b5b600182019050919050565b600080fd5b600080fd5b6000808585111561390a576139096138ec565b5b8386111561391b5761391a6138f1565b5b6001850283019150848603905094509492505050565b600061393c82612f21565b9050919050565b61394c81613931565b811461395757600080fd5b50565b60008135905061396981613943565b92915050565b600080fd5b600067ffffffffffffffff82111561398f5761398e612ea1565b5b61399882612e90565b9050602081019050919050565b82818337600083830152505050565b60006139c76139c284613974565b612f01565b9050828152602081018484840111156139e3576139e261396f565b5b6139ee8482856139a5565b509392505050565b600082601f830112613a0b57613a0a6131a9565b5b8135613a1b8482602086016139b4565b91505092915050565b60006101008284031215613a3b57613a3a612e8b565b5b613a46610100612f01565b90506000613a5684828501612f6a565b6000830152506020613a6a84828501612f6a565b6020830152506040613a7e8482850161395a565b6040830152506060613a928482850161395a565b6060830152506080613aa684828501612fa0565b60808301525060a0613aba84828501612fa0565b60a08301525060c0613ace84828501612fa0565b60c08301525060e082013567ffffffffffffffff811115613af257613af1612f1c565b5b613afe848285016139f6565b60e08301525092915050565b600080600060608486031215613b2357613b22612e81565b5b6000613b318682870161395a565b935050602084013567ffffffffffffffff811115613b5257613b51612e86565b5b613b5e86828701613a24565b925050604084013567ffffffffffffffff811115613b7f57613b7e612e86565b5b613b8b868287016139f6565b9150509250925092565b7f5661756c743a2077726f6e672073776170206473745265636569766572000000600082015250565b6000613bcb601d83613065565b9150613bd682613b95565b602082019050919050565b60006020820190508181036000830152613bfa81613bbe565b9050919050565b7f5661756c743a2077726f6e67207377617020647374546f6b656e000000000000600082015250565b6000613c37601a83613065565b9150613c4282613c01565b602082019050919050565b60006020820190508181036000830152613c6681613c2a565b9050919050565b60007fffffffff0000000000000000000000000000000000000000000000000000000082169050919050565b613ca281613c6d565b82525050565b604082016000820151613cbe60008501826136f8565b506020820151613cd16020850182613c99565b50505050565b613ce0816137e6565b82525050565b60e082016000820151613cfc60008501826136f8565b506020820151613d0f60208501826136f8565b506040820151613d22604085018261371e565b506060820151613d3560608501826136f8565b506080820151613d48608085018261371e565b5060a0820151613d5b60a08501826136f8565b5060c0820151613d6e60c0850182613cd7565b50505050565b600061012082019050613d8a6000830185613ca8565b613d976040830184613ce6565b9392505050565b6000606082019050613db36000830186613104565b613dc06020830185613104565b613dcd604083018461317f565b949350505050565b6000613de082612f7f565b9150613deb83612f7f565b9250827fffffffffffffffffffffffffffffffffffffffffffffffffffffffffffffffff03821115613e2057613e1f61356f565b5b828201905092915050565b7f4f776e61626c653a206e6577206f776e657220697320746865207a65726f206160008201527f6464726573730000000000000000000000000000000000000000000000000000602082015250565b6000613e87602683613065565b9150613e9282613e2b565b604082019050919050565b60006020820190508181036000830152613eb681613e7a565b9050919050565b7f4f776e61626c653a2063616c6c6572206973206e6f7420746865206f776e6572600082015250565b6000613ef3602083613065565b9150613efe82613ebd565b602082019050919050565b60006020820190508181036000830152613f2281613ee6565b9050919050565b60006040820190508181036000830152613f4381856130a9565b9050613f52602083018461317f565b9392505050565b608082016000820151613f6f60008501826136f8565b506020820151613f8260208501826136f8565b506040820151613f95604085018261371e565b506060820151613fa860608501826136f8565b50505050565b6000608082019050613fc36000830184613f59565b92915050565b7f4e487b7100000000000000000000000000000000000000000000000000000000600052601260045260246000fd5b600061400382612f7f565b915061400e83612f7f565b92508261401e5761401d613fc9565b5b828204905092915050565b7f5361666545524332303a204552433230206f7065726174696f6e20646964206e60008201527f6f74207375636365656400000000000000000000000000000000000000000000602082015250565b6000614085602a83613065565b915061409082614029565b604082019050919050565b600060208201905081810360008301526140b481614078565b9050919050565b7f416464726573733a2064656c65676174652063616c6c20746f206e6f6e2d636f60008201527f6e74726163740000000000000000000000000000000000000000000000000000602082015250565b6000614117602683613065565b9150614122826140bb565b604082019050919050565b600060208201905081810360008301526141468161410a565b9050919050565b600081519050919050565b600081905092915050565b600061416e8261414d565b6141788185614158565b9350614188818560208601613076565b80840191505092915050565b60006141a08284614163565b915081905092915050565b7f416464726573733a20696e73756666696369656e742062616c616e636520666f60008201527f722063616c6c0000000000000000000000000000000000000000000000000000602082015250565b6000614207602683613065565b9150614212826141ab565b604082019050919050565b60006020820190508181036000830152614236816141fa565b9050919050565b7f416464726573733a2063616c6c20746f206e6f6e2d636f6e7472616374000000600082015250565b6000614273601d83613065565b915061427e8261423d565b602082019050919050565b600060208201905081810360008301526142a281614266565b905091905056fe416464726573733a206c6f772d6c6576656c2064656c65676174652063616c6c206661696c6564a264697066735822122030bb57eb4a6e705eac2aee9581919c27a27c48764974f236fee75d611e84426664736f6c634300080c0033",
  "linkReferences": {},
  "deployedLinkReferences": {}
}