{
  "_format": "hh-sol-artifact-1",
  "contractName": "ConfigProvider",
  "sourceName": "contracts/ConfigProvider.sol",
  "abi": [
    {
      "anonymous": false,
      "inputs": [
        {
          "indexed": true,
          "internalType": "address",
          "name": "previousOwner",
          "type": "address"
        },
        {
          "indexed": true,
          "internalType": "address",
          "name": "newOwner",
          "type": "address"
        }
      ],
      "name": "OwnershipTransferred",
      "type": "event"
    },
    {
      "inputs": [
        {
          "internalType": "address",
          "name": "pool",
          "type": "address"
        },
        {
          "internalType": "address",
          "name": "asset",
          "type": "address"
        }
      ],
      "name": "getATokenFor",
      "outputs": [
        {
          "internalType": "address",
          "name": "",
          "type": "address"
        }
      ],
      "stateMutability": "view",
      "type": "function"
    },
    {
      "inputs": [
        {
          "internalType": "address",
          "name": "pool",
          "type": "address"
        }
      ],
      "name": "getPoolDelegate",
      "outputs": [
        {
          "internalType": "address",
          "name": "",
          "type": "address"
        }
      ],
      "stateMutability": "view",
      "type": "function"
    },
    {
      "inputs": [
        {
          "internalType": "address",
          "name": "pool",
          "type": "address"
        },
        {
          "internalType": "address",
          "name": "asset",
          "type": "address"
        }
      ],
      "name": "getVTokenFor",
      "outputs": [
        {
          "internalType": "address",
          "name": "",
          "type": "address"
        }
      ],
      "stateMutability": "view",
      "type": "function"
    },
    {
      "inputs": [],
      "name": "owner",
      "outputs": [
        {
          "internalType": "address",
          "name": "",
          "type": "address"
        }
      ],
      "stateMutability": "view",
      "type": "function"
    },
    {
      "inputs": [],
      "name": "renounceOwnership",
      "outputs": [],
      "stateMutability": "nonpayable",
      "type": "function"
    },
    {
      "inputs": [
        {
          "internalType": "address",
          "name": "pool",
          "type": "address"
        },
        {
          "internalType": "address",
          "name": "asset",
          "type": "address"
        },
        {
          "internalType": "address",
          "name": "aToken",
          "type": "address"
        }
      ],
      "name": "setATokenFor",
      "outputs": [],
      "stateMutability": "nonpayable",
      "type": "function"
    },
    {
      "inputs": [
        {
          "internalType": "address",
          "name": "pool",
          "type": "address"
        },
        {
          "components": [
            {
              "internalType": "address",
              "name": "poolDelegate",
              "type": "address"
            },
            {
              "internalType": "address",
              "name": "rewardsDelegate",
              "type": "address"
            },
            {
              "internalType": "bytes",
              "name": "harvestCallData",
              "type": "bytes"
            }
          ],
          "internalType": "struct IConfigProvider.PoolConfig",
          "name": "config",
          "type": "tuple"
        }
      ],
      "name": "setPoolConfig",
      "outputs": [],
      "stateMutability": "nonpayable",
      "type": "function"
    },
    {
      "inputs": [
        {
          "internalType": "address",
          "name": "pool",
          "type": "address"
        },
        {
          "internalType": "address",
          "name": "asset",
          "type": "address"
        },
        {
          "internalType": "address",
          "name": "vToken",
          "type": "address"
        }
      ],
      "name": "setVTokenFor",
      "outputs": [],
      "stateMutability": "nonpayable",
      "type": "function"
    },
    {
      "inputs": [
        {
          "internalType": "address",
          "name": "newOwner",
          "type": "address"
        }
      ],
      "name": "transferOwnership",
      "outputs": [],
      "stateMutability": "nonpayable",
      "type": "function"
    }
  ],
  "bytecode": "0x608060405234801561001057600080fd5b5061002d61002261003260201b60201c565b61003a60201b60201c565b6100fe565b600033905090565b60008060009054906101000a900473ffffffffffffffffffffffffffffffffffffffff169050816000806101000a81548173ffffffffffffffffffffffffffffffffffffffff021916908373ffffffffffffffffffffffffffffffffffffffff1602179055508173ffffffffffffffffffffffffffffffffffffffff168173ffffffffffffffffffffffffffffffffffffffff167f8be0079c531659141344cd1fd0a4f28419497f9722a3daafe3b4186f6b6457e060405160405180910390a35050565b610f6b8061010d6000396000f3fe608060405234801561001057600080fd5b50600436106100935760003560e01c8063715018a611610066578063715018a61461011c5780637e8f3aed146101265780638da5cb5b14610156578063c9b1f1fb14610174578063f2fde38b146101a457610093565b8063130ea1d014610098578063271dc945146100b45780635d77942b146100e45780636b1c63ee14610100575b600080fd5b6100b260048036038101906100ad91906107d8565b6101c0565b005b6100ce60048036038101906100c9919061082b565b610288565b6040516100db919061087a565b60405180910390f35b6100fe60048036038101906100f991906107d8565b61032f565b005b61011a600480360381019061011591906108b9565b6103f7565b005b610124610452565b005b610140600480360381019061013b9190610915565b610466565b60405161014d919061087a565b60405180910390f35b61015e6104d2565b60405161016b919061087a565b60405180910390f35b61018e6004803603810190610189919061082b565b6104fb565b60405161019b919061087a565b60405180910390f35b6101be60048036038101906101b99190610915565b6105a2565b005b6101c8610626565b80600360008573ffffffffffffffffffffffffffffffffffffffff1673ffffffffffffffffffffffffffffffffffffffff16815260200190815260200160002060008473ffffffffffffffffffffffffffffffffffffffff1673ffffffffffffffffffffffffffffffffffffffff16815260200190815260200160002060006101000a81548173ffffffffffffffffffffffffffffffffffffffff021916908373ffffffffffffffffffffffffffffffffffffffff160217905550505050565b6000600260008473ffffffffffffffffffffffffffffffffffffffff1673ffffffffffffffffffffffffffffffffffffffff16815260200190815260200160002060008373ffffffffffffffffffffffffffffffffffffffff1673ffffffffffffffffffffffffffffffffffffffff16815260200190815260200160002060009054906101000a900473ffffffffffffffffffffffffffffffffffffffff16905092915050565b610337610626565b80600260008573ffffffffffffffffffffffffffffffffffffffff1673ffffffffffffffffffffffffffffffffffffffff16815260200190815260200160002060008473ffffffffffffffffffffffffffffffffffffffff1673ffffffffffffffffffffffffffffffffffffffff16815260200190815260200160002060006101000a81548173ffffffffffffffffffffffffffffffffffffffff021916908373ffffffffffffffffffffffffffffffffffffffff160217905550505050565b6103ff610626565b80600160008473ffffffffffffffffffffffffffffffffffffffff1673ffffffffffffffffffffffffffffffffffffffff168152602001908152602001600020818161044b9190610e18565b9050505050565b61045a610626565b61046460006106a4565b565b6000600160008373ffffffffffffffffffffffffffffffffffffffff1673ffffffffffffffffffffffffffffffffffffffff16815260200190815260200160002060000160009054906101000a900473ffffffffffffffffffffffffffffffffffffffff169050919050565b60008060009054906101000a900473ffffffffffffffffffffffffffffffffffffffff16905090565b6000600360008473ffffffffffffffffffffffffffffffffffffffff1673ffffffffffffffffffffffffffffffffffffffff16815260200190815260200160002060008373ffffffffffffffffffffffffffffffffffffffff1673ffffffffffffffffffffffffffffffffffffffff16815260200190815260200160002060009054906101000a900473ffffffffffffffffffffffffffffffffffffffff16905092915050565b6105aa610626565b600073ffffffffffffffffffffffffffffffffffffffff168173ffffffffffffffffffffffffffffffffffffffff16141561061a576040517f08c379a000000000000000000000000000000000000000000000000000000000815260040161061190610ea9565b60405180910390fd5b610623816106a4565b50565b61062e610768565b73ffffffffffffffffffffffffffffffffffffffff1661064c6104d2565b73ffffffffffffffffffffffffffffffffffffffff16146106a2576040517f08c379a000000000000000000000000000000000000000000000000000000000815260040161069990610f15565b60405180910390fd5b565b60008060009054906101000a900473ffffffffffffffffffffffffffffffffffffffff169050816000806101000a81548173ffffffffffffffffffffffffffffffffffffffff021916908373ffffffffffffffffffffffffffffffffffffffff1602179055508173ffffffffffffffffffffffffffffffffffffffff168173ffffffffffffffffffffffffffffffffffffffff167f8be0079c531659141344cd1fd0a4f28419497f9722a3daafe3b4186f6b6457e060405160405180910390a35050565b600033905090565b600080fd5b600080fd5b600073ffffffffffffffffffffffffffffffffffffffff82169050919050565b60006107a58261077a565b9050919050565b6107b58161079a565b81146107c057600080fd5b50565b6000813590506107d2816107ac565b92915050565b6000806000606084860312156107f1576107f0610770565b5b60006107ff868287016107c3565b9350506020610810868287016107c3565b9250506040610821868287016107c3565b9150509250925092565b6000806040838503121561084257610841610770565b5b6000610850858286016107c3565b9250506020610861858286016107c3565b9150509250929050565b6108748161079a565b82525050565b600060208201905061088f600083018461086b565b92915050565b600080fd5b6000606082840312156108b0576108af610895565b5b81905092915050565b600080604083850312156108d0576108cf610770565b5b60006108de858286016107c3565b925050602083013567ffffffffffffffff8111156108ff576108fe610775565b5b61090b8582860161089a565b9150509250929050565b60006020828403121561092b5761092a610770565b5b6000610939848285016107c3565b91505092915050565b6000813561094f816107ac565b80915050919050565b60008160001b9050919050565b600073ffffffffffffffffffffffffffffffffffffffff61098584610958565b9350801983169250808416831791505092915050565b6000819050919050565b60006109c06109bb6109b68461077a565b61099b565b61077a565b9050919050565b60006109d2826109a5565b9050919050565b60006109e4826109c7565b9050919050565b6000819050919050565b6109fe826109d9565b610a11610a0a826109eb565b8354610965565b8255505050565b600080fd5b600080fd5b600080fd5b60008083356001602003843603038112610a4457610a43610a18565b5b80840192508235915067ffffffffffffffff821115610a6657610a65610a1d565b5b602083019250600182023603831315610a8257610a81610a22565b5b509250929050565b600082905092915050565b7f4e487b7100000000000000000000000000000000000000000000000000000000600052604160045260246000fd5b7f4e487b7100000000000000000000000000000000000000000000000000000000600052602260045260246000fd5b60006002820490506001821680610b0b57607f821691505b60208210811415610b1f57610b1e610ac4565b5b50919050565b60008190508160005260206000209050919050565b60006020601f8301049050919050565b600082821b905092915050565b600060088302610b877fffffffffffffffffffffffffffffffffffffffffffffffffffffffffffffffff82610b4a565b610b918683610b4a565b95508019841693508086168417925050509392505050565b6000819050919050565b6000610bce610bc9610bc484610ba9565b61099b565b610ba9565b9050919050565b6000819050919050565b610be883610bb3565b610bfc610bf482610bd5565b848454610b57565b825550505050565b600090565b610c11610c04565b610c1c818484610bdf565b505050565b5b81811015610c4057610c35600082610c09565b600181019050610c22565b5050565b601f821115610c8557610c5681610b25565b610c5f84610b3a565b81016020851015610c6e578190505b610c82610c7a85610b3a565b830182610c21565b50505b505050565b600082821c905092915050565b6000610ca860001984600802610c8a565b1980831691505092915050565b6000610cc18383610c97565b9150826002028217905092915050565b610cdb8383610a8a565b67ffffffffffffffff811115610cf457610cf3610a95565b5b610cfe8254610af3565b610d09828285610c44565b6000601f831160018114610d385760008415610d26578287013590505b610d308582610cb5565b865550610d98565b601f198416610d4686610b25565b60005b82811015610d6e57848901358255600182019150602085019450602081019050610d49565b86831015610d8b5784890135610d87601f891682610c97565b8355505b6001600288020188555050505b50505050505050565b610dac838383610cd1565b505050565b600081016000830180610dc381610942565b9050610dcf81846109f5565b505050600181016020830180610de481610942565b9050610df081846109f5565b5050506002810160408301610e058185610a27565b610e10818386610da1565b505050505050565b610e228282610db1565b5050565b600082825260208201905092915050565b7f4f776e61626c653a206e6577206f776e657220697320746865207a65726f206160008201527f6464726573730000000000000000000000000000000000000000000000000000602082015250565b6000610e93602683610e26565b9150610e9e82610e37565b604082019050919050565b60006020820190508181036000830152610ec281610e86565b9050919050565b7f4f776e61626c653a2063616c6c6572206973206e6f7420746865206f776e6572600082015250565b6000610eff602083610e26565b9150610f0a82610ec9565b602082019050919050565b60006020820190508181036000830152610f2e81610ef2565b905091905056fea264697066735822122078ae0c21d5ab7cb2c549b91dd3475410f00b0949409d4f7ea8a3a90a6d9d39f064736f6c634300080c0033",
  "linkReferences": {},
  "deployedLinkReferences": {}
}