{
  "_format": "hh-sol-artifact-1",
  "contractName": "AaveV2PoolDelegate",
  "sourceName": "contracts/delegates/aaveV2/AaveV2Pool_Delegate.sol",
  "abi": [
    {
      "inputs": [
        {
          "components": [
            {
              "internalType": "address",
              "name": "pool",
              "type": "address"
            },
            {
              "internalType": "address",
              "name": "asset",
              "type": "address"
            },
            {
              "internalType": "uint256",
              "name": "amount",
              "type": "uint256"
            },
            {
              "internalType": "address",
              "name": "controller",
              "type": "address"
            }
          ],
          "internalType": "struct IPoolDelegate.CallParams",
          "name": "params",
          "type": "tuple"
        }
      ],
      "name": "borrow",
      "outputs": [],
      "stateMutability": "nonpayable",
      "type": "function"
    },
    {
      "inputs": [
        {
          "internalType": "address",
          "name": "asset",
          "type": "address"
        }
      ],
      "name": "borrowed",
      "outputs": [
        {
          "internalType": "uint256",
          "name": "",
          "type": "uint256"
        }
      ],
      "stateMutability": "view",
      "type": "function"
    },
    {
      "inputs": [
        {
          "components": [
            {
              "internalType": "address",
              "name": "pool",
              "type": "address"
            },
            {
              "internalType": "address",
              "name": "asset",
              "type": "address"
            },
            {
              "internalType": "uint256",
              "name": "amount",
              "type": "uint256"
            },
            {
              "internalType": "address",
              "name": "controller",
              "type": "address"
            }
          ],
          "internalType": "struct IPoolDelegate.CallParams",
          "name": "params",
          "type": "tuple"
        }
      ],
      "name": "repay",
      "outputs": [],
      "stateMutability": "payable",
      "type": "function"
    },
    {
      "inputs": [
        {
          "internalType": "address",
          "name": "asset",
          "type": "address"
        }
      ],
      "name": "supplied",
      "outputs": [
        {
          "internalType": "uint256",
          "name": "",
          "type": "uint256"
        }
      ],
      "stateMutability": "view",
      "type": "function"
    },
    {
      "inputs": [
        {
          "components": [
            {
              "internalType": "address",
              "name": "pool",
              "type": "address"
            },
            {
              "internalType": "address",
              "name": "asset",
              "type": "address"
            },
            {
              "internalType": "uint256",
              "name": "amount",
              "type": "uint256"
            },
            {
              "internalType": "address",
              "name": "controller",
              "type": "address"
            }
          ],
          "internalType": "struct IPoolDelegate.CallParams",
          "name": "params",
          "type": "tuple"
        }
      ],
      "name": "supply",
      "outputs": [],
      "stateMutability": "payable",
      "type": "function"
    },
    {
      "inputs": [
        {
          "components": [
            {
              "internalType": "address",
              "name": "pool",
              "type": "address"
            },
            {
              "internalType": "address",
              "name": "asset",
              "type": "address"
            },
            {
              "internalType": "uint256",
              "name": "amount",
              "type": "uint256"
            },
            {
              "internalType": "address",
              "name": "controller",
              "type": "address"
            }
          ],
          "internalType": "struct IPoolDelegate.CallParams",
          "name": "params",
          "type": "tuple"
        }
      ],
      "name": "withdraw",
      "outputs": [],
      "stateMutability": "nonpayable",
      "type": "function"
    }
  ],
  "bytecode": "0x608060405234801561001057600080fd5b50610bec806100206000396000f3fe6080604052600436106100555760003560e01c806305e4833a1461005a5780630941cb3d14610076578063155a7205146100b35780635acb354a146100f05780635b8a60c414610119578063ef33f95d14610142575b600080fd5b610074600480360381019061006f919061079a565b61015e565b005b34801561008257600080fd5b5061009d60048036038101906100989190610825565b6102fd565b6040516100aa919061086b565b60405180910390f35b3480156100bf57600080fd5b506100da60048036038101906100d59190610825565b610380565b6040516100e7919061086b565b60405180910390f35b3480156100fc57600080fd5b506101176004803603810190610112919061079a565b610403565b005b34801561012557600080fd5b50610140600480360381019061013b919061079a565b610538565b005b61015c6004803603810190610157919061079a565b6105e4565b005b600034146101a1576040517f08c379a0000000000000000000000000000000000000000000000000000000008152600401610198906108e3565b60405180910390fd5b60008160200160208101906101b69190610825565b90508073ffffffffffffffffffffffffffffffffffffffff1663095ea7b38360000160208101906101e79190610825565b84604001356040518363ffffffff1660e01b8152600401610209929190610912565b6020604051808303816000875af1158015610228573d6000803e3d6000fd5b505050506040513d601f19601f8201168201806040525081019061024c9190610973565b508160000160208101906102609190610825565b73ffffffffffffffffffffffffffffffffffffffff1663573ade8183602001602081019061028e9190610825565b84604001356002306040518563ffffffff1660e01b81526004016102b594939291906109e5565b6020604051808303816000875af11580156102d4573d6000803e3d6000fd5b505050506040513d601f19601f820116820180604052508101906102f89190610a56565b505050565b60008173ffffffffffffffffffffffffffffffffffffffff166370a08231336040518263ffffffff1660e01b81526004016103389190610a83565b602060405180830381865afa158015610355573d6000803e3d6000fd5b505050506040513d601f19601f820116820180604052508101906103799190610a56565b9050919050565b60008173ffffffffffffffffffffffffffffffffffffffff166370a08231336040518263ffffffff1660e01b81526004016103bb9190610a83565b602060405180830381865afa1580156103d8573d6000803e3d6000fd5b505050506040513d601f19601f820116820180604052508101906103fc9190610a56565b9050919050565b8060000160208101906104169190610825565b73ffffffffffffffffffffffffffffffffffffffff1663a415bcad8260200160208101906104449190610825565b836040013560026000306040518663ffffffff1660e01b815260040161046e959493929190610ae7565b600060405180830381600087803b15801561048857600080fd5b505af115801561049c573d6000803e3d6000fd5b505050508060200160208101906104b39190610825565b73ffffffffffffffffffffffffffffffffffffffff1663a9059cbb3383604001356040518363ffffffff1660e01b81526004016104f1929190610912565b6020604051808303816000875af1158015610510573d6000803e3d6000fd5b505050506040513d601f19601f820116820180604052508101906105349190610973565b5050565b80600001602081019061054b9190610825565b73ffffffffffffffffffffffffffffffffffffffff166369328dec8260200160208101906105799190610825565b8360400135306040518463ffffffff1660e01b815260040161059d93929190610b3a565b6020604051808303816000875af11580156105bc573d6000803e3d6000fd5b505050506040513d601f19601f820116820180604052508101906105e09190610a56565b5050565b60003414610627576040517f08c379a000000000000000000000000000000000000000000000000000000000815260040161061e906108e3565b60405180910390fd5b600081602001602081019061063c9190610825565b90508073ffffffffffffffffffffffffffffffffffffffff1663095ea7b383600001602081019061066d9190610825565b84604001356040518363ffffffff1660e01b815260040161068f929190610912565b6020604051808303816000875af11580156106ae573d6000803e3d6000fd5b505050506040513d601f19601f820116820180604052508101906106d29190610973565b508160000160208101906106e69190610825565b73ffffffffffffffffffffffffffffffffffffffff1663e8eda9df8360200160208101906107149190610825565b84604001353060006040518563ffffffff1660e01b815260040161073b9493929190610b71565b600060405180830381600087803b15801561075557600080fd5b505af1158015610769573d6000803e3d6000fd5b505050505050565b600080fd5b600080fd5b60006080828403121561079157610790610776565b5b81905092915050565b6000608082840312156107b0576107af610771565b5b60006107be8482850161077b565b91505092915050565b600073ffffffffffffffffffffffffffffffffffffffff82169050919050565b60006107f2826107c7565b9050919050565b610802816107e7565b811461080d57600080fd5b50565b60008135905061081f816107f9565b92915050565b60006020828403121561083b5761083a610771565b5b600061084984828501610810565b91505092915050565b6000819050919050565b61086581610852565b82525050565b6000602082019050610880600083018461085c565b92915050565b600082825260208201905092915050565b7f44656c65676174653a2034303000000000000000000000000000000000000000600082015250565b60006108cd600d83610886565b91506108d882610897565b602082019050919050565b600060208201905081810360008301526108fc816108c0565b9050919050565b61090c816107e7565b82525050565b60006040820190506109276000830185610903565b610934602083018461085c565b9392505050565b60008115159050919050565b6109508161093b565b811461095b57600080fd5b50565b60008151905061096d81610947565b92915050565b60006020828403121561098957610988610771565b5b60006109978482850161095e565b91505092915050565b6000819050919050565b6000819050919050565b60006109cf6109ca6109c5846109a0565b6109aa565b610852565b9050919050565b6109df816109b4565b82525050565b60006080820190506109fa6000830187610903565b610a07602083018661085c565b610a1460408301856109d6565b610a216060830184610903565b95945050505050565b610a3381610852565b8114610a3e57600080fd5b50565b600081519050610a5081610a2a565b92915050565b600060208284031215610a6c57610a6b610771565b5b6000610a7a84828501610a41565b91505092915050565b6000602082019050610a986000830184610903565b92915050565b6000819050919050565b600061ffff82169050919050565b6000610ad1610acc610ac784610a9e565b6109aa565b610aa8565b9050919050565b610ae181610ab6565b82525050565b600060a082019050610afc6000830188610903565b610b09602083018761085c565b610b1660408301866109d6565b610b236060830185610ad8565b610b306080830184610903565b9695505050505050565b6000606082019050610b4f6000830186610903565b610b5c602083018561085c565b610b696040830184610903565b949350505050565b6000608082019050610b866000830187610903565b610b93602083018661085c565b610ba06040830185610903565b610bad6060830184610ad8565b9594505050505056fea26469706673582212206eeb286d2e2b83d992ac0b4193059fbea8823558e5c48dc3f776aec021dc27b764736f6c634300080c0033",
  "linkReferences": {},
  "deployedLinkReferences": {}
}