{
  "_format": "hh-sol-artifact-1",
  "contractName": "AaveV2PoolDelegate",
  "sourceName": "contracts/delegates/aaveV2/AaveV2Pool_Delegate.sol",
  "abi": [
    {
      "inputs": [
        {
          "components": [
            {
              "internalType": "address",
              "name": "pool",
              "type": "address"
            },
            {
              "internalType": "address",
              "name": "asset",
              "type": "address"
            },
            {
              "internalType": "uint256",
              "name": "amount",
              "type": "uint256"
            }
          ],
          "internalType": "struct IPoolDelegate.CallParams",
          "name": "params",
          "type": "tuple"
        }
      ],
      "name": "borrow",
      "outputs": [],
      "stateMutability": "nonpayable",
      "type": "function"
    },
    {
      "inputs": [
        {
          "components": [
            {
              "internalType": "address",
              "name": "pool",
              "type": "address"
            },
            {
              "internalType": "address",
              "name": "asset",
              "type": "address"
            },
            {
              "internalType": "uint256",
              "name": "amount",
              "type": "uint256"
            }
          ],
          "internalType": "struct IPoolDelegate.CallParams",
          "name": "params",
          "type": "tuple"
        }
      ],
      "name": "borrowed",
      "outputs": [
        {
          "internalType": "uint256",
          "name": "",
          "type": "uint256"
        }
      ],
      "stateMutability": "view",
      "type": "function"
    },
    {
      "inputs": [
        {
          "components": [
            {
              "internalType": "address",
              "name": "pool",
              "type": "address"
            },
            {
              "internalType": "address",
              "name": "asset",
              "type": "address"
            },
            {
              "internalType": "uint256",
              "name": "amount",
              "type": "uint256"
            }
          ],
          "internalType": "struct IPoolDelegate.CallParams",
          "name": "params",
          "type": "tuple"
        }
      ],
      "name": "repay",
      "outputs": [],
      "stateMutability": "nonpayable",
      "type": "function"
    },
    {
      "inputs": [
        {
          "components": [
            {
              "internalType": "address",
              "name": "pool",
              "type": "address"
            },
            {
              "internalType": "address",
              "name": "asset",
              "type": "address"
            },
            {
              "internalType": "uint256",
              "name": "amount",
              "type": "uint256"
            }
          ],
          "internalType": "struct IPoolDelegate.CallParams",
          "name": "params",
          "type": "tuple"
        }
      ],
      "name": "supplied",
      "outputs": [
        {
          "internalType": "uint256",
          "name": "",
          "type": "uint256"
        }
      ],
      "stateMutability": "view",
      "type": "function"
    },
    {
      "inputs": [
        {
          "components": [
            {
              "internalType": "address",
              "name": "pool",
              "type": "address"
            },
            {
              "internalType": "address",
              "name": "asset",
              "type": "address"
            },
            {
              "internalType": "uint256",
              "name": "amount",
              "type": "uint256"
            }
          ],
          "internalType": "struct IPoolDelegate.CallParams",
          "name": "params",
          "type": "tuple"
        }
      ],
      "name": "supply",
      "outputs": [],
      "stateMutability": "nonpayable",
      "type": "function"
    },
    {
      "inputs": [
        {
          "components": [
            {
              "internalType": "address",
              "name": "pool",
              "type": "address"
            },
            {
              "internalType": "address",
              "name": "asset",
              "type": "address"
            },
            {
              "internalType": "uint256",
              "name": "amount",
              "type": "uint256"
            }
          ],
          "internalType": "struct IPoolDelegate.CallParams",
          "name": "params",
          "type": "tuple"
        }
      ],
      "name": "withdraw",
      "outputs": [],
      "stateMutability": "nonpayable",
      "type": "function"
    }
  ],
  "bytecode": "0x608060405234801561001057600080fd5b50610a51806100206000396000f3fe608060405234801561001057600080fd5b50600436106100625760003560e01c80630c96b8b014610067578063292d0abe14610083578063516789671461009f5780636abafac3146100bb57806371bd5c65146100eb578063fbc4b6921461011b575b600080fd5b610081600480360381019061007c919061067c565b610137565b005b61009d6004803603810190610098919061067c565b6101d7565b005b6100b960048036038101906100b4919061067c565b610321565b005b6100d560048036038101906100d0919061067c565b6103cd565b6040516100e291906106c2565b60405180910390f35b6101056004803603810190610100919061067c565b610462565b60405161011291906106c2565b60405180910390f35b6101356004803603810190610130919061067c565b6104f7565b005b80600001602081019061014a919061073b565b73ffffffffffffffffffffffffffffffffffffffff1663a415bcad826020016020810190610178919061073b565b836040013560026000306040518663ffffffff1660e01b81526004016101a2959493929190610805565b600060405180830381600087803b1580156101bc57600080fd5b505af11580156101d0573d6000803e3d6000fd5b5050505050565b60008160200160208101906101ec919061073b565b90508073ffffffffffffffffffffffffffffffffffffffff1663095ea7b383600001602081019061021d919061073b565b84604001356040518363ffffffff1660e01b815260040161023f929190610858565b6020604051808303816000875af115801561025e573d6000803e3d6000fd5b505050506040513d601f19601f8201168201806040525081019061028291906108b9565b50816000016020810190610296919061073b565b73ffffffffffffffffffffffffffffffffffffffff1663e8eda9df8360200160208101906102c4919061073b565b84604001353060006040518563ffffffff1660e01b81526004016102eb94939291906108e6565b600060405180830381600087803b15801561030557600080fd5b505af1158015610319573d6000803e3d6000fd5b505050505050565b806000016020810190610334919061073b565b73ffffffffffffffffffffffffffffffffffffffff166369328dec826020016020810190610362919061073b565b8360400135306040518463ffffffff1660e01b81526004016103869392919061092b565b6020604051808303816000875af11580156103a5573d6000803e3d6000fd5b505050506040513d601f19601f820116820180604052508101906103c9919061098e565b5050565b60008160200160208101906103e2919061073b565b73ffffffffffffffffffffffffffffffffffffffff166370a08231306040518263ffffffff1660e01b815260040161041a91906109bb565b602060405180830381865afa158015610437573d6000803e3d6000fd5b505050506040513d601f19601f8201168201806040525081019061045b919061098e565b9050919050565b6000816020016020810190610477919061073b565b73ffffffffffffffffffffffffffffffffffffffff166370a08231306040518263ffffffff1660e01b81526004016104af91906109bb565b602060405180830381865afa1580156104cc573d6000803e3d6000fd5b505050506040513d601f19601f820116820180604052508101906104f0919061098e565b9050919050565b600081602001602081019061050c919061073b565b90508073ffffffffffffffffffffffffffffffffffffffff1663095ea7b383600001602081019061053d919061073b565b84604001356040518363ffffffff1660e01b815260040161055f929190610858565b6020604051808303816000875af115801561057e573d6000803e3d6000fd5b505050506040513d601f19601f820116820180604052508101906105a291906108b9565b508160000160208101906105b6919061073b565b73ffffffffffffffffffffffffffffffffffffffff1663573ade818360200160208101906105e4919061073b565b84604001356002306040518563ffffffff1660e01b815260040161060b94939291906109d6565b6020604051808303816000875af115801561062a573d6000803e3d6000fd5b505050506040513d601f19601f8201168201806040525081019061064e919061098e565b505050565b600080fd5b600080fd5b60006060828403121561067357610672610658565b5b81905092915050565b60006060828403121561069257610691610653565b5b60006106a08482850161065d565b91505092915050565b6000819050919050565b6106bc816106a9565b82525050565b60006020820190506106d760008301846106b3565b92915050565b600073ffffffffffffffffffffffffffffffffffffffff82169050919050565b6000610708826106dd565b9050919050565b610718816106fd565b811461072357600080fd5b50565b6000813590506107358161070f565b92915050565b60006020828403121561075157610750610653565b5b600061075f84828501610726565b91505092915050565b610771816106fd565b82525050565b6000819050919050565b6000819050919050565b60006107a66107a161079c84610777565b610781565b6106a9565b9050919050565b6107b68161078b565b82525050565b6000819050919050565b600061ffff82169050919050565b60006107ef6107ea6107e5846107bc565b610781565b6107c6565b9050919050565b6107ff816107d4565b82525050565b600060a08201905061081a6000830188610768565b61082760208301876106b3565b61083460408301866107ad565b61084160608301856107f6565b61084e6080830184610768565b9695505050505050565b600060408201905061086d6000830185610768565b61087a60208301846106b3565b9392505050565b60008115159050919050565b61089681610881565b81146108a157600080fd5b50565b6000815190506108b38161088d565b92915050565b6000602082840312156108cf576108ce610653565b5b60006108dd848285016108a4565b91505092915050565b60006080820190506108fb6000830187610768565b61090860208301866106b3565b6109156040830185610768565b61092260608301846107f6565b95945050505050565b60006060820190506109406000830186610768565b61094d60208301856106b3565b61095a6040830184610768565b949350505050565b61096b816106a9565b811461097657600080fd5b50565b60008151905061098881610962565b92915050565b6000602082840312156109a4576109a3610653565b5b60006109b284828501610979565b91505092915050565b60006020820190506109d06000830184610768565b92915050565b60006080820190506109eb6000830187610768565b6109f860208301866106b3565b610a0560408301856107ad565b610a126060830184610768565b9594505050505056fea26469706673582212206e0db07292337d2937d42534541d4e479b1f80de634637065b9839388da789c864736f6c634300080c0033",
  "linkReferences": {},
  "deployedLinkReferences": {}
}