{
  "_format": "hh-sol-artifact-1",
  "contractName": "VaultGenerator",
  "sourceName": "contracts/VaultGenerator.sol",
  "abi": [
    {
      "inputs": [
        {
          "internalType": "address",
          "name": "swapper_",
          "type": "address"
        },
        {
          "internalType": "address",
          "name": "feesCollector_",
          "type": "address"
        },
        {
          "internalType": "address",
          "name": "configProvider_",
          "type": "address"
        }
      ],
      "stateMutability": "nonpayable",
      "type": "constructor"
    },
    {
      "anonymous": false,
      "inputs": [
        {
          "indexed": true,
          "internalType": "address",
          "name": "previousOwner",
          "type": "address"
        },
        {
          "indexed": true,
          "internalType": "address",
          "name": "newOwner",
          "type": "address"
        }
      ],
      "name": "OwnershipTransferred",
      "type": "event"
    },
    {
      "anonymous": false,
      "inputs": [
        {
          "indexed": true,
          "internalType": "address",
          "name": "owner",
          "type": "address"
        },
        {
          "indexed": false,
          "internalType": "address",
          "name": "vault",
          "type": "address"
        }
      ],
      "name": "VaultCreated",
      "type": "event"
    },
    {
      "inputs": [
        {
          "internalType": "string",
          "name": "name_",
          "type": "string"
        }
      ],
      "name": "createVault",
      "outputs": [],
      "stateMutability": "nonpayable",
      "type": "function"
    },
    {
      "inputs": [
        {
          "internalType": "address",
          "name": "account",
          "type": "address"
        }
      ],
      "name": "getAccountVaults",
      "outputs": [
        {
          "internalType": "address[]",
          "name": "",
          "type": "address[]"
        }
      ],
      "stateMutability": "view",
      "type": "function"
    },
    {
      "inputs": [],
      "name": "owner",
      "outputs": [
        {
          "internalType": "address",
          "name": "",
          "type": "address"
        }
      ],
      "stateMutability": "view",
      "type": "function"
    },
    {
      "inputs": [],
      "name": "renounceOwnership",
      "outputs": [],
      "stateMutability": "nonpayable",
      "type": "function"
    },
    {
      "inputs": [
        {
          "internalType": "address",
          "name": "newOwner",
          "type": "address"
        }
      ],
      "name": "transferOwnership",
      "outputs": [],
      "stateMutability": "nonpayable",
      "type": "function"
    }
  ],
  "bytecode": "0x60806040523480156200001157600080fd5b506040516200568438038062005684833981810160405281019062000037919062000259565b620000576200004b6200012360201b60201c565b6200012b60201b60201c565b82600360006101000a81548173ffffffffffffffffffffffffffffffffffffffff021916908373ffffffffffffffffffffffffffffffffffffffff16021790555080600260006101000a81548173ffffffffffffffffffffffffffffffffffffffff021916908373ffffffffffffffffffffffffffffffffffffffff16021790555081600160006101000a81548173ffffffffffffffffffffffffffffffffffffffff021916908373ffffffffffffffffffffffffffffffffffffffff160217905550505050620002b5565b600033905090565b60008060009054906101000a900473ffffffffffffffffffffffffffffffffffffffff169050816000806101000a81548173ffffffffffffffffffffffffffffffffffffffff021916908373ffffffffffffffffffffffffffffffffffffffff1602179055508173ffffffffffffffffffffffffffffffffffffffff168173ffffffffffffffffffffffffffffffffffffffff167f8be0079c531659141344cd1fd0a4f28419497f9722a3daafe3b4186f6b6457e060405160405180910390a35050565b600080fd5b600073ffffffffffffffffffffffffffffffffffffffff82169050919050565b60006200022182620001f4565b9050919050565b620002338162000214565b81146200023f57600080fd5b50565b600081519050620002538162000228565b92915050565b600080600060608486031215620002755762000274620001ef565b5b6000620002858682870162000242565b9350506020620002988682870162000242565b9250506040620002ab8682870162000242565b9150509250925092565b6153bf80620002c56000396000f3fe60806040523480156200001157600080fd5b50600436106200005e5760003560e01c80633fe1da881462000063578063715018a61462000083578063846e3de6146200008f5780638da5cb5b14620000c5578063f2fde38b14620000e7575b600080fd5b6200008160048036038101906200007b9190620006a3565b62000107565b005b6200008d62000331565b005b620000ad6004803603810190620000a791906200075d565b62000349565b604051620000bc91906200085d565b60405180910390f35b620000cf62000418565b604051620000de919062000892565b60405180910390f35b620001056004803603810190620000ff91906200075d565b62000441565b005b60008282600360009054906101000a900473ffffffffffffffffffffffffffffffffffffffff16600160009054906101000a900473ffffffffffffffffffffffffffffffffffffffff16600260009054906101000a900473ffffffffffffffffffffffffffffffffffffffff1660405162000182906200061d565b6200019295949392919062000913565b604051809103906000f080158015620001af573d6000803e3d6000fd5b5090508073ffffffffffffffffffffffffffffffffffffffff1663f2fde38b620001d8620004cc565b6040518263ffffffff1660e01b8152600401620001f6919062000892565b600060405180830381600087803b1580156200021157600080fd5b505af115801562000226573d6000803e3d6000fd5b505050506004600062000238620004cc565b73ffffffffffffffffffffffffffffffffffffffff1673ffffffffffffffffffffffffffffffffffffffff168152602001908152602001600020819080600181540180825580915050600190039060005260206000200160009091909190916101000a81548173ffffffffffffffffffffffffffffffffffffffff021916908373ffffffffffffffffffffffffffffffffffffffff160217905550620002dd620004cc565b73ffffffffffffffffffffffffffffffffffffffff167f5d9c31ffa0fecffd7cf379989a3c7af252f0335e0d2a1320b55245912c781f538260405162000324919062000892565b60405180910390a2505050565b6200033b620004d4565b62000347600062000559565b565b6060600460008373ffffffffffffffffffffffffffffffffffffffff1673ffffffffffffffffffffffffffffffffffffffff1681526020019081526020016000208054806020026020016040519081016040528092919081815260200182805480156200040c57602002820191906000526020600020905b8160009054906101000a900473ffffffffffffffffffffffffffffffffffffffff1673ffffffffffffffffffffffffffffffffffffffff1681526020019060010190808311620003c1575b50505050509050919050565b60008060009054906101000a900473ffffffffffffffffffffffffffffffffffffffff16905090565b6200044b620004d4565b600073ffffffffffffffffffffffffffffffffffffffff168173ffffffffffffffffffffffffffffffffffffffff161415620004be576040517f08c379a0000000000000000000000000000000000000000000000000000000008152600401620004b590620009df565b60405180910390fd5b620004c98162000559565b50565b600033905090565b620004de620004cc565b73ffffffffffffffffffffffffffffffffffffffff16620004fe62000418565b73ffffffffffffffffffffffffffffffffffffffff161462000557576040517f08c379a00000000000000000000000000000000000000000000000000000000081526004016200054e9062000a51565b60405180910390fd5b565b60008060009054906101000a900473ffffffffffffffffffffffffffffffffffffffff169050816000806101000a81548173ffffffffffffffffffffffffffffffffffffffff021916908373ffffffffffffffffffffffffffffffffffffffff1602179055508173ffffffffffffffffffffffffffffffffffffffff168173ffffffffffffffffffffffffffffffffffffffff167f8be0079c531659141344cd1fd0a4f28419497f9722a3daafe3b4186f6b6457e060405160405180910390a35050565b6149168062000a7483390190565b600080fd5b600080fd5b600080fd5b600080fd5b600080fd5b60008083601f8401126200065d576200065c62000635565b5b8235905067ffffffffffffffff8111156200067d576200067c6200063a565b5b6020830191508360018202830111156200069c576200069b6200063f565b5b9250929050565b60008060208385031215620006bd57620006bc6200062b565b5b600083013567ffffffffffffffff811115620006de57620006dd62000630565b5b620006ec8582860162000644565b92509250509250929050565b600073ffffffffffffffffffffffffffffffffffffffff82169050919050565b60006200072582620006f8565b9050919050565b620007378162000718565b81146200074357600080fd5b50565b60008135905062000757816200072c565b92915050565b6000602082840312156200077657620007756200062b565b5b6000620007868482850162000746565b91505092915050565b600081519050919050565b600082825260208201905092915050565b6000819050602082019050919050565b620007c68162000718565b82525050565b6000620007da8383620007bb565b60208301905092915050565b6000602082019050919050565b600062000800826200078f565b6200080c81856200079a565b93506200081983620007ab565b8060005b8381101562000850578151620008348882620007cc565b97506200084183620007e6565b9250506001810190506200081d565b5085935050505092915050565b60006020820190508181036000830152620008798184620007f3565b905092915050565b6200088c8162000718565b82525050565b6000602082019050620008a9600083018462000881565b92915050565b600082825260208201905092915050565b82818337600083830152505050565b6000601f19601f8301169050919050565b6000620008ee8385620008af565b9350620008fd838584620008c0565b6200090883620008cf565b840190509392505050565b6000608082019050818103600083015262000930818789620008e0565b905062000941602083018662000881565b62000950604083018562000881565b6200095f606083018462000881565b9695505050505050565b7f4f776e61626c653a206e6577206f776e657220697320746865207a65726f206160008201527f6464726573730000000000000000000000000000000000000000000000000000602082015250565b6000620009c7602683620008af565b9150620009d48262000969565b604082019050919050565b60006020820190508181036000830152620009fa81620009b8565b9050919050565b7f4f776e61626c653a2063616c6c6572206973206e6f7420746865206f776e6572600082015250565b600062000a39602083620008af565b915062000a468262000a01565b602082019050919050565b6000602082019050818103600083015262000a6c8162000a2a565b905091905056fe60806040523480156200001157600080fd5b5060405162004916380380620049168339818101604052810190620000379190620004bf565b8084620000596200004d6200014160201b60201c565b6200014960201b60201c565b81600560006101000a81548173ffffffffffffffffffffffffffffffffffffffff021916908373ffffffffffffffffffffffffffffffffffffffff1602179055508060019080519060200190620000b29291906200020d565b50505082600660006101000a81548173ffffffffffffffffffffffffffffffffffffffff021916908373ffffffffffffffffffffffffffffffffffffffff16021790555081600760006101000a81548173ffffffffffffffffffffffffffffffffffffffff021916908373ffffffffffffffffffffffffffffffffffffffff16021790555050505050620005b5565b600033905090565b60008060009054906101000a900473ffffffffffffffffffffffffffffffffffffffff169050816000806101000a81548173ffffffffffffffffffffffffffffffffffffffff021916908373ffffffffffffffffffffffffffffffffffffffff1602179055508173ffffffffffffffffffffffffffffffffffffffff168173ffffffffffffffffffffffffffffffffffffffff167f8be0079c531659141344cd1fd0a4f28419497f9722a3daafe3b4186f6b6457e060405160405180910390a35050565b8280546200021b906200057f565b90600052602060002090601f0160209004810192826200023f57600085556200028b565b82601f106200025a57805160ff19168380011785556200028b565b828001600101855582156200028b579182015b828111156200028a5782518255916020019190600101906200026d565b5b5090506200029a91906200029e565b5090565b5b80821115620002b95760008160009055506001016200029f565b5090565b6000604051905090565b600080fd5b600080fd5b600080fd5b600080fd5b6000601f19601f8301169050919050565b7f4e487b7100000000000000000000000000000000000000000000000000000000600052604160045260246000fd5b6200032682620002db565b810181811067ffffffffffffffff82111715620003485762000347620002ec565b5b80604052505050565b60006200035d620002bd565b90506200036b82826200031b565b919050565b600067ffffffffffffffff8211156200038e576200038d620002ec565b5b6200039982620002db565b9050602081019050919050565b60005b83811015620003c6578082015181840152602081019050620003a9565b83811115620003d6576000848401525b50505050565b6000620003f3620003ed8462000370565b62000351565b905082815260208101848484011115620004125762000411620002d6565b5b6200041f848285620003a6565b509392505050565b600082601f8301126200043f576200043e620002d1565b5b815162000451848260208601620003dc565b91505092915050565b600073ffffffffffffffffffffffffffffffffffffffff82169050919050565b600062000487826200045a565b9050919050565b62000499816200047a565b8114620004a557600080fd5b50565b600081519050620004b9816200048e565b92915050565b60008060008060808587031215620004dc57620004db620002c7565b5b600085015167ffffffffffffffff811115620004fd57620004fc620002cc565b5b6200050b8782880162000427565b94505060206200051e87828801620004a8565b93505060406200053187828801620004a8565b92505060606200054487828801620004a8565b91505092959194509250565b7f4e487b7100000000000000000000000000000000000000000000000000000000600052602260045260246000fd5b600060028204905060018216806200059857607f821691505b60208210811415620005af57620005ae62000550565b5b50919050565b61435180620005c56000396000f3fe6080604052600436106101145760003560e01c80638da5cb5b116100a0578063d4d4ed0011610064578063d4d4ed0014610366578063dbba0f01146103a3578063e74f6ff6146103cc578063ef33f95d146103f7578063f2fde38b1461041357610114565b80638da5cb5b14610297578063985f61a1146102c25780639d0506ae146102eb5780639e2578ed14610314578063c47f00271461033d57610114565b80635b8a60c4116100e75780635b8a60c4146101b45780635ba34b53146101dd578063715018a61461021a57806375b783191461023157806388dab3391461026e57610114565b806305e4833a1461011957806306fdde03146101355780633eea1ef3146101605780635acb354a1461018b575b600080fd5b610133600480360381019061012e9190613078565b61043c565b005b34801561014157600080fd5b5061014a6105b0565b604051610157919061312d565b60405180910390f35b34801561016c57600080fd5b50610175610642565b604051610182919061315e565b60405180910390f35b34801561019757600080fd5b506101b260048036038101906101ad919061319d565b61066c565b005b3480156101c057600080fd5b506101db60048036038101906101d69190613078565b610a05565b005b3480156101e957600080fd5b5061020460048036038101906101ff9190613078565b610bdc565b60405161021191906131d9565b60405180910390f35b34801561022657600080fd5b5061022f610dae565b005b34801561023d57600080fd5b5061025860048036038101906102539190613078565b610dc2565b60405161026591906131d9565b60405180910390f35b34801561027a57600080fd5b50610295600480360381019061029091906132c1565b610f94565b005b3480156102a357600080fd5b506102ac611024565b6040516102b9919061315e565b60405180910390f35b3480156102ce57600080fd5b506102e960048036038101906102e49190613365565b61104d565b005b3480156102f757600080fd5b50610312600480360381019061030d9190613365565b61137d565b005b34801561032057600080fd5b5061033b60048036038101906103369190613408565b6114ae565b005b34801561034957600080fd5b50610364600480360381019061035f91906134ab565b611822565b005b34801561037257600080fd5b5061038d60048036038101906103889190613078565b611840565b60405161039a91906131d9565b60405180910390f35b3480156103af57600080fd5b506103ca60048036038101906103c591906134f8565b6118fc565b005b3480156103d857600080fd5b506103e1611a15565b6040516103ee919061315e565b60405180910390f35b610411600480360381019061040c919061319d565b611a3f565b005b34801561041f57600080fd5b5061043a6004803603810190610435919061354b565b611e12565b005b610444611e96565b6000816020015173ffffffffffffffffffffffffffffffffffffffff166370a08231306040518263ffffffff1660e01b8152600401610483919061315e565b602060405180830381865afa1580156104a0573d6000803e3d6000fd5b505050506040513d601f19601f820116820180604052508101906104c4919061358d565b905060006104d183610bdc565b9050826040015181106104e85782604001516104ea565b805b8360400181815250506105416040518060400160405280601081526020017f746f207472616e73666572203d2025730000000000000000000000000000000081525083856040015161053c91906135e9565b611f14565b82604001518210156105a25761055a8360200151611fb0565b6105a1610565612049565b3084866040015161057691906135e9565b866020015173ffffffffffffffffffffffffffffffffffffffff16612051909392919063ffffffff16565b5b6105ab836120da565b505050565b6060600180546105bf9061364c565b80601f01602080910402602001604051908101604052809291908181526020018280546105eb9061364c565b80156106385780601f1061060d57610100808354040283529160200191610638565b820191906000526020600020905b81548152906001019060200180831161061b57829003601f168201915b5050505050905090565b6000600360009054906101000a900473ffffffffffffffffffffffffffffffffffffffff16905090565b610674611e96565b600073ffffffffffffffffffffffffffffffffffffffff16600360009054906101000a900473ffffffffffffffffffffffffffffffffffffffff1673ffffffffffffffffffffffffffffffffffffffff1614610705576040517f08c379a00000000000000000000000000000000000000000000000000000000081526004016106fc906136ca565b60405180910390fd5b600073ffffffffffffffffffffffffffffffffffffffff16600460009054906101000a900473ffffffffffffffffffffffffffffffffffffffff1673ffffffffffffffffffffffffffffffffffffffff1614610796576040517f08c379a000000000000000000000000000000000000000000000000000000000815260040161078d906136ca565b60405180910390fd5b8060200160208101906107a9919061354b565b600460006101000a81548173ffffffffffffffffffffffffffffffffffffffff021916908373ffffffffffffffffffffffffffffffffffffffff1602179055508060000160208101906107fc919061354b565b600360006101000a81548173ffffffffffffffffffffffffffffffffffffffff021916908373ffffffffffffffffffffffffffffffffffffffff1602179055506000600560009054906101000a900473ffffffffffffffffffffffffffffffffffffffff1673ffffffffffffffffffffffffffffffffffffffff16637e8f3aed83600001602081019061088f919061354b565b6040518263ffffffff1660e01b81526004016108ab919061315e565b602060405180830381865afa1580156108c8573d6000803e3d6000fd5b505050506040513d601f19601f820116820180604052508101906108ec91906136ff565b90506000635acb354a60e01b8360405160240161090991906137ed565b604051602081830303815290604052907bffffffffffffffffffffffffffffffffffffffffffffffffffffffff19166020820180517bffffffffffffffffffffffffffffffffffffffffffffffffffffffff83818316178352505050509050610972828261242b565b50826020016020810190610986919061354b565b73ffffffffffffffffffffffffffffffffffffffff168360000160208101906109af919061354b565b73ffffffffffffffffffffffffffffffffffffffff167f312a5e5e1079f5dda4e95dbbd0b908b291fd5b992ef22073643ab691572c5b5285604001356040516109f891906131d9565b60405180910390a3505050565b610a0d611e96565b610a1681612458565b600060026000836000015173ffffffffffffffffffffffffffffffffffffffff1673ffffffffffffffffffffffffffffffffffffffff1681526020019081526020016000206000836020015173ffffffffffffffffffffffffffffffffffffffff1673ffffffffffffffffffffffffffffffffffffffff16815260200190815260200160002054905080826040015111610abf57816040015181610aba91906135e9565b610ac2565b60005b60026000846000015173ffffffffffffffffffffffffffffffffffffffff1673ffffffffffffffffffffffffffffffffffffffff1681526020019081526020016000206000846020015173ffffffffffffffffffffffffffffffffffffffff1673ffffffffffffffffffffffffffffffffffffffff16815260200190815260200160002081905550816020015173ffffffffffffffffffffffffffffffffffffffff1663a9059cbb610b72611024565b84604001516040518363ffffffff1660e01b8152600401610b94929190613808565b6020604051808303816000875af1158015610bb3573d6000803e3d6000fd5b505050506040513d601f19601f82011682018060405250810190610bd79190613869565b505050565b600080600560009054906101000a900473ffffffffffffffffffffffffffffffffffffffff1673ffffffffffffffffffffffffffffffffffffffff1663c9b1f1fb846000015185602001516040518363ffffffff1660e01b8152600401610c44929190613896565b602060405180830381865afa158015610c61573d6000803e3d6000fd5b505050506040513d601f19601f82011682018060405250810190610c8591906136ff565b90506000600560009054906101000a900473ffffffffffffffffffffffffffffffffffffffff1673ffffffffffffffffffffffffffffffffffffffff16637e8f3aed85600001516040518263ffffffff1660e01b8152600401610ce8919061315e565b602060405180830381865afa158015610d05573d6000803e3d6000fd5b505050506040513d601f19601f82011682018060405250810190610d2991906136ff565b90508073ffffffffffffffffffffffffffffffffffffffff16630941cb3d836040518263ffffffff1660e01b8152600401610d64919061315e565b602060405180830381865afa158015610d81573d6000803e3d6000fd5b505050506040513d601f19601f82011682018060405250810190610da5919061358d565b92505050919050565b610db6611e96565b610dc06000612625565b565b600080600560009054906101000a900473ffffffffffffffffffffffffffffffffffffffff1673ffffffffffffffffffffffffffffffffffffffff1663271dc945846000015185602001516040518363ffffffff1660e01b8152600401610e2a929190613896565b602060405180830381865afa158015610e47573d6000803e3d6000fd5b505050506040513d601f19601f82011682018060405250810190610e6b91906136ff565b90506000600560009054906101000a900473ffffffffffffffffffffffffffffffffffffffff1673ffffffffffffffffffffffffffffffffffffffff16637e8f3aed85600001516040518263ffffffff1660e01b8152600401610ece919061315e565b602060405180830381865afa158015610eeb573d6000803e3d6000fd5b505050506040513d601f19601f82011682018060405250810190610f0f91906136ff565b90508073ffffffffffffffffffffffffffffffffffffffff1663155a7205836040518263ffffffff1660e01b8152600401610f4a919061315e565b602060405180830381865afa158015610f67573d6000803e3d6000fd5b505050506040513d601f19601f82011682018060405250810190610f8b919061358d565b92505050919050565b60008151905060005b8181101561101f57610fc8838281518110610fbb57610fba6138bf565b5b6020026020010151611840565b838281518110610fdb57610fda6138bf565b5b6020026020010151604001818152505061100e838281518110611001576110006138bf565b5b6020026020010151612458565b80611018906138ee565b9050610f9d565b505050565b60008060009054906101000a900473ffffffffffffffffffffffffffffffffffffffff16905090565b611057828261137d565b6000600460009054906101000a900473ffffffffffffffffffffffffffffffffffffffff1673ffffffffffffffffffffffffffffffffffffffff166370a08231306040518263ffffffff1660e01b81526004016110b4919061315e565b602060405180830381865afa1580156110d1573d6000803e3d6000fd5b505050506040513d601f19601f820116820180604052508101906110f5919061358d565b90506111f483838080601f016020809104026020016040519081016040528093929190818152602001838380828437600081840152601f19601f82011690508083019250505050505050600660009054906101000a900473ffffffffffffffffffffffffffffffffffffffff1673ffffffffffffffffffffffffffffffffffffffff1663245a7bfc6040518163ffffffff1660e01b8152600401602060405180830381865afa1580156111ac573d6000803e3d6000fd5b505050506040513d601f19601f820116820180604052508101906111d091906136ff565b73ffffffffffffffffffffffffffffffffffffffff166126e990919063ffffffff16565b506000600460009054906101000a900473ffffffffffffffffffffffffffffffffffffffff1673ffffffffffffffffffffffffffffffffffffffff166370a08231306040518263ffffffff1660e01b8152600401611252919061315e565b602060405180830381865afa15801561126f573d6000803e3d6000fd5b505050506040513d601f19601f82011682018060405250810190611293919061358d565b9050600082826112a391906135e9565b9050600081116112b257600080fd5b60006112bd82612733565b905060006040518060800160405280600360009054906101000a900473ffffffffffffffffffffffffffffffffffffffff1673ffffffffffffffffffffffffffffffffffffffff168152602001600460009054906101000a900473ffffffffffffffffffffffffffffffffffffffff1673ffffffffffffffffffffffffffffffffffffffff168152602001838152602001600073ffffffffffffffffffffffffffffffffffffffff168152509050611374816120da565b50505050505050565b60008282600490809261139293929190613941565b81019061139f9190613b55565b509150503073ffffffffffffffffffffffffffffffffffffffff16816060015173ffffffffffffffffffffffffffffffffffffffff1614611415576040517f08c379a000000000000000000000000000000000000000000000000000000000815260040161140c90613c2c565b60405180910390fd5b600460009054906101000a900473ffffffffffffffffffffffffffffffffffffffff1673ffffffffffffffffffffffffffffffffffffffff16816020015173ffffffffffffffffffffffffffffffffffffffff16146114a9576040517f08c379a00000000000000000000000000000000000000000000000000000000081526004016114a090613c98565b60405180910390fd5b505050565b600082829050905060005b8181101561181c5760008484838181106114d6576114d56138bf565b5b90506020020160208101906114eb919061354b565b73ffffffffffffffffffffffffffffffffffffffff166370a08231306040518263ffffffff1660e01b8152600401611523919061315e565b602060405180830381865afa158015611540573d6000803e3d6000fd5b505050506040513d601f19601f82011682018060405250810190611564919061358d565b9050600060405180604001604052803073ffffffffffffffffffffffffffffffffffffffff16815260200163985f61a160e01b7bffffffffffffffffffffffffffffffffffffffffffffffffffffffff1916815250905060006040518060e001604052808888878181106115db576115da6138bf565b5b90506020020160208101906115f0919061354b565b73ffffffffffffffffffffffffffffffffffffffff168152602001600460009054906101000a900473ffffffffffffffffffffffffffffffffffffffff1673ffffffffffffffffffffffffffffffffffffffff1681526020018481526020013073ffffffffffffffffffffffffffffffffffffffff168152602001600581526020013073ffffffffffffffffffffffffffffffffffffffff168152602001600115158152509050611779600660009054906101000a900473ffffffffffffffffffffffffffffffffffffffff1673ffffffffffffffffffffffffffffffffffffffff1663245a7bfc6040518163ffffffff1660e01b8152600401602060405180830381865afa158015611707573d6000803e3d6000fd5b505050506040513d601f19601f8201168201806040525081019061172b91906136ff565b8489898881811061173f5761173e6138bf565b5b9050602002016020810190611754919061354b565b73ffffffffffffffffffffffffffffffffffffffff166129019092919063ffffffff16565b600660009054906101000a900473ffffffffffffffffffffffffffffffffffffffff1673ffffffffffffffffffffffffffffffffffffffff16639547c9d783836040518363ffffffff1660e01b81526004016117d6929190613dbf565b600060405180830381600087803b1580156117f057600080fd5b505af1158015611804573d6000803e3d6000fd5b5050505050505080611815906138ee565b90506114b9565b50505050565b61182a611e96565b81816001919061183b929190612e1f565b505050565b60008061184c83610dc2565b9050600060026000856000015173ffffffffffffffffffffffffffffffffffffffff1673ffffffffffffffffffffffffffffffffffffffff1681526020019081526020016000206000856020015173ffffffffffffffffffffffffffffffffffffffff1673ffffffffffffffffffffffffffffffffffffffff168152602001908152602001600020549050808210156118e65760006118f3565b80826118f291906135e9565b5b92505050919050565b611904611e96565b60008373ffffffffffffffffffffffffffffffffffffffff166370a08231306040518263ffffffff1660e01b815260040161193f919061315e565b602060405180830381865afa15801561195c573d6000803e3d6000fd5b505050506040513d601f19601f82011682018060405250810190611980919061358d565b90508373ffffffffffffffffffffffffffffffffffffffff1663a9059cbb838386116119ac57856119ae565b835b6040518363ffffffff1660e01b81526004016119cb929190613808565b6020604051808303816000875af11580156119ea573d6000803e3d6000fd5b505050506040513d601f19601f82011682018060405250810190611a0e9190613869565b5050505050565b6000600460009054906101000a900473ffffffffffffffffffffffffffffffffffffffff16905090565b611a47611e96565b6000816020016020810190611a5c919061354b565b73ffffffffffffffffffffffffffffffffffffffff166370a08231306040518263ffffffff1660e01b8152600401611a94919061315e565b602060405180830381865afa158015611ab1573d6000803e3d6000fd5b505050506040513d601f19601f82011682018060405250810190611ad5919061358d565b90508160400135811015611b8d57816020016020810190611af6919061354b565b73ffffffffffffffffffffffffffffffffffffffff166323b872dd611b19612049565b30848660400135611b2a91906135e9565b6040518463ffffffff1660e01b8152600401611b4893929190613de9565b6020604051808303816000875af1158015611b67573d6000803e3d6000fd5b505050506040513d601f19601f82011682018060405250810190611b8b9190613869565b505b816040013560026000846000016020810190611ba9919061354b565b73ffffffffffffffffffffffffffffffffffffffff1673ffffffffffffffffffffffffffffffffffffffff1681526020019081526020016000206000846020016020810190611bf8919061354b565b73ffffffffffffffffffffffffffffffffffffffff1673ffffffffffffffffffffffffffffffffffffffff1681526020019081526020016000206000828254611c419190613e20565b925050819055506000600560009054906101000a900473ffffffffffffffffffffffffffffffffffffffff1673ffffffffffffffffffffffffffffffffffffffff16637e8f3aed846000016020810190611c9b919061354b565b6040518263ffffffff1660e01b8152600401611cb7919061315e565b602060405180830381865afa158015611cd4573d6000803e3d6000fd5b505050506040513d601f19601f82011682018060405250810190611cf891906136ff565b9050600063ef33f95d60e01b84604051602401611d1591906137ed565b604051602081830303815290604052907bffffffffffffffffffffffffffffffffffffffffffffffffffffffff19166020820180517bffffffffffffffffffffffffffffffffffffffffffffffffffffffff83818316178352505050509050611d7e828261242b565b50836020016020810190611d92919061354b565b73ffffffffffffffffffffffffffffffffffffffff16846000016020810190611dbb919061354b565b73ffffffffffffffffffffffffffffffffffffffff167fd1cf3d156d5f8f0d50f6c122ed609cec09d35c9b9fb3fff6ea0959134dae424e8660400135604051611e0491906131d9565b60405180910390a350505050565b611e1a611e96565b600073ffffffffffffffffffffffffffffffffffffffff168173ffffffffffffffffffffffffffffffffffffffff161415611e8a576040517f08c379a0000000000000000000000000000000000000000000000000000000008152600401611e8190613ee8565b60405180910390fd5b611e9381612625565b50565b611e9e612049565b73ffffffffffffffffffffffffffffffffffffffff16611ebc611024565b73ffffffffffffffffffffffffffffffffffffffff1614611f12576040517f08c379a0000000000000000000000000000000000000000000000000000000008152600401611f0990613f54565b60405180910390fd5b565b611fac8282604051602401611f2a929190613f74565b6040516020818303038152906040527f9710a9d0000000000000000000000000000000000000000000000000000000007bffffffffffffffffffffffffffffffffffffffffffffffffffffffff19166020820180517bffffffffffffffffffffffffffffffffffffffffffffffffffffffff8381831617835250505050612a13565b5050565b61204681604051602401611fc4919061315e565b6040516020818303038152906040527f2c2ecbc2000000000000000000000000000000000000000000000000000000007bffffffffffffffffffffffffffffffffffffffffffffffffffffffff19166020820180517bffffffffffffffffffffffffffffffffffffffffffffffffffffffff8381831617835250505050612a13565b50565b600033905090565b6120d4846323b872dd60e01b85858560405160240161207293929190613de9565b604051602081830303815290604052907bffffffffffffffffffffffffffffffffffffffffffffffffffffffff19166020820180517bffffffffffffffffffffffffffffffffffffffffffffffffffffffff8381831617835250505050612a3c565b50505050565b600073ffffffffffffffffffffffffffffffffffffffff16600360009054906101000a900473ffffffffffffffffffffffffffffffffffffffff1673ffffffffffffffffffffffffffffffffffffffff1614156121745761216f6040518060400160405280600c81526020017f6e6f206465627420706f6f6c0000000000000000000000000000000000000000815250612b03565b612428565b6000600560009054906101000a900473ffffffffffffffffffffffffffffffffffffffff1673ffffffffffffffffffffffffffffffffffffffff16637e8f3aed83600001516040518263ffffffff1660e01b81526004016121d5919061315e565b602060405180830381865afa1580156121f2573d6000803e3d6000fd5b505050506040513d601f19601f8201168201806040525081019061221691906136ff565b905060006305e4833a60e01b836040516024016122339190613ff9565b604051602081830303815290604052907bffffffffffffffffffffffffffffffffffffffffffffffffffffffff19166020820180517bffffffffffffffffffffffffffffffffffffffffffffffffffffffff8381831617835250505050905061229c828261242b565b5060006122a884610bdc565b1415612371576122ec6040518060400160405280600c81526020017f657874696e677569736865640000000000000000000000000000000000000000815250612b03565b6000600360006101000a81548173ffffffffffffffffffffffffffffffffffffffff021916908373ffffffffffffffffffffffffffffffffffffffff1602179055506000600460006101000a81548173ffffffffffffffffffffffffffffffffffffffff021916908373ffffffffffffffffffffffffffffffffffffffff1602179055505b6123b46040518060400160405280600a81526020017f726570617965643d2573000000000000000000000000000000000000000000008152508460400151611f14565b826020015173ffffffffffffffffffffffffffffffffffffffff16836000015173ffffffffffffffffffffffffffffffffffffffff167f05f2eeda0e08e4b437f487c8d7d29b14537d15e3488170dc3de5dbdf8dac4684856040015160405161241d91906131d9565b60405180910390a350505b50565b606061245083836040518060600160405280602781526020016142f560279139612b9c565b905092915050565b600061246382610dc2565b905081604001518111612476578061247c565b81604001515b8260400181815250506000600560009054906101000a900473ffffffffffffffffffffffffffffffffffffffff1673ffffffffffffffffffffffffffffffffffffffff16637e8f3aed84600001516040518263ffffffff1660e01b81526004016124e6919061315e565b602060405180830381865afa158015612503573d6000803e3d6000fd5b505050506040513d601f19601f8201168201806040525081019061252791906136ff565b90506000635b8a60c460e01b846040516024016125449190613ff9565b604051602081830303815290604052907bffffffffffffffffffffffffffffffffffffffffffffffffffffffff19166020820180517bffffffffffffffffffffffffffffffffffffffffffffffffffffffff838183161783525050505090506125ad828261242b565b50836020015173ffffffffffffffffffffffffffffffffffffffff16846000015173ffffffffffffffffffffffffffffffffffffffff167f9b1bfa7fa9ee420a16e124f794c35ac9f90472acc99140eb2f6447c714cad8eb866040015160405161261791906131d9565b60405180910390a350505050565b60008060009054906101000a900473ffffffffffffffffffffffffffffffffffffffff169050816000806101000a81548173ffffffffffffffffffffffffffffffffffffffff021916908373ffffffffffffffffffffffffffffffffffffffff1602179055508173ffffffffffffffffffffffffffffffffffffffff168173ffffffffffffffffffffffffffffffffffffffff167f8be0079c531659141344cd1fd0a4f28419497f9722a3daafe3b4186f6b6457e060405160405180910390a35050565b606061272b83836040518060400160405280601e81526020017f416464726573733a206c6f772d6c6576656c2063616c6c206661696c65640000815250612c69565b905092915050565b60008060648311612745576000612753565b6064836127529190614043565b5b9050600060198411612766576000612774565b6019846127739190614043565b5b9050600460009054906101000a900473ffffffffffffffffffffffffffffffffffffffff1673ffffffffffffffffffffffffffffffffffffffff1663a9059cbb600760009054906101000a900473ffffffffffffffffffffffffffffffffffffffff16846040518363ffffffff1660e01b81526004016127f5929190613808565b6020604051808303816000875af1158015612814573d6000803e3d6000fd5b505050506040513d601f19601f820116820180604052508101906128389190613869565b50600460009054906101000a900473ffffffffffffffffffffffffffffffffffffffff1673ffffffffffffffffffffffffffffffffffffffff1663a9059cbb61287f612049565b836040518363ffffffff1660e01b815260040161289d929190613808565b6020604051808303816000875af11580156128bc573d6000803e3d6000fd5b505050506040513d601f19601f820116820180604052508101906128e09190613869565b508082856128ee91906135e9565b6128f891906135e9565b92505050919050565b6000818473ffffffffffffffffffffffffffffffffffffffff1663dd62ed3e30866040518363ffffffff1660e01b815260040161293f929190613896565b602060405180830381865afa15801561295c573d6000803e3d6000fd5b505050506040513d601f19601f82011682018060405250810190612980919061358d565b61298a9190613e20565b9050612a0d8463095ea7b360e01b85846040516024016129ab929190613808565b604051602081830303815290604052907bffffffffffffffffffffffffffffffffffffffffffffffffffffffff19166020820180517bffffffffffffffffffffffffffffffffffffffffffffffffffffffff8381831617835250505050612a3c565b50505050565b60008151905060006a636f6e736f6c652e6c6f679050602083016000808483855afa5050505050565b6000612a9e826040518060400160405280602081526020017f5361666545524332303a206c6f772d6c6576656c2063616c6c206661696c65648152508573ffffffffffffffffffffffffffffffffffffffff16612c699092919063ffffffff16565b9050600081511115612afe5780806020019051810190612abe9190613869565b612afd576040517f08c379a0000000000000000000000000000000000000000000000000000000008152600401612af4906140e6565b60405180910390fd5b5b505050565b612b9981604051602401612b17919061312d565b6040516020818303038152906040527f41304fac000000000000000000000000000000000000000000000000000000007bffffffffffffffffffffffffffffffffffffffffffffffffffffffff19166020820180517bffffffffffffffffffffffffffffffffffffffffffffffffffffffff8381831617835250505050612a13565b50565b6060612ba784612c81565b612be6576040517f08c379a0000000000000000000000000000000000000000000000000000000008152600401612bdd90614178565b60405180910390fd5b6000808573ffffffffffffffffffffffffffffffffffffffff1685604051612c0e91906141df565b600060405180830381855af49150503d8060008114612c49576040519150601f19603f3d011682016040523d82523d6000602084013e612c4e565b606091505b5091509150612c5e828286612ca4565b925050509392505050565b6060612c788484600085612d0b565b90509392505050565b6000808273ffffffffffffffffffffffffffffffffffffffff163b119050919050565b60608315612cb457829050612d04565b600083511115612cc75782518084602001fd5b816040517f08c379a0000000000000000000000000000000000000000000000000000000008152600401612cfb919061312d565b60405180910390fd5b9392505050565b606082471015612d50576040517f08c379a0000000000000000000000000000000000000000000000000000000008152600401612d4790614268565b60405180910390fd5b612d5985612c81565b612d98576040517f08c379a0000000000000000000000000000000000000000000000000000000008152600401612d8f906142d4565b60405180910390fd5b6000808673ffffffffffffffffffffffffffffffffffffffff168587604051612dc191906141df565b60006040518083038185875af1925050503d8060008114612dfe576040519150601f19603f3d011682016040523d82523d6000602084013e612e03565b606091505b5091509150612e13828286612ca4565b92505050949350505050565b828054612e2b9061364c565b90600052602060002090601f016020900481019282612e4d5760008555612e94565b82601f10612e6657803560ff1916838001178555612e94565b82800160010185558215612e94579182015b82811115612e93578235825591602001919060010190612e78565b5b509050612ea19190612ea5565b5090565b5b80821115612ebe576000816000905550600101612ea6565b5090565b6000604051905090565b600080fd5b600080fd5b600080fd5b6000601f19601f8301169050919050565b7f4e487b7100000000000000000000000000000000000000000000000000000000600052604160045260246000fd5b612f2482612edb565b810181811067ffffffffffffffff82111715612f4357612f42612eec565b5b80604052505050565b6000612f56612ec2565b9050612f628282612f1b565b919050565b600080fd5b600073ffffffffffffffffffffffffffffffffffffffff82169050919050565b6000612f9782612f6c565b9050919050565b612fa781612f8c565b8114612fb257600080fd5b50565b600081359050612fc481612f9e565b92915050565b6000819050919050565b612fdd81612fca565b8114612fe857600080fd5b50565b600081359050612ffa81612fd4565b92915050565b60006080828403121561301657613015612ed6565b5b6130206080612f4c565b9050600061303084828501612fb5565b600083015250602061304484828501612fb5565b602083015250604061305884828501612feb565b604083015250606061306c84828501612fb5565b60608301525092915050565b60006080828403121561308e5761308d612ecc565b5b600061309c84828501613000565b91505092915050565b600081519050919050565b600082825260208201905092915050565b60005b838110156130df5780820151818401526020810190506130c4565b838111156130ee576000848401525b50505050565b60006130ff826130a5565b61310981856130b0565b93506131198185602086016130c1565b61312281612edb565b840191505092915050565b6000602082019050818103600083015261314781846130f4565b905092915050565b61315881612f8c565b82525050565b6000602082019050613173600083018461314f565b92915050565b600080fd5b60006080828403121561319457613193613179565b5b81905092915050565b6000608082840312156131b3576131b2612ecc565b5b60006131c18482850161317e565b91505092915050565b6131d381612fca565b82525050565b60006020820190506131ee60008301846131ca565b92915050565b600080fd5b600067ffffffffffffffff82111561321457613213612eec565b5b602082029050602081019050919050565b600080fd5b600061323d613238846131f9565b612f4c565b905080838252602082019050608084028301858111156132605761325f613225565b5b835b8181101561328957806132758882613000565b845260208401935050608081019050613262565b5050509392505050565b600082601f8301126132a8576132a76131f4565b5b81356132b884826020860161322a565b91505092915050565b6000602082840312156132d7576132d6612ecc565b5b600082013567ffffffffffffffff8111156132f5576132f4612ed1565b5b61330184828501613293565b91505092915050565b600080fd5b60008083601f840112613325576133246131f4565b5b8235905067ffffffffffffffff8111156133425761334161330a565b5b60208301915083600182028301111561335e5761335d613225565b5b9250929050565b6000806020838503121561337c5761337b612ecc565b5b600083013567ffffffffffffffff81111561339a57613399612ed1565b5b6133a68582860161330f565b92509250509250929050565b60008083601f8401126133c8576133c76131f4565b5b8235905067ffffffffffffffff8111156133e5576133e461330a565b5b60208301915083602082028301111561340157613400613225565b5b9250929050565b6000806020838503121561341f5761341e612ecc565b5b600083013567ffffffffffffffff81111561343d5761343c612ed1565b5b613449858286016133b2565b92509250509250929050565b60008083601f84011261346b5761346a6131f4565b5b8235905067ffffffffffffffff8111156134885761348761330a565b5b6020830191508360018202830111156134a4576134a3613225565b5b9250929050565b600080602083850312156134c2576134c1612ecc565b5b600083013567ffffffffffffffff8111156134e0576134df612ed1565b5b6134ec85828601613455565b92509250509250929050565b60008060006060848603121561351157613510612ecc565b5b600061351f86828701612fb5565b935050602061353086828701612feb565b925050604061354186828701612fb5565b9150509250925092565b60006020828403121561356157613560612ecc565b5b600061356f84828501612fb5565b91505092915050565b60008151905061358781612fd4565b92915050565b6000602082840312156135a3576135a2612ecc565b5b60006135b184828501613578565b91505092915050565b7f4e487b7100000000000000000000000000000000000000000000000000000000600052601160045260246000fd5b60006135f482612fca565b91506135ff83612fca565b925082821015613612576136116135ba565b5b828203905092915050565b7f4e487b7100000000000000000000000000000000000000000000000000000000600052602260045260246000fd5b6000600282049050600182168061366457607f821691505b602082108114156136785761367761361d565b5b50919050565b7f5661756c743a204f6e65206c6f616e20617420612074696d6500000000000000600082015250565b60006136b46019836130b0565b91506136bf8261367e565b602082019050919050565b600060208201905081810360008301526136e3816136a7565b9050919050565b6000815190506136f981612f9e565b92915050565b60006020828403121561371557613714612ecc565b5b6000613723848285016136ea565b91505092915050565b600061373b6020840184612fb5565b905092915050565b61374c81612f8c565b82525050565b60006137616020840184612feb565b905092915050565b61377281612fca565b82525050565b60808201613789600083018361372c565b6137966000850182613743565b506137a4602083018361372c565b6137b16020850182613743565b506137bf6040830183613752565b6137cc6040850182613769565b506137da606083018361372c565b6137e76060850182613743565b50505050565b60006080820190506138026000830184613778565b92915050565b600060408201905061381d600083018561314f565b61382a60208301846131ca565b9392505050565b60008115159050919050565b61384681613831565b811461385157600080fd5b50565b6000815190506138638161383d565b92915050565b60006020828403121561387f5761387e612ecc565b5b600061388d84828501613854565b91505092915050565b60006040820190506138ab600083018561314f565b6138b8602083018461314f565b9392505050565b7f4e487b7100000000000000000000000000000000000000000000000000000000600052603260045260246000fd5b60006138f982612fca565b91507fffffffffffffffffffffffffffffffffffffffffffffffffffffffffffffffff82141561392c5761392b6135ba565b5b600182019050919050565b600080fd5b600080fd5b6000808585111561395557613954613937565b5b838611156139665761396561393c565b5b6001850283019150848603905094509492505050565b600061398782612f6c565b9050919050565b6139978161397c565b81146139a257600080fd5b50565b6000813590506139b48161398e565b92915050565b600080fd5b600067ffffffffffffffff8211156139da576139d9612eec565b5b6139e382612edb565b9050602081019050919050565b82818337600083830152505050565b6000613a12613a0d846139bf565b612f4c565b905082815260208101848484011115613a2e57613a2d6139ba565b5b613a398482856139f0565b509392505050565b600082601f830112613a5657613a556131f4565b5b8135613a668482602086016139ff565b91505092915050565b60006101008284031215613a8657613a85612ed6565b5b613a91610100612f4c565b90506000613aa184828501612fb5565b6000830152506020613ab584828501612fb5565b6020830152506040613ac9848285016139a5565b6040830152506060613add848285016139a5565b6060830152506080613af184828501612feb565b60808301525060a0613b0584828501612feb565b60a08301525060c0613b1984828501612feb565b60c08301525060e082013567ffffffffffffffff811115613b3d57613b3c612f67565b5b613b4984828501613a41565b60e08301525092915050565b600080600060608486031215613b6e57613b6d612ecc565b5b6000613b7c868287016139a5565b935050602084013567ffffffffffffffff811115613b9d57613b9c612ed1565b5b613ba986828701613a6f565b925050604084013567ffffffffffffffff811115613bca57613bc9612ed1565b5b613bd686828701613a41565b9150509250925092565b7f5661756c743a2077726f6e672073776170206473745265636569766572000000600082015250565b6000613c16601d836130b0565b9150613c2182613be0565b602082019050919050565b60006020820190508181036000830152613c4581613c09565b9050919050565b7f5661756c743a2077726f6e67207377617020647374546f6b656e000000000000600082015250565b6000613c82601a836130b0565b9150613c8d82613c4c565b602082019050919050565b60006020820190508181036000830152613cb181613c75565b9050919050565b60007fffffffff0000000000000000000000000000000000000000000000000000000082169050919050565b613ced81613cb8565b82525050565b604082016000820151613d096000850182613743565b506020820151613d1c6020850182613ce4565b50505050565b613d2b81613831565b82525050565b60e082016000820151613d476000850182613743565b506020820151613d5a6020850182613743565b506040820151613d6d6040850182613769565b506060820151613d806060850182613743565b506080820151613d936080850182613769565b5060a0820151613da660a0850182613743565b5060c0820151613db960c0850182613d22565b50505050565b600061012082019050613dd56000830185613cf3565b613de26040830184613d31565b9392505050565b6000606082019050613dfe600083018661314f565b613e0b602083018561314f565b613e1860408301846131ca565b949350505050565b6000613e2b82612fca565b9150613e3683612fca565b9250827fffffffffffffffffffffffffffffffffffffffffffffffffffffffffffffffff03821115613e6b57613e6a6135ba565b5b828201905092915050565b7f4f776e61626c653a206e6577206f776e657220697320746865207a65726f206160008201527f6464726573730000000000000000000000000000000000000000000000000000602082015250565b6000613ed26026836130b0565b9150613edd82613e76565b604082019050919050565b60006020820190508181036000830152613f0181613ec5565b9050919050565b7f4f776e61626c653a2063616c6c6572206973206e6f7420746865206f776e6572600082015250565b6000613f3e6020836130b0565b9150613f4982613f08565b602082019050919050565b60006020820190508181036000830152613f6d81613f31565b9050919050565b60006040820190508181036000830152613f8e81856130f4565b9050613f9d60208301846131ca565b9392505050565b608082016000820151613fba6000850182613743565b506020820151613fcd6020850182613743565b506040820151613fe06040850182613769565b506060820151613ff36060850182613743565b50505050565b600060808201905061400e6000830184613fa4565b92915050565b7f4e487b7100000000000000000000000000000000000000000000000000000000600052601260045260246000fd5b600061404e82612fca565b915061405983612fca565b92508261406957614068614014565b5b828204905092915050565b7f5361666545524332303a204552433230206f7065726174696f6e20646964206e60008201527f6f74207375636365656400000000000000000000000000000000000000000000602082015250565b60006140d0602a836130b0565b91506140db82614074565b604082019050919050565b600060208201905081810360008301526140ff816140c3565b9050919050565b7f416464726573733a2064656c65676174652063616c6c20746f206e6f6e2d636f60008201527f6e74726163740000000000000000000000000000000000000000000000000000602082015250565b60006141626026836130b0565b915061416d82614106565b604082019050919050565b6000602082019050818103600083015261419181614155565b9050919050565b600081519050919050565b600081905092915050565b60006141b982614198565b6141c381856141a3565b93506141d38185602086016130c1565b80840191505092915050565b60006141eb82846141ae565b915081905092915050565b7f416464726573733a20696e73756666696369656e742062616c616e636520666f60008201527f722063616c6c0000000000000000000000000000000000000000000000000000602082015250565b60006142526026836130b0565b915061425d826141f6565b604082019050919050565b6000602082019050818103600083015261428181614245565b9050919050565b7f416464726573733a2063616c6c20746f206e6f6e2d636f6e7472616374000000600082015250565b60006142be601d836130b0565b91506142c982614288565b602082019050919050565b600060208201905081810360008301526142ed816142b1565b905091905056fe416464726573733a206c6f772d6c6576656c2064656c65676174652063616c6c206661696c6564a26469706673582212200d9140d75ff7980ab4a03f3f54212519c70be4a13fb4c1c36327e8f8199cd71d64736f6c634300080c0033a26469706673582212203575303ce184d0a7c8f94c7d09c2435a348bf61cccf429e82211e80472b6b12864736f6c634300080c0033",
  "linkReferences": {},
  "deployedLinkReferences": {}
}