{
  "_format": "hh-sol-artifact-1",
  "contractName": "OneInchAdapter",
  "sourceName": "contracts/swaps/OneInchAdapter.sol",
  "abi": [
    {
      "inputs": [
        {
          "internalType": "address",
          "name": "aggregator_",
          "type": "address"
        }
      ],
      "stateMutability": "nonpayable",
      "type": "constructor"
    },
    {
      "anonymous": false,
      "inputs": [
        {
          "indexed": false,
          "internalType": "string",
          "name": "endpoint",
          "type": "string"
        },
        {
          "indexed": false,
          "internalType": "string",
          "name": "path",
          "type": "string"
        },
        {
          "indexed": false,
          "internalType": "address",
          "name": "callbackAddress",
          "type": "address"
        },
        {
          "indexed": false,
          "internalType": "bytes4",
          "name": "callbackFuncSelector",
          "type": "bytes4"
        }
      ],
      "name": "APIRequest",
      "type": "event"
    },
    {
      "inputs": [],
      "name": "aggregator",
      "outputs": [
        {
          "internalType": "address",
          "name": "",
          "type": "address"
        }
      ],
      "stateMutability": "view",
      "type": "function"
    },
    {
      "inputs": [
        {
          "components": [
            {
              "internalType": "address",
              "name": "callee",
              "type": "address"
            },
            {
              "internalType": "bytes4",
              "name": "functionSelector",
              "type": "bytes4"
            }
          ],
          "internalType": "struct ISwapDataRequester.CallbackParams",
          "name": "callbackParams",
          "type": "tuple"
        },
        {
          "components": [
            {
              "internalType": "address",
              "name": "fromTokenAddress",
              "type": "address"
            },
            {
              "internalType": "address",
              "name": "toTokenAddress",
              "type": "address"
            },
            {
              "internalType": "uint256",
              "name": "amount",
              "type": "uint256"
            },
            {
              "internalType": "address",
              "name": "fromAddress",
              "type": "address"
            },
            {
              "internalType": "uint256",
              "name": "slippage",
              "type": "uint256"
            },
            {
              "internalType": "address",
              "name": "destReceiver",
              "type": "address"
            },
            {
              "internalType": "bool",
              "name": "allowPartialFill",
              "type": "bool"
            }
          ],
          "internalType": "struct ISwapDataRequester.SwapDataParams",
          "name": "swapParams",
          "type": "tuple"
        }
      ],
      "name": "request",
      "outputs": [],
      "stateMutability": "nonpayable",
      "type": "function"
    }
  ],
  "bytecode": "0x608060405234801561001057600080fd5b50604051610f38380380610f38833981810160405281019061003291906100db565b806000806101000a81548173ffffffffffffffffffffffffffffffffffffffff021916908373ffffffffffffffffffffffffffffffffffffffff16021790555050610108565b600080fd5b600073ffffffffffffffffffffffffffffffffffffffff82169050919050565b60006100a88261007d565b9050919050565b6100b88161009d565b81146100c357600080fd5b50565b6000815190506100d5816100af565b92915050565b6000602082840312156100f1576100f0610078565b5b60006100ff848285016100c6565b91505092915050565b610e21806101176000396000f3fe608060405234801561001057600080fd5b50600436106100365760003560e01c8063245a7bfc1461003b5780639547c9d714610059575b600080fd5b610043610075565b604051610050919061061f565b60405180910390f35b610073600480360381019061006e9190610682565b61009e565b005b60008060009054906101000a900473ffffffffffffffffffffffffffffffffffffffff16905090565b7fe6d74879718c54e58e4b956ba89bd729b8d8486349947f62495cba7dabd69a326100c882610109565b8360000160208101906100db91906106ef565b8460200160208101906100ee9190610774565b6040516100fd93929190610895565b60405180910390a15050565b606061013c82600001602081019061012191906106ef565b73ffffffffffffffffffffffffffffffffffffffff16610214565b61016d83602001602081019061015291906106ef565b73ffffffffffffffffffffffffffffffffffffffff16610214565b61017a8460400135610241565b6101878560800135610241565b6101b886606001602081019061019d91906106ef565b73ffffffffffffffffffffffffffffffffffffffff16610214565b6101e98760a00160208101906101ce91906106ef565b73ffffffffffffffffffffffffffffffffffffffff16610214565b6040516020016101fe96959493929190610a52565b6040516020818303038152906040529050919050565b606061023a8273ffffffffffffffffffffffffffffffffffffffff16601460ff166103a2565b9050919050565b60606000821415610289576040518060400160405280600181526020017f3000000000000000000000000000000000000000000000000000000000000000815250905061039d565b600082905060005b600082146102bb5780806102a490610b39565b915050600a826102b49190610bb1565b9150610291565b60008167ffffffffffffffff8111156102d7576102d6610be2565b5b6040519080825280601f01601f1916602001820160405280156103095781602001600182028036833780820191505090505b5090505b60008514610396576001826103229190610c11565b9150600a856103319190610c45565b603061033d9190610c76565b60f81b81838151811061035357610352610ccc565b5b60200101907effffffffffffffffffffffffffffffffffffffffffffffffffffffffffffff1916908160001a905350600a8561038f9190610bb1565b945061030d565b8093505050505b919050565b6060600060028360026103b59190610cfb565b6103bf9190610c76565b67ffffffffffffffff8111156103d8576103d7610be2565b5b6040519080825280601f01601f19166020018201604052801561040a5781602001600182028036833780820191505090505b5090507f30000000000000000000000000000000000000000000000000000000000000008160008151811061044257610441610ccc565b5b60200101907effffffffffffffffffffffffffffffffffffffffffffffffffffffffffffff1916908160001a9053507f7800000000000000000000000000000000000000000000000000000000000000816001815181106104a6576104a5610ccc565b5b60200101907effffffffffffffffffffffffffffffffffffffffffffffffffffffffffffff1916908160001a905350600060018460026104e69190610cfb565b6104f09190610c76565b90505b6001811115610590577f3031323334353637383961626364656600000000000000000000000000000000600f86166010811061053257610531610ccc565b5b1a60f81b82828151811061054957610548610ccc565b5b60200101907effffffffffffffffffffffffffffffffffffffffffffffffffffffffffffff1916908160001a905350600485901c94508061058990610d55565b90506104f3565b50600084146105d4576040517f08c379a00000000000000000000000000000000000000000000000000000000081526004016105cb90610dcb565b60405180910390fd5b8091505092915050565b600073ffffffffffffffffffffffffffffffffffffffff82169050919050565b6000610609826105de565b9050919050565b610619816105fe565b82525050565b60006020820190506106346000830184610610565b92915050565b600080fd5b600080fd5b60006040828403121561065a5761065961063f565b5b81905092915050565b600060e082840312156106795761067861063f565b5b81905092915050565b600080610120838503121561069a5761069961063a565b5b60006106a885828601610644565b92505060406106b985828601610663565b9150509250929050565b6106cc816105fe565b81146106d757600080fd5b50565b6000813590506106e9816106c3565b92915050565b6000602082840312156107055761070461063a565b5b6000610713848285016106da565b91505092915050565b60007fffffffff0000000000000000000000000000000000000000000000000000000082169050919050565b6107518161071c565b811461075c57600080fd5b50565b60008135905061076e81610748565b92915050565b60006020828403121561078a5761078961063a565b5b60006107988482850161075f565b91505092915050565b600081519050919050565b600082825260208201905092915050565b60005b838110156107db5780820151818401526020810190506107c0565b838111156107ea576000848401525b50505050565b6000601f19601f8301169050919050565b600061080c826107a1565b61081681856107ac565b93506108268185602086016107bd565b61082f816107f0565b840191505092915050565b7f74782c6461746100000000000000000000000000000000000000000000000000600082015250565b60006108706007836107ac565b915061087b8261083a565b602082019050919050565b61088f8161071c565b82525050565b600060808201905081810360008301526108af8186610801565b905081810360208301526108c281610863565b90506108d16040830185610610565b6108de6060830184610886565b949350505050565b600081905092915050565b7f68747470733a2f2f6170692e31696e63682e696f2f76342e302f3133372f737760008201527f61703f66726f6d546f6b656e416464726573733d000000000000000000000000602082015250565b600061094d6034836108e6565b9150610958826108f1565b603482019050919050565b600061096e826107a1565b61097881856108e6565b93506109888185602086016107bd565b80840191505092915050565b7f26746f546f6b656e416464726573733d00000000000000000000000000000000815250565b7f26616d6f756e743d000000000000000000000000000000000000000000000000815250565b7f26736c6970706167653d00000000000000000000000000000000000000000000815250565b7f2666726f6d416464726573733d00000000000000000000000000000000000000815250565b7f266465737452656365697665723d000000000000000000000000000000000000815250565b6000610a5d82610940565b9150610a698289610963565b9150610a7482610994565b601082019150610a848288610963565b9150610a8f826109ba565b600882019150610a9f8287610963565b9150610aaa826109e0565b600a82019150610aba8286610963565b9150610ac582610a06565b600d82019150610ad58285610963565b9150610ae082610a2c565b600e82019150610af08284610963565b9150819050979650505050505050565b7f4e487b7100000000000000000000000000000000000000000000000000000000600052601160045260246000fd5b6000819050919050565b6000610b4482610b2f565b91507fffffffffffffffffffffffffffffffffffffffffffffffffffffffffffffffff821415610b7757610b76610b00565b5b600182019050919050565b7f4e487b7100000000000000000000000000000000000000000000000000000000600052601260045260246000fd5b6000610bbc82610b2f565b9150610bc783610b2f565b925082610bd757610bd6610b82565b5b828204905092915050565b7f4e487b7100000000000000000000000000000000000000000000000000000000600052604160045260246000fd5b6000610c1c82610b2f565b9150610c2783610b2f565b925082821015610c3a57610c39610b00565b5b828203905092915050565b6000610c5082610b2f565b9150610c5b83610b2f565b925082610c6b57610c6a610b82565b5b828206905092915050565b6000610c8182610b2f565b9150610c8c83610b2f565b9250827fffffffffffffffffffffffffffffffffffffffffffffffffffffffffffffffff03821115610cc157610cc0610b00565b5b828201905092915050565b7f4e487b7100000000000000000000000000000000000000000000000000000000600052603260045260246000fd5b6000610d0682610b2f565b9150610d1183610b2f565b9250817fffffffffffffffffffffffffffffffffffffffffffffffffffffffffffffffff0483118215151615610d4a57610d49610b00565b5b828202905092915050565b6000610d6082610b2f565b91506000821415610d7457610d73610b00565b5b600182039050919050565b7f537472696e67733a20686578206c656e67746820696e73756666696369656e74600082015250565b6000610db56020836107ac565b9150610dc082610d7f565b602082019050919050565b60006020820190508181036000830152610de481610da8565b905091905056fea26469706673582212200151be57769c6e333e06076fc936d8df9e2638a9d6b6739eb96ea31c146ca6b164736f6c634300080c0033",
  "linkReferences": {},
  "deployedLinkReferences": {}
}