{
  "_format": "hh-sol-artifact-1",
  "contractName": "BaseVault",
  "sourceName": "contracts/BaseVault.sol",
  "abi": [
    {
      "inputs": [
        {
          "internalType": "address",
          "name": "configProvider_",
          "type": "address"
        },
        {
          "internalType": "string",
          "name": "name_",
          "type": "string"
        }
      ],
      "stateMutability": "nonpayable",
      "type": "constructor"
    },
    {
      "anonymous": false,
      "inputs": [
        {
          "indexed": true,
          "internalType": "address",
          "name": "pool",
          "type": "address"
        },
        {
          "indexed": true,
          "internalType": "address",
          "name": "asset",
          "type": "address"
        },
        {
          "indexed": false,
          "internalType": "uint256",
          "name": "amount",
          "type": "uint256"
        }
      ],
      "name": "Borrow",
      "type": "event"
    },
    {
      "anonymous": false,
      "inputs": [
        {
          "indexed": true,
          "internalType": "address",
          "name": "previousOwner",
          "type": "address"
        },
        {
          "indexed": true,
          "internalType": "address",
          "name": "newOwner",
          "type": "address"
        }
      ],
      "name": "OwnershipTransferred",
      "type": "event"
    },
    {
      "anonymous": false,
      "inputs": [
        {
          "indexed": true,
          "internalType": "address",
          "name": "pool",
          "type": "address"
        },
        {
          "indexed": true,
          "internalType": "address",
          "name": "asset",
          "type": "address"
        },
        {
          "indexed": false,
          "internalType": "uint256",
          "name": "amount",
          "type": "uint256"
        }
      ],
      "name": "Repay",
      "type": "event"
    },
    {
      "anonymous": false,
      "inputs": [
        {
          "indexed": true,
          "internalType": "address",
          "name": "pool",
          "type": "address"
        },
        {
          "indexed": true,
          "internalType": "address",
          "name": "asset",
          "type": "address"
        },
        {
          "indexed": false,
          "internalType": "uint256",
          "name": "amount",
          "type": "uint256"
        }
      ],
      "name": "Supply",
      "type": "event"
    },
    {
      "anonymous": false,
      "inputs": [
        {
          "indexed": true,
          "internalType": "address",
          "name": "pool",
          "type": "address"
        },
        {
          "indexed": true,
          "internalType": "address",
          "name": "asset",
          "type": "address"
        },
        {
          "indexed": false,
          "internalType": "uint256",
          "name": "amount",
          "type": "uint256"
        }
      ],
      "name": "Withdraw",
      "type": "event"
    },
    {
      "inputs": [
        {
          "components": [
            {
              "internalType": "address",
              "name": "pool",
              "type": "address"
            },
            {
              "internalType": "address",
              "name": "asset",
              "type": "address"
            },
            {
              "internalType": "uint256",
              "name": "amount",
              "type": "uint256"
            }
          ],
          "internalType": "struct IPoolDelegate.CallParams",
          "name": "params",
          "type": "tuple"
        }
      ],
      "name": "borrow",
      "outputs": [],
      "stateMutability": "nonpayable",
      "type": "function"
    },
    {
      "inputs": [
        {
          "components": [
            {
              "internalType": "address",
              "name": "pool",
              "type": "address"
            },
            {
              "internalType": "address",
              "name": "asset",
              "type": "address"
            },
            {
              "internalType": "uint256",
              "name": "amount",
              "type": "uint256"
            }
          ],
          "internalType": "struct IPoolDelegate.CallParams",
          "name": "params",
          "type": "tuple"
        }
      ],
      "name": "borrowed",
      "outputs": [
        {
          "internalType": "uint256",
          "name": "",
          "type": "uint256"
        }
      ],
      "stateMutability": "view",
      "type": "function"
    },
    {
      "inputs": [],
      "name": "currentDebtAsset",
      "outputs": [
        {
          "internalType": "address",
          "name": "",
          "type": "address"
        }
      ],
      "stateMutability": "view",
      "type": "function"
    },
    {
      "inputs": [],
      "name": "currentDebtPool",
      "outputs": [
        {
          "internalType": "address",
          "name": "",
          "type": "address"
        }
      ],
      "stateMutability": "view",
      "type": "function"
    },
    {
      "inputs": [
        {
          "components": [
            {
              "internalType": "address",
              "name": "pool",
              "type": "address"
            },
            {
              "internalType": "address",
              "name": "asset",
              "type": "address"
            },
            {
              "internalType": "uint256",
              "name": "amount",
              "type": "uint256"
            }
          ],
          "internalType": "struct IPoolDelegate.CallParams",
          "name": "params",
          "type": "tuple"
        }
      ],
      "name": "getExcess",
      "outputs": [
        {
          "internalType": "uint256",
          "name": "",
          "type": "uint256"
        }
      ],
      "stateMutability": "view",
      "type": "function"
    },
    {
      "inputs": [],
      "name": "name",
      "outputs": [
        {
          "internalType": "string",
          "name": "",
          "type": "string"
        }
      ],
      "stateMutability": "view",
      "type": "function"
    },
    {
      "inputs": [],
      "name": "owner",
      "outputs": [
        {
          "internalType": "address",
          "name": "",
          "type": "address"
        }
      ],
      "stateMutability": "view",
      "type": "function"
    },
    {
      "inputs": [],
      "name": "renounceOwnership",
      "outputs": [],
      "stateMutability": "nonpayable",
      "type": "function"
    },
    {
      "inputs": [
        {
          "components": [
            {
              "internalType": "address",
              "name": "pool",
              "type": "address"
            },
            {
              "internalType": "address",
              "name": "asset",
              "type": "address"
            },
            {
              "internalType": "uint256",
              "name": "amount",
              "type": "uint256"
            }
          ],
          "internalType": "struct IPoolDelegate.CallParams",
          "name": "params",
          "type": "tuple"
        }
      ],
      "name": "repay",
      "outputs": [],
      "stateMutability": "nonpayable",
      "type": "function"
    },
    {
      "inputs": [
        {
          "internalType": "string",
          "name": "name_",
          "type": "string"
        }
      ],
      "name": "setName",
      "outputs": [],
      "stateMutability": "nonpayable",
      "type": "function"
    },
    {
      "inputs": [
        {
          "components": [
            {
              "internalType": "address",
              "name": "pool",
              "type": "address"
            },
            {
              "internalType": "address",
              "name": "asset",
              "type": "address"
            },
            {
              "internalType": "uint256",
              "name": "amount",
              "type": "uint256"
            }
          ],
          "internalType": "struct IPoolDelegate.CallParams",
          "name": "params",
          "type": "tuple"
        }
      ],
      "name": "supplied",
      "outputs": [
        {
          "internalType": "uint256",
          "name": "",
          "type": "uint256"
        }
      ],
      "stateMutability": "view",
      "type": "function"
    },
    {
      "inputs": [
        {
          "components": [
            {
              "internalType": "address",
              "name": "pool",
              "type": "address"
            },
            {
              "internalType": "address",
              "name": "asset",
              "type": "address"
            },
            {
              "internalType": "uint256",
              "name": "amount",
              "type": "uint256"
            }
          ],
          "internalType": "struct IPoolDelegate.CallParams",
          "name": "params",
          "type": "tuple"
        }
      ],
      "name": "supply",
      "outputs": [],
      "stateMutability": "nonpayable",
      "type": "function"
    },
    {
      "inputs": [
        {
          "internalType": "address",
          "name": "asset",
          "type": "address"
        },
        {
          "internalType": "uint256",
          "name": "amount",
          "type": "uint256"
        },
        {
          "internalType": "address",
          "name": "to",
          "type": "address"
        }
      ],
      "name": "transfer",
      "outputs": [],
      "stateMutability": "nonpayable",
      "type": "function"
    },
    {
      "inputs": [
        {
          "internalType": "address",
          "name": "newOwner",
          "type": "address"
        }
      ],
      "name": "transferOwnership",
      "outputs": [],
      "stateMutability": "nonpayable",
      "type": "function"
    },
    {
      "inputs": [
        {
          "components": [
            {
              "internalType": "address",
              "name": "pool",
              "type": "address"
            },
            {
              "internalType": "address",
              "name": "asset",
              "type": "address"
            },
            {
              "internalType": "uint256",
              "name": "amount",
              "type": "uint256"
            }
          ],
          "internalType": "struct IPoolDelegate.CallParams",
          "name": "params",
          "type": "tuple"
        }
      ],
      "name": "withdraw",
      "outputs": [],
      "stateMutability": "nonpayable",
      "type": "function"
    },
    {
      "inputs": [
        {
          "components": [
            {
              "internalType": "address",
              "name": "pool",
              "type": "address"
            },
            {
              "internalType": "address",
              "name": "asset",
              "type": "address"
            },
            {
              "internalType": "uint256",
              "name": "amount",
              "type": "uint256"
            }
          ],
          "internalType": "struct IPoolDelegate.CallParams[]",
          "name": "params",
          "type": "tuple[]"
        }
      ],
      "name": "withdrawExcesses",
      "outputs": [],
      "stateMutability": "nonpayable",
      "type": "function"
    }
  ],
  "bytecode": "0x60806040523480156200001157600080fd5b5060405162002fa438038062002fa4833981810160405281019062000037919062000437565b620000576200004b620000b960201b60201c565b620000c160201b60201c565b81600560006101000a81548173ffffffffffffffffffffffffffffffffffffffff021916908373ffffffffffffffffffffffffffffffffffffffff1602179055508060019080519060200190620000b092919062000185565b50505062000502565b600033905090565b60008060009054906101000a900473ffffffffffffffffffffffffffffffffffffffff169050816000806101000a81548173ffffffffffffffffffffffffffffffffffffffff021916908373ffffffffffffffffffffffffffffffffffffffff1602179055508173ffffffffffffffffffffffffffffffffffffffff168173ffffffffffffffffffffffffffffffffffffffff167f8be0079c531659141344cd1fd0a4f28419497f9722a3daafe3b4186f6b6457e060405160405180910390a35050565b8280546200019390620004cc565b90600052602060002090601f016020900481019282620001b7576000855562000203565b82601f10620001d257805160ff191683800117855562000203565b8280016001018555821562000203579182015b8281111562000202578251825591602001919060010190620001e5565b5b50905062000212919062000216565b5090565b5b808211156200023157600081600090555060010162000217565b5090565b6000604051905090565b600080fd5b600080fd5b600073ffffffffffffffffffffffffffffffffffffffff82169050919050565b6000620002768262000249565b9050919050565b620002888162000269565b81146200029457600080fd5b50565b600081519050620002a8816200027d565b92915050565b600080fd5b600080fd5b6000601f19601f8301169050919050565b7f4e487b7100000000000000000000000000000000000000000000000000000000600052604160045260246000fd5b6200030382620002b8565b810181811067ffffffffffffffff82111715620003255762000324620002c9565b5b80604052505050565b60006200033a62000235565b9050620003488282620002f8565b919050565b600067ffffffffffffffff8211156200036b576200036a620002c9565b5b6200037682620002b8565b9050602081019050919050565b60005b83811015620003a357808201518184015260208101905062000386565b83811115620003b3576000848401525b50505050565b6000620003d0620003ca846200034d565b6200032e565b905082815260208101848484011115620003ef57620003ee620002b3565b5b620003fc84828562000383565b509392505050565b600082601f8301126200041c576200041b620002ae565b5b81516200042e848260208601620003b9565b91505092915050565b600080604083850312156200045157620004506200023f565b5b6000620004618582860162000297565b925050602083015167ffffffffffffffff81111562000485576200048462000244565b5b620004938582860162000404565b9150509250929050565b7f4e487b7100000000000000000000000000000000000000000000000000000000600052602260045260246000fd5b60006002820490506001821680620004e557607f821691505b60208210811415620004fc57620004fb6200049d565b5b50919050565b612a9280620005126000396000f3fe608060405234801561001057600080fd5b50600436106101005760003560e01c8063715018a611610097578063dbba0f0111610066578063dbba0f0114610285578063e74f6ff6146102a1578063f2fde38b146102bf578063fbc4b692146102db57610100565b8063715018a61461021157806371bd5c651461021b5780638da5cb5b1461024b578063c47f00271461026957610100565b80634ae86a88116100d35780634ae86a881461017957806351678967146101a95780635d7e1be8146101c55780636abafac3146101e157610100565b806306fdde03146101055780630c96b8b014610123578063292d0abe1461013f5780633eea1ef31461015b575b600080fd5b61010d6102f7565b60405161011a9190611ef2565b60405180910390f35b61013d60048036038101906101389190611f4c565b610389565b005b61015960048036038101906101549190611f4c565b6107f0565b005b610163610c31565b6040516101709190611fba565b60405180910390f35b610193600480360381019061018e919061211b565b610c5b565b6040516101a09190612157565b60405180910390f35b6101c360048036038101906101be919061211b565b610d95565b005b6101df60048036038101906101da919061223f565b610ed6565b005b6101fb60048036038101906101f6919061211b565b610f66565b6040516102089190612157565b60405180910390f35b610219611093565b005b6102356004803603810190610230919061211b565b6110a7565b6040516102429190612157565b60405180910390f35b6102536111d4565b6040516102609190611fba565b60405180910390f35b610283600480360381019061027e91906122e3565b6111fd565b005b61029f600480360381019061029a9190612330565b61121b565b005b6102a9611334565b6040516102b69190611fba565b60405180910390f35b6102d960048036038101906102d49190612383565b61135e565b005b6102f560048036038101906102f0919061211b565b6113e2565b005b606060018054610306906123df565b80601f0160208091040260200160405190810160405280929190818152602001828054610332906123df565b801561037f5780601f106103545761010080835404028352916020019161037f565b820191906000526020600020905b81548152906001019060200180831161036257829003601f168201915b5050505050905090565b61039161154f565b600073ffffffffffffffffffffffffffffffffffffffff16600360009054906101000a900473ffffffffffffffffffffffffffffffffffffffff1673ffffffffffffffffffffffffffffffffffffffff1614610422576040517f08c379a00000000000000000000000000000000000000000000000000000000081526004016104199061245d565b60405180910390fd5b600073ffffffffffffffffffffffffffffffffffffffff16600460009054906101000a900473ffffffffffffffffffffffffffffffffffffffff1673ffffffffffffffffffffffffffffffffffffffff161461047d57600080fd5b8060200160208101906104909190612383565b600460006101000a81548173ffffffffffffffffffffffffffffffffffffffff021916908373ffffffffffffffffffffffffffffffffffffffff1602179055508060000160208101906104e39190612383565b600360006101000a81548173ffffffffffffffffffffffffffffffffffffffff021916908373ffffffffffffffffffffffffffffffffffffffff1602179055506000816040516024016105369190612523565b6040516020818303038152906040527f0c96b8b0000000000000000000000000000000000000000000000000000000007bffffffffffffffffffffffffffffffffffffffffffffffffffffffff19166020820180517bffffffffffffffffffffffffffffffffffffffffffffffffffffffff838183161783525050505090506106c2816040518060400160405280601781526020017f5661756c743a204661696c656420746f20626f72726f77000000000000000000815250600560009054906101000a900473ffffffffffffffffffffffffffffffffffffffff1673ffffffffffffffffffffffffffffffffffffffff16637e8f3aed8660000160208101906106409190612383565b6040518263ffffffff1660e01b815260040161065c9190611fba565b602060405180830381865afa158015610679573d6000803e3d6000fd5b505050506040513d601f19601f8201168201806040525081019061069d9190612553565b73ffffffffffffffffffffffffffffffffffffffff166115cd9092919063ffffffff16565b508160200160208101906106d69190612383565b73ffffffffffffffffffffffffffffffffffffffff168260000160208101906106ff9190612383565b73ffffffffffffffffffffffffffffffffffffffff167f312a5e5e1079f5dda4e95dbbd0b908b291fd5b992ef22073643ab691572c5b5284604001356040516107489190612157565b60405180910390a38160200160208101906107639190612383565b73ffffffffffffffffffffffffffffffffffffffff1663a9059cbb6107866111d4565b84604001356040518363ffffffff1660e01b81526004016107a8929190612580565b6020604051808303816000875af11580156107c7573d6000803e3d6000fd5b505050506040513d601f19601f820116820180604052508101906107eb91906125e1565b505050565b6107f861154f565b600081602001602081019061080d9190612383565b73ffffffffffffffffffffffffffffffffffffffff166370a08231306040518263ffffffff1660e01b81526004016108459190611fba565b602060405180830381865afa158015610862573d6000803e3d6000fd5b505050506040513d601f19601f820116820180604052508101906108869190612623565b9050816040013581101561093e578160200160208101906108a79190612383565b73ffffffffffffffffffffffffffffffffffffffff166323b872dd6108ca61169a565b308486604001356108db919061267f565b6040518463ffffffff1660e01b81526004016108f9939291906126b3565b6020604051808303816000875af1158015610918573d6000803e3d6000fd5b505050506040513d601f19601f8201168201806040525081019061093c91906125e1565b505b81604001356002600084600001602081019061095a9190612383565b73ffffffffffffffffffffffffffffffffffffffff1673ffffffffffffffffffffffffffffffffffffffff16815260200190815260200160002060008460200160208101906109a99190612383565b73ffffffffffffffffffffffffffffffffffffffff1673ffffffffffffffffffffffffffffffffffffffff16815260200190815260200160002060008282546109f291906126ea565b92505081905550600082604051602401610a0c9190612523565b6040516020818303038152906040527f292d0abe000000000000000000000000000000000000000000000000000000007bffffffffffffffffffffffffffffffffffffffffffffffffffffffff19166020820180517bffffffffffffffffffffffffffffffffffffffffffffffffffffffff838183161783525050505090506000600560009054906101000a900473ffffffffffffffffffffffffffffffffffffffff1673ffffffffffffffffffffffffffffffffffffffff16637e8f3aed856000016020810190610ade9190612383565b6040518263ffffffff1660e01b8152600401610afa9190611fba565b602060405180830381865afa158015610b17573d6000803e3d6000fd5b505050506040513d601f19601f82011682018060405250810190610b3b9190612553565b9050610b9d826040518060400160405280601781526020017f5661756c743a204661696c656420746f20737570706c790000000000000000008152508373ffffffffffffffffffffffffffffffffffffffff166115cd9092919063ffffffff16565b50836020016020810190610bb19190612383565b73ffffffffffffffffffffffffffffffffffffffff16846000016020810190610bda9190612383565b73ffffffffffffffffffffffffffffffffffffffff167fd1cf3d156d5f8f0d50f6c122ed609cec09d35c9b9fb3fff6ea0959134dae424e8660400135604051610c239190612157565b60405180910390a350505050565b6000600360009054906101000a900473ffffffffffffffffffffffffffffffffffffffff16905090565b600080610c6783610f66565b9050610ca86040518060400160405280600a81526020017f62616c616e63653d257300000000000000000000000000000000000000000000815250826116a2565b600060026000856000015173ffffffffffffffffffffffffffffffffffffffff1673ffffffffffffffffffffffffffffffffffffffff1681526020019081526020016000206000856020015173ffffffffffffffffffffffffffffffffffffffff1673ffffffffffffffffffffffffffffffffffffffff168152602001908152602001600020549050610d706040518060400160405280601281526020017f737570706c696564546f5661756c743d25730000000000000000000000000000815250826116a2565b80821015610d7f576000610d8c565b8082610d8b919061267f565b5b92505050919050565b610d9d61154f565b610da68161173e565b806040015160026000836000015173ffffffffffffffffffffffffffffffffffffffff1673ffffffffffffffffffffffffffffffffffffffff1681526020019081526020016000206000836020015173ffffffffffffffffffffffffffffffffffffffff1673ffffffffffffffffffffffffffffffffffffffff1681526020019081526020016000206000828254610e3e919061267f565b92505081905550806020015173ffffffffffffffffffffffffffffffffffffffff1663a9059cbb610e6d6111d4565b83604001516040518363ffffffff1660e01b8152600401610e8f929190612580565b6020604051808303816000875af1158015610eae573d6000803e3d6000fd5b505050506040513d601f19601f82011682018060405250810190610ed291906125e1565b5050565b60008151905060005b81811015610f6157610f0a838281518110610efd57610efc612740565b5b6020026020010151610c5b565b838281518110610f1d57610f1c612740565b5b60200260200101516040018181525050610f50838281518110610f4357610f42612740565b5b602002602001015161173e565b80610f5a9061276f565b9050610edf565b505050565b600080600560009054906101000a900473ffffffffffffffffffffffffffffffffffffffff1673ffffffffffffffffffffffffffffffffffffffff1663271dc945846000015185602001516040518363ffffffff1660e01b8152600401610fce9291906127b8565b602060405180830381865afa158015610feb573d6000803e3d6000fd5b505050506040513d601f19601f8201168201806040525081019061100f9190612553565b90508073ffffffffffffffffffffffffffffffffffffffff166370a08231306040518263ffffffff1660e01b815260040161104a9190611fba565b602060405180830381865afa158015611067573d6000803e3d6000fd5b505050506040513d601f19601f8201168201806040525081019061108b9190612623565b915050919050565b61109b61154f565b6110a56000611945565b565b600080600560009054906101000a900473ffffffffffffffffffffffffffffffffffffffff1673ffffffffffffffffffffffffffffffffffffffff1663c9b1f1fb846000015185602001516040518363ffffffff1660e01b815260040161110f9291906127b8565b602060405180830381865afa15801561112c573d6000803e3d6000fd5b505050506040513d601f19601f820116820180604052508101906111509190612553565b90508073ffffffffffffffffffffffffffffffffffffffff166370a08231306040518263ffffffff1660e01b815260040161118b9190611fba565b602060405180830381865afa1580156111a8573d6000803e3d6000fd5b505050506040513d601f19601f820116820180604052508101906111cc9190612623565b915050919050565b60008060009054906101000a900473ffffffffffffffffffffffffffffffffffffffff16905090565b61120561154f565b818160019190611216929190611db6565b505050565b61122361154f565b60008373ffffffffffffffffffffffffffffffffffffffff166370a08231306040518263ffffffff1660e01b815260040161125e9190611fba565b602060405180830381865afa15801561127b573d6000803e3d6000fd5b505050506040513d601f19601f8201168201806040525081019061129f9190612623565b90508373ffffffffffffffffffffffffffffffffffffffff1663a9059cbb838386116112cb57856112cd565b835b6040518363ffffffff1660e01b81526004016112ea929190612580565b6020604051808303816000875af1158015611309573d6000803e3d6000fd5b505050506040513d601f19601f8201168201806040525081019061132d91906125e1565b5050505050565b6000600460009054906101000a900473ffffffffffffffffffffffffffffffffffffffff16905090565b61136661154f565b600073ffffffffffffffffffffffffffffffffffffffff168173ffffffffffffffffffffffffffffffffffffffff1614156113d6576040517f08c379a00000000000000000000000000000000000000000000000000000000081526004016113cd90612853565b60405180910390fd5b6113df81611945565b50565b6113ea61154f565b6000816020015173ffffffffffffffffffffffffffffffffffffffff166370a08231306040518263ffffffff1660e01b81526004016114299190611fba565b602060405180830381865afa158015611446573d6000803e3d6000fd5b505050506040513d601f19601f8201168201806040525081019061146a9190612623565b90506000611477836110a7565b90508260400151811161148a5780611490565b82604001515b836040018181525050826040015182101561154157826020015173ffffffffffffffffffffffffffffffffffffffff166323b872dd6114cd61169a565b308587604001516114de919061267f565b6040518463ffffffff1660e01b81526004016114fc939291906126b3565b6020604051808303816000875af115801561151b573d6000803e3d6000fd5b505050506040513d601f19601f8201168201806040525081019061153f91906125e1565b505b61154a83611a09565b505050565b61155761169a565b73ffffffffffffffffffffffffffffffffffffffff166115756111d4565b73ffffffffffffffffffffffffffffffffffffffff16146115cb576040517f08c379a00000000000000000000000000000000000000000000000000000000081526004016115c2906128bf565b60405180910390fd5b565b60606115d884611d03565b611617576040517f08c379a000000000000000000000000000000000000000000000000000000000815260040161160e90612951565b60405180910390fd5b6000808573ffffffffffffffffffffffffffffffffffffffff168560405161163f91906129b8565b600060405180830381855af49150503d806000811461167a576040519150601f19603f3d011682016040523d82523d6000602084013e61167f565b606091505b509150915061168f828286611d26565b925050509392505050565b600033905090565b61173a82826040516024016116b89291906129cf565b6040516020818303038152906040527f9710a9d0000000000000000000000000000000000000000000000000000000007bffffffffffffffffffffffffffffffffffffffffffffffffffffffff19166020820180517bffffffffffffffffffffffffffffffffffffffffffffffffffffffff8381831617835250505050611d8d565b5050565b6000816040516024016117519190612a41565b6040516020818303038152906040527f51678967000000000000000000000000000000000000000000000000000000007bffffffffffffffffffffffffffffffffffffffffffffffffffffffff19166020820180517bffffffffffffffffffffffffffffffffffffffffffffffffffffffff838183161783525050505090506118cf816040518060400160405280601981526020017f5661756c743a204661696c656420746f20776974686472617700000000000000815250600560009054906101000a900473ffffffffffffffffffffffffffffffffffffffff1673ffffffffffffffffffffffffffffffffffffffff16637e8f3aed86600001516040518263ffffffff1660e01b81526004016118699190611fba565b602060405180830381865afa158015611886573d6000803e3d6000fd5b505050506040513d601f19601f820116820180604052508101906118aa9190612553565b73ffffffffffffffffffffffffffffffffffffffff166115cd9092919063ffffffff16565b50816020015173ffffffffffffffffffffffffffffffffffffffff16826000015173ffffffffffffffffffffffffffffffffffffffff167f9b1bfa7fa9ee420a16e124f794c35ac9f90472acc99140eb2f6447c714cad8eb84604001516040516119399190612157565b60405180910390a35050565b60008060009054906101000a900473ffffffffffffffffffffffffffffffffffffffff169050816000806101000a81548173ffffffffffffffffffffffffffffffffffffffff021916908373ffffffffffffffffffffffffffffffffffffffff1602179055508173ffffffffffffffffffffffffffffffffffffffff168173ffffffffffffffffffffffffffffffffffffffff167f8be0079c531659141344cd1fd0a4f28419497f9722a3daafe3b4186f6b6457e060405160405180910390a35050565b600073ffffffffffffffffffffffffffffffffffffffff16600360009054906101000a900473ffffffffffffffffffffffffffffffffffffffff1673ffffffffffffffffffffffffffffffffffffffff161415611a6557611d00565b600081604051602401611a789190612a41565b6040516020818303038152906040527ffbc4b692000000000000000000000000000000000000000000000000000000007bffffffffffffffffffffffffffffffffffffffffffffffffffffffff19166020820180517bffffffffffffffffffffffffffffffffffffffffffffffffffffffff83818316178352505050509050611bf6816040518060400160405280601681526020017f5661756c743a204661696c656420746f20726570617900000000000000000000815250600560009054906101000a900473ffffffffffffffffffffffffffffffffffffffff1673ffffffffffffffffffffffffffffffffffffffff16637e8f3aed86600001516040518263ffffffff1660e01b8152600401611b909190611fba565b602060405180830381865afa158015611bad573d6000803e3d6000fd5b505050506040513d601f19601f82011682018060405250810190611bd19190612553565b73ffffffffffffffffffffffffffffffffffffffff166115cd9092919063ffffffff16565b506000611c02836110a7565b1415611c8d576000600360006101000a81548173ffffffffffffffffffffffffffffffffffffffff021916908373ffffffffffffffffffffffffffffffffffffffff1602179055506000600460006101000a81548173ffffffffffffffffffffffffffffffffffffffff021916908373ffffffffffffffffffffffffffffffffffffffff1602179055505b816020015173ffffffffffffffffffffffffffffffffffffffff16826000015173ffffffffffffffffffffffffffffffffffffffff167f05f2eeda0e08e4b437f487c8d7d29b14537d15e3488170dc3de5dbdf8dac46848460400151604051611cf69190612157565b60405180910390a3505b50565b6000808273ffffffffffffffffffffffffffffffffffffffff163b119050919050565b60608315611d3657829050611d86565b600083511115611d495782518084602001fd5b816040517f08c379a0000000000000000000000000000000000000000000000000000000008152600401611d7d9190611ef2565b60405180910390fd5b9392505050565b60008151905060006a636f6e736f6c652e6c6f679050602083016000808483855afa5050505050565b828054611dc2906123df565b90600052602060002090601f016020900481019282611de45760008555611e2b565b82601f10611dfd57803560ff1916838001178555611e2b565b82800160010185558215611e2b579182015b82811115611e2a578235825591602001919060010190611e0f565b5b509050611e389190611e3c565b5090565b5b80821115611e55576000816000905550600101611e3d565b5090565b600081519050919050565b600082825260208201905092915050565b60005b83811015611e93578082015181840152602081019050611e78565b83811115611ea2576000848401525b50505050565b6000601f19601f8301169050919050565b6000611ec482611e59565b611ece8185611e64565b9350611ede818560208601611e75565b611ee781611ea8565b840191505092915050565b60006020820190508181036000830152611f0c8184611eb9565b905092915050565b6000604051905090565b600080fd5b600080fd5b600080fd5b600060608284031215611f4357611f42611f28565b5b81905092915050565b600060608284031215611f6257611f61611f1e565b5b6000611f7084828501611f2d565b91505092915050565b600073ffffffffffffffffffffffffffffffffffffffff82169050919050565b6000611fa482611f79565b9050919050565b611fb481611f99565b82525050565b6000602082019050611fcf6000830184611fab565b92915050565b600080fd5b7f4e487b7100000000000000000000000000000000000000000000000000000000600052604160045260246000fd5b61201282611ea8565b810181811067ffffffffffffffff8211171561203157612030611fda565b5b80604052505050565b6000612044611f14565b90506120508282612009565b919050565b61205e81611f99565b811461206957600080fd5b50565b60008135905061207b81612055565b92915050565b6000819050919050565b61209481612081565b811461209f57600080fd5b50565b6000813590506120b18161208b565b92915050565b6000606082840312156120cd576120cc611fd5565b5b6120d7606061203a565b905060006120e78482850161206c565b60008301525060206120fb8482850161206c565b602083015250604061210f848285016120a2565b60408301525092915050565b60006060828403121561213157612130611f1e565b5b600061213f848285016120b7565b91505092915050565b61215181612081565b82525050565b600060208201905061216c6000830184612148565b92915050565b600080fd5b600067ffffffffffffffff82111561219257612191611fda565b5b602082029050602081019050919050565b600080fd5b60006121bb6121b684612177565b61203a565b905080838252602082019050606084028301858111156121de576121dd6121a3565b5b835b8181101561220757806121f388826120b7565b8452602084019350506060810190506121e0565b5050509392505050565b600082601f83011261222657612225612172565b5b81356122368482602086016121a8565b91505092915050565b60006020828403121561225557612254611f1e565b5b600082013567ffffffffffffffff81111561227357612272611f23565b5b61227f84828501612211565b91505092915050565b600080fd5b60008083601f8401126122a3576122a2612172565b5b8235905067ffffffffffffffff8111156122c0576122bf612288565b5b6020830191508360018202830111156122dc576122db6121a3565b5b9250929050565b600080602083850312156122fa576122f9611f1e565b5b600083013567ffffffffffffffff81111561231857612317611f23565b5b6123248582860161228d565b92509250509250929050565b60008060006060848603121561234957612348611f1e565b5b60006123578682870161206c565b9350506020612368868287016120a2565b92505060406123798682870161206c565b9150509250925092565b60006020828403121561239957612398611f1e565b5b60006123a78482850161206c565b91505092915050565b7f4e487b7100000000000000000000000000000000000000000000000000000000600052602260045260246000fd5b600060028204905060018216806123f757607f821691505b6020821081141561240b5761240a6123b0565b5b50919050565b7f5661756c743a204f6e65206c6f616e20617420612074696d6500000000000000600082015250565b6000612447601983611e64565b915061245282612411565b602082019050919050565b600060208201905081810360008301526124768161243a565b9050919050565b600061248c602084018461206c565b905092915050565b61249d81611f99565b82525050565b60006124b260208401846120a2565b905092915050565b6124c381612081565b82525050565b606082016124da600083018361247d565b6124e76000850182612494565b506124f5602083018361247d565b6125026020850182612494565b5061251060408301836124a3565b61251d60408501826124ba565b50505050565b600060608201905061253860008301846124c9565b92915050565b60008151905061254d81612055565b92915050565b60006020828403121561256957612568611f1e565b5b60006125778482850161253e565b91505092915050565b60006040820190506125956000830185611fab565b6125a26020830184612148565b9392505050565b60008115159050919050565b6125be816125a9565b81146125c957600080fd5b50565b6000815190506125db816125b5565b92915050565b6000602082840312156125f7576125f6611f1e565b5b6000612605848285016125cc565b91505092915050565b60008151905061261d8161208b565b92915050565b60006020828403121561263957612638611f1e565b5b60006126478482850161260e565b91505092915050565b7f4e487b7100000000000000000000000000000000000000000000000000000000600052601160045260246000fd5b600061268a82612081565b915061269583612081565b9250828210156126a8576126a7612650565b5b828203905092915050565b60006060820190506126c86000830186611fab565b6126d56020830185611fab565b6126e26040830184612148565b949350505050565b60006126f582612081565b915061270083612081565b9250827fffffffffffffffffffffffffffffffffffffffffffffffffffffffffffffffff0382111561273557612734612650565b5b828201905092915050565b7f4e487b7100000000000000000000000000000000000000000000000000000000600052603260045260246000fd5b600061277a82612081565b91507fffffffffffffffffffffffffffffffffffffffffffffffffffffffffffffffff8214156127ad576127ac612650565b5b600182019050919050565b60006040820190506127cd6000830185611fab565b6127da6020830184611fab565b9392505050565b7f4f776e61626c653a206e6577206f776e657220697320746865207a65726f206160008201527f6464726573730000000000000000000000000000000000000000000000000000602082015250565b600061283d602683611e64565b9150612848826127e1565b604082019050919050565b6000602082019050818103600083015261286c81612830565b9050919050565b7f4f776e61626c653a2063616c6c6572206973206e6f7420746865206f776e6572600082015250565b60006128a9602083611e64565b91506128b482612873565b602082019050919050565b600060208201905081810360008301526128d88161289c565b9050919050565b7f416464726573733a2064656c65676174652063616c6c20746f206e6f6e2d636f60008201527f6e74726163740000000000000000000000000000000000000000000000000000602082015250565b600061293b602683611e64565b9150612946826128df565b604082019050919050565b6000602082019050818103600083015261296a8161292e565b9050919050565b600081519050919050565b600081905092915050565b600061299282612971565b61299c818561297c565b93506129ac818560208601611e75565b80840191505092915050565b60006129c48284612987565b915081905092915050565b600060408201905081810360008301526129e98185611eb9565b90506129f86020830184612148565b9392505050565b606082016000820151612a156000850182612494565b506020820151612a286020850182612494565b506040820151612a3b60408501826124ba565b50505050565b6000606082019050612a5660008301846129ff565b9291505056fea26469706673582212204758322afd737e32d81413ed719ade0dddefda625d35afce093508489f89f03964736f6c634300080c0033",
  "linkReferences": {},
  "deployedLinkReferences": {}
}