{
  "_format": "hh-sol-artifact-1",
  "contractName": "BaseVault",
  "sourceName": "contracts/BaseVault.sol",
  "abi": [
    {
      "inputs": [
        {
          "internalType": "address",
          "name": "configProvider_",
          "type": "address"
        },
        {
          "internalType": "string",
          "name": "name_",
          "type": "string"
        }
      ],
      "stateMutability": "nonpayable",
      "type": "constructor"
    },
    {
      "anonymous": false,
      "inputs": [
        {
          "indexed": true,
          "internalType": "address",
          "name": "pool",
          "type": "address"
        },
        {
          "indexed": true,
          "internalType": "address",
          "name": "asset",
          "type": "address"
        },
        {
          "indexed": false,
          "internalType": "uint256",
          "name": "amount",
          "type": "uint256"
        }
      ],
      "name": "Borrow",
      "type": "event"
    },
    {
      "anonymous": false,
      "inputs": [
        {
          "indexed": true,
          "internalType": "address",
          "name": "previousOwner",
          "type": "address"
        },
        {
          "indexed": true,
          "internalType": "address",
          "name": "newOwner",
          "type": "address"
        }
      ],
      "name": "OwnershipTransferred",
      "type": "event"
    },
    {
      "anonymous": false,
      "inputs": [
        {
          "indexed": true,
          "internalType": "address",
          "name": "pool",
          "type": "address"
        },
        {
          "indexed": true,
          "internalType": "address",
          "name": "asset",
          "type": "address"
        },
        {
          "indexed": false,
          "internalType": "uint256",
          "name": "amount",
          "type": "uint256"
        }
      ],
      "name": "Repay",
      "type": "event"
    },
    {
      "anonymous": false,
      "inputs": [
        {
          "indexed": true,
          "internalType": "address",
          "name": "pool",
          "type": "address"
        },
        {
          "indexed": true,
          "internalType": "address",
          "name": "asset",
          "type": "address"
        },
        {
          "indexed": false,
          "internalType": "uint256",
          "name": "amount",
          "type": "uint256"
        }
      ],
      "name": "Supply",
      "type": "event"
    },
    {
      "anonymous": false,
      "inputs": [
        {
          "indexed": true,
          "internalType": "address",
          "name": "pool",
          "type": "address"
        },
        {
          "indexed": true,
          "internalType": "address",
          "name": "asset",
          "type": "address"
        },
        {
          "indexed": false,
          "internalType": "uint256",
          "name": "amount",
          "type": "uint256"
        }
      ],
      "name": "Withdraw",
      "type": "event"
    },
    {
      "inputs": [
        {
          "components": [
            {
              "internalType": "address",
              "name": "pool",
              "type": "address"
            },
            {
              "internalType": "address",
              "name": "asset",
              "type": "address"
            },
            {
              "internalType": "uint256",
              "name": "amount",
              "type": "uint256"
            },
            {
              "internalType": "address",
              "name": "controller",
              "type": "address"
            }
          ],
          "internalType": "struct IPoolDelegate.CallParams",
          "name": "params",
          "type": "tuple"
        }
      ],
      "name": "borrow",
      "outputs": [],
      "stateMutability": "nonpayable",
      "type": "function"
    },
    {
      "inputs": [
        {
          "components": [
            {
              "internalType": "address",
              "name": "pool",
              "type": "address"
            },
            {
              "internalType": "address",
              "name": "asset",
              "type": "address"
            },
            {
              "internalType": "uint256",
              "name": "amount",
              "type": "uint256"
            },
            {
              "internalType": "address",
              "name": "controller",
              "type": "address"
            }
          ],
          "internalType": "struct IPoolDelegate.CallParams",
          "name": "params",
          "type": "tuple"
        }
      ],
      "name": "borrowed",
      "outputs": [
        {
          "internalType": "uint256",
          "name": "",
          "type": "uint256"
        }
      ],
      "stateMutability": "view",
      "type": "function"
    },
    {
      "inputs": [],
      "name": "currentDebtAsset",
      "outputs": [
        {
          "internalType": "address",
          "name": "",
          "type": "address"
        }
      ],
      "stateMutability": "view",
      "type": "function"
    },
    {
      "inputs": [],
      "name": "currentDebtPool",
      "outputs": [
        {
          "internalType": "address",
          "name": "",
          "type": "address"
        }
      ],
      "stateMutability": "view",
      "type": "function"
    },
    {
      "inputs": [
        {
          "components": [
            {
              "internalType": "address",
              "name": "pool",
              "type": "address"
            },
            {
              "internalType": "address",
              "name": "asset",
              "type": "address"
            },
            {
              "internalType": "uint256",
              "name": "amount",
              "type": "uint256"
            },
            {
              "internalType": "address",
              "name": "controller",
              "type": "address"
            }
          ],
          "internalType": "struct IPoolDelegate.CallParams",
          "name": "params",
          "type": "tuple"
        }
      ],
      "name": "getExcess",
      "outputs": [
        {
          "internalType": "uint256",
          "name": "",
          "type": "uint256"
        }
      ],
      "stateMutability": "view",
      "type": "function"
    },
    {
      "inputs": [],
      "name": "name",
      "outputs": [
        {
          "internalType": "string",
          "name": "",
          "type": "string"
        }
      ],
      "stateMutability": "view",
      "type": "function"
    },
    {
      "inputs": [],
      "name": "owner",
      "outputs": [
        {
          "internalType": "address",
          "name": "",
          "type": "address"
        }
      ],
      "stateMutability": "view",
      "type": "function"
    },
    {
      "inputs": [],
      "name": "renounceOwnership",
      "outputs": [],
      "stateMutability": "nonpayable",
      "type": "function"
    },
    {
      "inputs": [
        {
          "components": [
            {
              "internalType": "address",
              "name": "pool",
              "type": "address"
            },
            {
              "internalType": "address",
              "name": "asset",
              "type": "address"
            },
            {
              "internalType": "uint256",
              "name": "amount",
              "type": "uint256"
            },
            {
              "internalType": "address",
              "name": "controller",
              "type": "address"
            }
          ],
          "internalType": "struct IPoolDelegate.CallParams",
          "name": "params",
          "type": "tuple"
        }
      ],
      "name": "repay",
      "outputs": [],
      "stateMutability": "payable",
      "type": "function"
    },
    {
      "inputs": [
        {
          "internalType": "string",
          "name": "name_",
          "type": "string"
        }
      ],
      "name": "setName",
      "outputs": [],
      "stateMutability": "nonpayable",
      "type": "function"
    },
    {
      "inputs": [
        {
          "components": [
            {
              "internalType": "address",
              "name": "pool",
              "type": "address"
            },
            {
              "internalType": "address",
              "name": "asset",
              "type": "address"
            },
            {
              "internalType": "uint256",
              "name": "amount",
              "type": "uint256"
            },
            {
              "internalType": "address",
              "name": "controller",
              "type": "address"
            }
          ],
          "internalType": "struct IPoolDelegate.CallParams",
          "name": "params",
          "type": "tuple"
        }
      ],
      "name": "supplied",
      "outputs": [
        {
          "internalType": "uint256",
          "name": "",
          "type": "uint256"
        }
      ],
      "stateMutability": "view",
      "type": "function"
    },
    {
      "inputs": [
        {
          "components": [
            {
              "internalType": "address",
              "name": "pool",
              "type": "address"
            },
            {
              "internalType": "address",
              "name": "asset",
              "type": "address"
            },
            {
              "internalType": "uint256",
              "name": "amount",
              "type": "uint256"
            },
            {
              "internalType": "address",
              "name": "controller",
              "type": "address"
            }
          ],
          "internalType": "struct IPoolDelegate.CallParams",
          "name": "params",
          "type": "tuple"
        }
      ],
      "name": "supply",
      "outputs": [],
      "stateMutability": "payable",
      "type": "function"
    },
    {
      "inputs": [
        {
          "internalType": "address",
          "name": "asset",
          "type": "address"
        },
        {
          "internalType": "uint256",
          "name": "amount",
          "type": "uint256"
        },
        {
          "internalType": "address",
          "name": "to",
          "type": "address"
        }
      ],
      "name": "transfer",
      "outputs": [],
      "stateMutability": "nonpayable",
      "type": "function"
    },
    {
      "inputs": [
        {
          "internalType": "address",
          "name": "newOwner",
          "type": "address"
        }
      ],
      "name": "transferOwnership",
      "outputs": [],
      "stateMutability": "nonpayable",
      "type": "function"
    },
    {
      "inputs": [
        {
          "components": [
            {
              "internalType": "address",
              "name": "pool",
              "type": "address"
            },
            {
              "internalType": "address",
              "name": "asset",
              "type": "address"
            },
            {
              "internalType": "uint256",
              "name": "amount",
              "type": "uint256"
            },
            {
              "internalType": "address",
              "name": "controller",
              "type": "address"
            }
          ],
          "internalType": "struct IPoolDelegate.CallParams",
          "name": "params",
          "type": "tuple"
        }
      ],
      "name": "withdraw",
      "outputs": [],
      "stateMutability": "nonpayable",
      "type": "function"
    },
    {
      "inputs": [
        {
          "components": [
            {
              "internalType": "address",
              "name": "pool",
              "type": "address"
            },
            {
              "internalType": "address",
              "name": "asset",
              "type": "address"
            },
            {
              "internalType": "uint256",
              "name": "amount",
              "type": "uint256"
            },
            {
              "internalType": "address",
              "name": "controller",
              "type": "address"
            }
          ],
          "internalType": "struct IPoolDelegate.CallParams[]",
          "name": "params",
          "type": "tuple[]"
        }
      ],
      "name": "withdrawExcesses",
      "outputs": [],
      "stateMutability": "nonpayable",
      "type": "function"
    }
  ],
  "bytecode": "0x60806040523480156200001157600080fd5b506040516200366b3803806200366b833981810160405281019062000037919062000437565b620000576200004b620000b960201b60201c565b620000c160201b60201c565b81600560006101000a81548173ffffffffffffffffffffffffffffffffffffffff021916908373ffffffffffffffffffffffffffffffffffffffff1602179055508060019080519060200190620000b092919062000185565b50505062000502565b600033905090565b60008060009054906101000a900473ffffffffffffffffffffffffffffffffffffffff169050816000806101000a81548173ffffffffffffffffffffffffffffffffffffffff021916908373ffffffffffffffffffffffffffffffffffffffff1602179055508173ffffffffffffffffffffffffffffffffffffffff168173ffffffffffffffffffffffffffffffffffffffff167f8be0079c531659141344cd1fd0a4f28419497f9722a3daafe3b4186f6b6457e060405160405180910390a35050565b8280546200019390620004cc565b90600052602060002090601f016020900481019282620001b7576000855562000203565b82601f10620001d257805160ff191683800117855562000203565b8280016001018555821562000203579182015b8281111562000202578251825591602001919060010190620001e5565b5b50905062000212919062000216565b5090565b5b808211156200023157600081600090555060010162000217565b5090565b6000604051905090565b600080fd5b600080fd5b600073ffffffffffffffffffffffffffffffffffffffff82169050919050565b6000620002768262000249565b9050919050565b620002888162000269565b81146200029457600080fd5b50565b600081519050620002a8816200027d565b92915050565b600080fd5b600080fd5b6000601f19601f8301169050919050565b7f4e487b7100000000000000000000000000000000000000000000000000000000600052604160045260246000fd5b6200030382620002b8565b810181811067ffffffffffffffff82111715620003255762000324620002c9565b5b80604052505050565b60006200033a62000235565b9050620003488282620002f8565b919050565b600067ffffffffffffffff8211156200036b576200036a620002c9565b5b6200037682620002b8565b9050602081019050919050565b60005b83811015620003a357808201518184015260208101905062000386565b83811115620003b3576000848401525b50505050565b6000620003d0620003ca846200034d565b6200032e565b905082815260208101848484011115620003ef57620003ee620002b3565b5b620003fc84828562000383565b509392505050565b600082601f8301126200041c576200041b620002ae565b5b81516200042e848260208601620003b9565b91505092915050565b600080604083850312156200045157620004506200023f565b5b6000620004618582860162000297565b925050602083015167ffffffffffffffff81111562000485576200048462000244565b5b620004938582860162000404565b9150509250929050565b7f4e487b7100000000000000000000000000000000000000000000000000000000600052602260045260246000fd5b60006002820490506001821680620004e557607f821691505b60208210811415620004fc57620004fb6200049d565b5b50919050565b61315980620005126000396000f3fe6080604052600436106100f35760003560e01c806388dab3391161008a578063dbba0f0111610059578063dbba0f0114610307578063e74f6ff614610330578063ef33f95d1461035b578063f2fde38b14610377576100f3565b806388dab3391461024d5780638da5cb5b14610276578063c47f0027146102a1578063d4d4ed00146102ca576100f3565b80635b8a60c4116100c65780635b8a60c4146101935780635ba34b53146101bc578063715018a6146101f957806375b7831914610210576100f3565b806305e4833a146100f857806306fdde03146101145780633eea1ef31461013f5780635acb354a1461016a575b600080fd5b610112600480360381019061010d91906124d8565b6103a0565b005b34801561012057600080fd5b50610129610514565b604051610136919061258d565b60405180910390f35b34801561014b57600080fd5b506101546105a6565b60405161016191906125be565b60405180910390f35b34801561017657600080fd5b50610191600480360381019061018c91906125fd565b6105d0565b005b34801561019f57600080fd5b506101ba60048036038101906101b591906124d8565b610969565b005b3480156101c857600080fd5b506101e360048036038101906101de91906124d8565b610b40565b6040516101f09190612639565b60405180910390f35b34801561020557600080fd5b5061020e610d12565b005b34801561021c57600080fd5b50610237600480360381019061023291906124d8565b610d26565b6040516102449190612639565b60405180910390f35b34801561025957600080fd5b50610274600480360381019061026f9190612721565b610ef8565b005b34801561028257600080fd5b5061028b610f88565b60405161029891906125be565b60405180910390f35b3480156102ad57600080fd5b506102c860048036038101906102c391906127c5565b610fb1565b005b3480156102d657600080fd5b506102f160048036038101906102ec91906124d8565b610fcf565b6040516102fe9190612639565b60405180910390f35b34801561031357600080fd5b5061032e60048036038101906103299190612812565b61108b565b005b34801561033c57600080fd5b506103456111a4565b60405161035291906125be565b60405180910390f35b610375600480360381019061037091906125fd565b6111ce565b005b34801561038357600080fd5b5061039e60048036038101906103999190612865565b6115a1565b005b6103a8611625565b6000816020015173ffffffffffffffffffffffffffffffffffffffff166370a08231306040518263ffffffff1660e01b81526004016103e791906125be565b602060405180830381865afa158015610404573d6000803e3d6000fd5b505050506040513d601f19601f8201168201806040525081019061042891906128a7565b9050600061043583610b40565b90508260400151811061044c57826040015161044e565b805b8360400181815250506104a56040518060400160405280601081526020017f746f207472616e73666572203d202573000000000000000000000000000000008152508385604001516104a09190612903565b6116a3565b8260400151821015610506576104be836020015161173f565b6105056104c96117d8565b308486604001516104da9190612903565b866020015173ffffffffffffffffffffffffffffffffffffffff166117e0909392919063ffffffff16565b5b61050f83611869565b505050565b60606001805461052390612966565b80601f016020809104026020016040519081016040528092919081815260200182805461054f90612966565b801561059c5780601f106105715761010080835404028352916020019161059c565b820191906000526020600020905b81548152906001019060200180831161057f57829003601f168201915b5050505050905090565b6000600360009054906101000a900473ffffffffffffffffffffffffffffffffffffffff16905090565b6105d8611625565b600073ffffffffffffffffffffffffffffffffffffffff16600360009054906101000a900473ffffffffffffffffffffffffffffffffffffffff1673ffffffffffffffffffffffffffffffffffffffff1614610669576040517f08c379a0000000000000000000000000000000000000000000000000000000008152600401610660906129e4565b60405180910390fd5b600073ffffffffffffffffffffffffffffffffffffffff16600460009054906101000a900473ffffffffffffffffffffffffffffffffffffffff1673ffffffffffffffffffffffffffffffffffffffff16146106fa576040517f08c379a00000000000000000000000000000000000000000000000000000000081526004016106f1906129e4565b60405180910390fd5b80602001602081019061070d9190612865565b600460006101000a81548173ffffffffffffffffffffffffffffffffffffffff021916908373ffffffffffffffffffffffffffffffffffffffff1602179055508060000160208101906107609190612865565b600360006101000a81548173ffffffffffffffffffffffffffffffffffffffff021916908373ffffffffffffffffffffffffffffffffffffffff1602179055506000600560009054906101000a900473ffffffffffffffffffffffffffffffffffffffff1673ffffffffffffffffffffffffffffffffffffffff16637e8f3aed8360000160208101906107f39190612865565b6040518263ffffffff1660e01b815260040161080f91906125be565b602060405180830381865afa15801561082c573d6000803e3d6000fd5b505050506040513d601f19601f820116820180604052508101906108509190612a19565b90506000635acb354a60e01b8360405160240161086d9190612b07565b604051602081830303815290604052907bffffffffffffffffffffffffffffffffffffffffffffffffffffffff19166020820180517bffffffffffffffffffffffffffffffffffffffffffffffffffffffff838183161783525050505090506108d68282611bba565b508260200160208101906108ea9190612865565b73ffffffffffffffffffffffffffffffffffffffff168360000160208101906109139190612865565b73ffffffffffffffffffffffffffffffffffffffff167f312a5e5e1079f5dda4e95dbbd0b908b291fd5b992ef22073643ab691572c5b52856040013560405161095c9190612639565b60405180910390a3505050565b610971611625565b61097a81611be7565b600060026000836000015173ffffffffffffffffffffffffffffffffffffffff1673ffffffffffffffffffffffffffffffffffffffff1681526020019081526020016000206000836020015173ffffffffffffffffffffffffffffffffffffffff1673ffffffffffffffffffffffffffffffffffffffff16815260200190815260200160002054905080826040015111610a2357816040015181610a1e9190612903565b610a26565b60005b60026000846000015173ffffffffffffffffffffffffffffffffffffffff1673ffffffffffffffffffffffffffffffffffffffff1681526020019081526020016000206000846020015173ffffffffffffffffffffffffffffffffffffffff1673ffffffffffffffffffffffffffffffffffffffff16815260200190815260200160002081905550816020015173ffffffffffffffffffffffffffffffffffffffff1663a9059cbb610ad6610f88565b84604001516040518363ffffffff1660e01b8152600401610af8929190612b22565b6020604051808303816000875af1158015610b17573d6000803e3d6000fd5b505050506040513d601f19601f82011682018060405250810190610b3b9190612b83565b505050565b600080600560009054906101000a900473ffffffffffffffffffffffffffffffffffffffff1673ffffffffffffffffffffffffffffffffffffffff1663c9b1f1fb846000015185602001516040518363ffffffff1660e01b8152600401610ba8929190612bb0565b602060405180830381865afa158015610bc5573d6000803e3d6000fd5b505050506040513d601f19601f82011682018060405250810190610be99190612a19565b90506000600560009054906101000a900473ffffffffffffffffffffffffffffffffffffffff1673ffffffffffffffffffffffffffffffffffffffff16637e8f3aed85600001516040518263ffffffff1660e01b8152600401610c4c91906125be565b602060405180830381865afa158015610c69573d6000803e3d6000fd5b505050506040513d601f19601f82011682018060405250810190610c8d9190612a19565b90508073ffffffffffffffffffffffffffffffffffffffff16630941cb3d836040518263ffffffff1660e01b8152600401610cc891906125be565b602060405180830381865afa158015610ce5573d6000803e3d6000fd5b505050506040513d601f19601f82011682018060405250810190610d0991906128a7565b92505050919050565b610d1a611625565b610d246000611db4565b565b600080600560009054906101000a900473ffffffffffffffffffffffffffffffffffffffff1673ffffffffffffffffffffffffffffffffffffffff1663271dc945846000015185602001516040518363ffffffff1660e01b8152600401610d8e929190612bb0565b602060405180830381865afa158015610dab573d6000803e3d6000fd5b505050506040513d601f19601f82011682018060405250810190610dcf9190612a19565b90506000600560009054906101000a900473ffffffffffffffffffffffffffffffffffffffff1673ffffffffffffffffffffffffffffffffffffffff16637e8f3aed85600001516040518263ffffffff1660e01b8152600401610e3291906125be565b602060405180830381865afa158015610e4f573d6000803e3d6000fd5b505050506040513d601f19601f82011682018060405250810190610e739190612a19565b90508073ffffffffffffffffffffffffffffffffffffffff1663155a7205836040518263ffffffff1660e01b8152600401610eae91906125be565b602060405180830381865afa158015610ecb573d6000803e3d6000fd5b505050506040513d601f19601f82011682018060405250810190610eef91906128a7565b92505050919050565b60008151905060005b81811015610f8357610f2c838281518110610f1f57610f1e612bd9565b5b6020026020010151610fcf565b838281518110610f3f57610f3e612bd9565b5b60200260200101516040018181525050610f72838281518110610f6557610f64612bd9565b5b6020026020010151611be7565b80610f7c90612c08565b9050610f01565b505050565b60008060009054906101000a900473ffffffffffffffffffffffffffffffffffffffff16905090565b610fb9611625565b818160019190610fca929190612284565b505050565b600080610fdb83610d26565b9050600060026000856000015173ffffffffffffffffffffffffffffffffffffffff1673ffffffffffffffffffffffffffffffffffffffff1681526020019081526020016000206000856020015173ffffffffffffffffffffffffffffffffffffffff1673ffffffffffffffffffffffffffffffffffffffff16815260200190815260200160002054905080821015611075576000611082565b80826110819190612903565b5b92505050919050565b611093611625565b60008373ffffffffffffffffffffffffffffffffffffffff166370a08231306040518263ffffffff1660e01b81526004016110ce91906125be565b602060405180830381865afa1580156110eb573d6000803e3d6000fd5b505050506040513d601f19601f8201168201806040525081019061110f91906128a7565b90508373ffffffffffffffffffffffffffffffffffffffff1663a9059cbb8383861161113b578561113d565b835b6040518363ffffffff1660e01b815260040161115a929190612b22565b6020604051808303816000875af1158015611179573d6000803e3d6000fd5b505050506040513d601f19601f8201168201806040525081019061119d9190612b83565b5050505050565b6000600460009054906101000a900473ffffffffffffffffffffffffffffffffffffffff16905090565b6111d6611625565b60008160200160208101906111eb9190612865565b73ffffffffffffffffffffffffffffffffffffffff166370a08231306040518263ffffffff1660e01b815260040161122391906125be565b602060405180830381865afa158015611240573d6000803e3d6000fd5b505050506040513d601f19601f8201168201806040525081019061126491906128a7565b9050816040013581101561131c578160200160208101906112859190612865565b73ffffffffffffffffffffffffffffffffffffffff166323b872dd6112a86117d8565b308486604001356112b99190612903565b6040518463ffffffff1660e01b81526004016112d793929190612c51565b6020604051808303816000875af11580156112f6573d6000803e3d6000fd5b505050506040513d601f19601f8201168201806040525081019061131a9190612b83565b505b8160400135600260008460000160208101906113389190612865565b73ffffffffffffffffffffffffffffffffffffffff1673ffffffffffffffffffffffffffffffffffffffff16815260200190815260200160002060008460200160208101906113879190612865565b73ffffffffffffffffffffffffffffffffffffffff1673ffffffffffffffffffffffffffffffffffffffff16815260200190815260200160002060008282546113d09190612c88565b925050819055506000600560009054906101000a900473ffffffffffffffffffffffffffffffffffffffff1673ffffffffffffffffffffffffffffffffffffffff16637e8f3aed84600001602081019061142a9190612865565b6040518263ffffffff1660e01b815260040161144691906125be565b602060405180830381865afa158015611463573d6000803e3d6000fd5b505050506040513d601f19601f820116820180604052508101906114879190612a19565b9050600063ef33f95d60e01b846040516024016114a49190612b07565b604051602081830303815290604052907bffffffffffffffffffffffffffffffffffffffffffffffffffffffff19166020820180517bffffffffffffffffffffffffffffffffffffffffffffffffffffffff8381831617835250505050905061150d8282611bba565b508360200160208101906115219190612865565b73ffffffffffffffffffffffffffffffffffffffff1684600001602081019061154a9190612865565b73ffffffffffffffffffffffffffffffffffffffff167fd1cf3d156d5f8f0d50f6c122ed609cec09d35c9b9fb3fff6ea0959134dae424e86604001356040516115939190612639565b60405180910390a350505050565b6115a9611625565b600073ffffffffffffffffffffffffffffffffffffffff168173ffffffffffffffffffffffffffffffffffffffff161415611619576040517f08c379a000000000000000000000000000000000000000000000000000000000815260040161161090612d50565b60405180910390fd5b61162281611db4565b50565b61162d6117d8565b73ffffffffffffffffffffffffffffffffffffffff1661164b610f88565b73ffffffffffffffffffffffffffffffffffffffff16146116a1576040517f08c379a000000000000000000000000000000000000000000000000000000000815260040161169890612dbc565b60405180910390fd5b565b61173b82826040516024016116b9929190612ddc565b6040516020818303038152906040527f9710a9d0000000000000000000000000000000000000000000000000000000007bffffffffffffffffffffffffffffffffffffffffffffffffffffffff19166020820180517bffffffffffffffffffffffffffffffffffffffffffffffffffffffff8381831617835250505050611e78565b5050565b6117d58160405160240161175391906125be565b6040516020818303038152906040527f2c2ecbc2000000000000000000000000000000000000000000000000000000007bffffffffffffffffffffffffffffffffffffffffffffffffffffffff19166020820180517bffffffffffffffffffffffffffffffffffffffffffffffffffffffff8381831617835250505050611e78565b50565b600033905090565b611863846323b872dd60e01b85858560405160240161180193929190612c51565b604051602081830303815290604052907bffffffffffffffffffffffffffffffffffffffffffffffffffffffff19166020820180517bffffffffffffffffffffffffffffffffffffffffffffffffffffffff8381831617835250505050611ea1565b50505050565b600073ffffffffffffffffffffffffffffffffffffffff16600360009054906101000a900473ffffffffffffffffffffffffffffffffffffffff1673ffffffffffffffffffffffffffffffffffffffff161415611903576118fe6040518060400160405280600c81526020017f6e6f206465627420706f6f6c0000000000000000000000000000000000000000815250611f68565b611bb7565b6000600560009054906101000a900473ffffffffffffffffffffffffffffffffffffffff1673ffffffffffffffffffffffffffffffffffffffff16637e8f3aed83600001516040518263ffffffff1660e01b815260040161196491906125be565b602060405180830381865afa158015611981573d6000803e3d6000fd5b505050506040513d601f19601f820116820180604052508101906119a59190612a19565b905060006305e4833a60e01b836040516024016119c29190612e61565b604051602081830303815290604052907bffffffffffffffffffffffffffffffffffffffffffffffffffffffff19166020820180517bffffffffffffffffffffffffffffffffffffffffffffffffffffffff83818316178352505050509050611a2b8282611bba565b506000611a3784610b40565b1415611b0057611a7b6040518060400160405280600c81526020017f657874696e677569736865640000000000000000000000000000000000000000815250611f68565b6000600360006101000a81548173ffffffffffffffffffffffffffffffffffffffff021916908373ffffffffffffffffffffffffffffffffffffffff1602179055506000600460006101000a81548173ffffffffffffffffffffffffffffffffffffffff021916908373ffffffffffffffffffffffffffffffffffffffff1602179055505b611b436040518060400160405280600a81526020017f726570617965643d25730000000000000000000000000000000000000000000081525084604001516116a3565b826020015173ffffffffffffffffffffffffffffffffffffffff16836000015173ffffffffffffffffffffffffffffffffffffffff167f05f2eeda0e08e4b437f487c8d7d29b14537d15e3488170dc3de5dbdf8dac46848560400151604051611bac9190612639565b60405180910390a350505b50565b6060611bdf83836040518060600160405280602781526020016130fd60279139612001565b905092915050565b6000611bf282610d26565b905081604001518111611c055780611c0b565b81604001515b8260400181815250506000600560009054906101000a900473ffffffffffffffffffffffffffffffffffffffff1673ffffffffffffffffffffffffffffffffffffffff16637e8f3aed84600001516040518263ffffffff1660e01b8152600401611c7591906125be565b602060405180830381865afa158015611c92573d6000803e3d6000fd5b505050506040513d601f19601f82011682018060405250810190611cb69190612a19565b90506000635b8a60c460e01b84604051602401611cd39190612e61565b604051602081830303815290604052907bffffffffffffffffffffffffffffffffffffffffffffffffffffffff19166020820180517bffffffffffffffffffffffffffffffffffffffffffffffffffffffff83818316178352505050509050611d3c8282611bba565b50836020015173ffffffffffffffffffffffffffffffffffffffff16846000015173ffffffffffffffffffffffffffffffffffffffff167f9b1bfa7fa9ee420a16e124f794c35ac9f90472acc99140eb2f6447c714cad8eb8660400151604051611da69190612639565b60405180910390a350505050565b60008060009054906101000a900473ffffffffffffffffffffffffffffffffffffffff169050816000806101000a81548173ffffffffffffffffffffffffffffffffffffffff021916908373ffffffffffffffffffffffffffffffffffffffff1602179055508173ffffffffffffffffffffffffffffffffffffffff168173ffffffffffffffffffffffffffffffffffffffff167f8be0079c531659141344cd1fd0a4f28419497f9722a3daafe3b4186f6b6457e060405160405180910390a35050565b60008151905060006a636f6e736f6c652e6c6f679050602083016000808483855afa5050505050565b6000611f03826040518060400160405280602081526020017f5361666545524332303a206c6f772d6c6576656c2063616c6c206661696c65648152508573ffffffffffffffffffffffffffffffffffffffff166120ce9092919063ffffffff16565b9050600081511115611f635780806020019051810190611f239190612b83565b611f62576040517f08c379a0000000000000000000000000000000000000000000000000000000008152600401611f5990612eee565b60405180910390fd5b5b505050565b611ffe81604051602401611f7c919061258d565b6040516020818303038152906040527f41304fac000000000000000000000000000000000000000000000000000000007bffffffffffffffffffffffffffffffffffffffffffffffffffffffff19166020820180517bffffffffffffffffffffffffffffffffffffffffffffffffffffffff8381831617835250505050611e78565b50565b606061200c846120e6565b61204b576040517f08c379a000000000000000000000000000000000000000000000000000000000815260040161204290612f80565b60405180910390fd5b6000808573ffffffffffffffffffffffffffffffffffffffff16856040516120739190612fe7565b600060405180830381855af49150503d80600081146120ae576040519150601f19603f3d011682016040523d82523d6000602084013e6120b3565b606091505b50915091506120c3828286612109565b925050509392505050565b60606120dd8484600085612170565b90509392505050565b6000808273ffffffffffffffffffffffffffffffffffffffff163b119050919050565b6060831561211957829050612169565b60008351111561212c5782518084602001fd5b816040517f08c379a0000000000000000000000000000000000000000000000000000000008152600401612160919061258d565b60405180910390fd5b9392505050565b6060824710156121b5576040517f08c379a00000000000000000000000000000000000000000000000000000000081526004016121ac90613070565b60405180910390fd5b6121be856120e6565b6121fd576040517f08c379a00000000000000000000000000000000000000000000000000000000081526004016121f4906130dc565b60405180910390fd5b6000808673ffffffffffffffffffffffffffffffffffffffff1685876040516122269190612fe7565b60006040518083038185875af1925050503d8060008114612263576040519150601f19603f3d011682016040523d82523d6000602084013e612268565b606091505b5091509150612278828286612109565b92505050949350505050565b82805461229090612966565b90600052602060002090601f0160209004810192826122b257600085556122f9565b82601f106122cb57803560ff19168380011785556122f9565b828001600101855582156122f9579182015b828111156122f85782358255916020019190600101906122dd565b5b509050612306919061230a565b5090565b5b8082111561232357600081600090555060010161230b565b5090565b6000604051905090565b600080fd5b600080fd5b600080fd5b6000601f19601f8301169050919050565b7f4e487b7100000000000000000000000000000000000000000000000000000000600052604160045260246000fd5b61238982612340565b810181811067ffffffffffffffff821117156123a8576123a7612351565b5b80604052505050565b60006123bb612327565b90506123c78282612380565b919050565b600073ffffffffffffffffffffffffffffffffffffffff82169050919050565b60006123f7826123cc565b9050919050565b612407816123ec565b811461241257600080fd5b50565b600081359050612424816123fe565b92915050565b6000819050919050565b61243d8161242a565b811461244857600080fd5b50565b60008135905061245a81612434565b92915050565b6000608082840312156124765761247561233b565b5b61248060806123b1565b9050600061249084828501612415565b60008301525060206124a484828501612415565b60208301525060406124b88482850161244b565b60408301525060606124cc84828501612415565b60608301525092915050565b6000608082840312156124ee576124ed612331565b5b60006124fc84828501612460565b91505092915050565b600081519050919050565b600082825260208201905092915050565b60005b8381101561253f578082015181840152602081019050612524565b8381111561254e576000848401525b50505050565b600061255f82612505565b6125698185612510565b9350612579818560208601612521565b61258281612340565b840191505092915050565b600060208201905081810360008301526125a78184612554565b905092915050565b6125b8816123ec565b82525050565b60006020820190506125d360008301846125af565b92915050565b600080fd5b6000608082840312156125f4576125f36125d9565b5b81905092915050565b60006080828403121561261357612612612331565b5b6000612621848285016125de565b91505092915050565b6126338161242a565b82525050565b600060208201905061264e600083018461262a565b92915050565b600080fd5b600067ffffffffffffffff82111561267457612673612351565b5b602082029050602081019050919050565b600080fd5b600061269d61269884612659565b6123b1565b905080838252602082019050608084028301858111156126c0576126bf612685565b5b835b818110156126e957806126d58882612460565b8452602084019350506080810190506126c2565b5050509392505050565b600082601f83011261270857612707612654565b5b813561271884826020860161268a565b91505092915050565b60006020828403121561273757612736612331565b5b600082013567ffffffffffffffff81111561275557612754612336565b5b612761848285016126f3565b91505092915050565b600080fd5b60008083601f84011261278557612784612654565b5b8235905067ffffffffffffffff8111156127a2576127a161276a565b5b6020830191508360018202830111156127be576127bd612685565b5b9250929050565b600080602083850312156127dc576127db612331565b5b600083013567ffffffffffffffff8111156127fa576127f9612336565b5b6128068582860161276f565b92509250509250929050565b60008060006060848603121561282b5761282a612331565b5b600061283986828701612415565b935050602061284a8682870161244b565b925050604061285b86828701612415565b9150509250925092565b60006020828403121561287b5761287a612331565b5b600061288984828501612415565b91505092915050565b6000815190506128a181612434565b92915050565b6000602082840312156128bd576128bc612331565b5b60006128cb84828501612892565b91505092915050565b7f4e487b7100000000000000000000000000000000000000000000000000000000600052601160045260246000fd5b600061290e8261242a565b91506129198361242a565b92508282101561292c5761292b6128d4565b5b828203905092915050565b7f4e487b7100000000000000000000000000000000000000000000000000000000600052602260045260246000fd5b6000600282049050600182168061297e57607f821691505b6020821081141561299257612991612937565b5b50919050565b7f5661756c743a204f6e65206c6f616e20617420612074696d6500000000000000600082015250565b60006129ce601983612510565b91506129d982612998565b602082019050919050565b600060208201905081810360008301526129fd816129c1565b9050919050565b600081519050612a13816123fe565b92915050565b600060208284031215612a2f57612a2e612331565b5b6000612a3d84828501612a04565b91505092915050565b6000612a556020840184612415565b905092915050565b612a66816123ec565b82525050565b6000612a7b602084018461244b565b905092915050565b612a8c8161242a565b82525050565b60808201612aa36000830183612a46565b612ab06000850182612a5d565b50612abe6020830183612a46565b612acb6020850182612a5d565b50612ad96040830183612a6c565b612ae66040850182612a83565b50612af46060830183612a46565b612b016060850182612a5d565b50505050565b6000608082019050612b1c6000830184612a92565b92915050565b6000604082019050612b3760008301856125af565b612b44602083018461262a565b9392505050565b60008115159050919050565b612b6081612b4b565b8114612b6b57600080fd5b50565b600081519050612b7d81612b57565b92915050565b600060208284031215612b9957612b98612331565b5b6000612ba784828501612b6e565b91505092915050565b6000604082019050612bc560008301856125af565b612bd260208301846125af565b9392505050565b7f4e487b7100000000000000000000000000000000000000000000000000000000600052603260045260246000fd5b6000612c138261242a565b91507fffffffffffffffffffffffffffffffffffffffffffffffffffffffffffffffff821415612c4657612c456128d4565b5b600182019050919050565b6000606082019050612c6660008301866125af565b612c7360208301856125af565b612c80604083018461262a565b949350505050565b6000612c938261242a565b9150612c9e8361242a565b9250827fffffffffffffffffffffffffffffffffffffffffffffffffffffffffffffffff03821115612cd357612cd26128d4565b5b828201905092915050565b7f4f776e61626c653a206e6577206f776e657220697320746865207a65726f206160008201527f6464726573730000000000000000000000000000000000000000000000000000602082015250565b6000612d3a602683612510565b9150612d4582612cde565b604082019050919050565b60006020820190508181036000830152612d6981612d2d565b9050919050565b7f4f776e61626c653a2063616c6c6572206973206e6f7420746865206f776e6572600082015250565b6000612da6602083612510565b9150612db182612d70565b602082019050919050565b60006020820190508181036000830152612dd581612d99565b9050919050565b60006040820190508181036000830152612df68185612554565b9050612e05602083018461262a565b9392505050565b608082016000820151612e226000850182612a5d565b506020820151612e356020850182612a5d565b506040820151612e486040850182612a83565b506060820151612e5b6060850182612a5d565b50505050565b6000608082019050612e766000830184612e0c565b92915050565b7f5361666545524332303a204552433230206f7065726174696f6e20646964206e60008201527f6f74207375636365656400000000000000000000000000000000000000000000602082015250565b6000612ed8602a83612510565b9150612ee382612e7c565b604082019050919050565b60006020820190508181036000830152612f0781612ecb565b9050919050565b7f416464726573733a2064656c65676174652063616c6c20746f206e6f6e2d636f60008201527f6e74726163740000000000000000000000000000000000000000000000000000602082015250565b6000612f6a602683612510565b9150612f7582612f0e565b604082019050919050565b60006020820190508181036000830152612f9981612f5d565b9050919050565b600081519050919050565b600081905092915050565b6000612fc182612fa0565b612fcb8185612fab565b9350612fdb818560208601612521565b80840191505092915050565b6000612ff38284612fb6565b915081905092915050565b7f416464726573733a20696e73756666696369656e742062616c616e636520666f60008201527f722063616c6c0000000000000000000000000000000000000000000000000000602082015250565b600061305a602683612510565b915061306582612ffe565b604082019050919050565b600060208201905081810360008301526130898161304d565b9050919050565b7f416464726573733a2063616c6c20746f206e6f6e2d636f6e7472616374000000600082015250565b60006130c6601d83612510565b91506130d182613090565b602082019050919050565b600060208201905081810360008301526130f5816130b9565b905091905056fe416464726573733a206c6f772d6c6576656c2064656c65676174652063616c6c206661696c6564a264697066735822122057fe2aace754e71c21e28e222d5543358103626efc2586c60c089cf0b743053a64736f6c634300080c0033",
  "linkReferences": {},
  "deployedLinkReferences": {}
}