{
  "_format": "hh-sol-artifact-1",
  "contractName": "Catalyst_AaveV3Rewards_Delegate",
  "sourceName": "contracts/delegates/aaveV3/AaveV3Rewards_Delegate.sol",
  "abi": [
    {
      "inputs": [
        {
          "internalType": "contract IRewardsController",
          "name": "controller",
          "type": "address"
        },
        {
          "internalType": "address[]",
          "name": "assets",
          "type": "address[]"
        }
      ],
      "name": "harvestRewards",
      "outputs": [
        {
          "internalType": "address[]",
          "name": "rewards",
          "type": "address[]"
        },
        {
          "internalType": "uint256[]",
          "name": "amounts",
          "type": "uint256[]"
        }
      ],
      "stateMutability": "nonpayable",
      "type": "function"
    }
  ],
  "bytecode": "0x608060405234801561001057600080fd5b50610815806100206000396000f3fe608060405234801561001057600080fd5b506004361061002b5760003560e01c806361dfdefc14610030575b600080fd5b61004a6004803603810190610045919061021c565b610061565b604051610058929190610402565b60405180910390f35b606080600073ffffffffffffffffffffffffffffffffffffffff168573ffffffffffffffffffffffffffffffffffffffff161461012a5760008590508073ffffffffffffffffffffffffffffffffffffffff1663bf90f63a86866040518363ffffffff1660e01b81526004016100d89291906104f0565b6000604051808303816000875af11580156100f7573d6000803e3d6000fd5b505050506040513d6000823e3d601f19601f820116820180604052508101906101209190610767565b925092505061012b565b5b935093915050565b6000604051905090565b600080fd5b600080fd5b600073ffffffffffffffffffffffffffffffffffffffff82169050919050565b600061017282610147565b9050919050565b600061018482610167565b9050919050565b61019481610179565b811461019f57600080fd5b50565b6000813590506101b18161018b565b92915050565b600080fd5b600080fd5b600080fd5b60008083601f8401126101dc576101db6101b7565b5b8235905067ffffffffffffffff8111156101f9576101f86101bc565b5b602083019150836020820283011115610215576102146101c1565b5b9250929050565b6000806000604084860312156102355761023461013d565b5b6000610243868287016101a2565b935050602084013567ffffffffffffffff81111561026457610263610142565b5b610270868287016101c6565b92509250509250925092565b600081519050919050565b600082825260208201905092915050565b6000819050602082019050919050565b6102b181610167565b82525050565b60006102c383836102a8565b60208301905092915050565b6000602082019050919050565b60006102e78261027c565b6102f18185610287565b93506102fc83610298565b8060005b8381101561032d57815161031488826102b7565b975061031f836102cf565b925050600181019050610300565b5085935050505092915050565b600081519050919050565b600082825260208201905092915050565b6000819050602082019050919050565b6000819050919050565b61037981610366565b82525050565b600061038b8383610370565b60208301905092915050565b6000602082019050919050565b60006103af8261033a565b6103b98185610345565b93506103c483610356565b8060005b838110156103f55781516103dc888261037f565b97506103e783610397565b9250506001810190506103c8565b5085935050505092915050565b6000604082019050818103600083015261041c81856102dc565b9050818103602083015261043081846103a4565b90509392505050565b6000819050919050565b61044c81610167565b811461045757600080fd5b50565b60008135905061046981610443565b92915050565b600061047e602084018461045a565b905092915050565b6000602082019050919050565b600061049f8385610287565b93506104aa82610439565b8060005b858110156104e3576104c0828461046f565b6104ca88826102b7565b97506104d583610486565b9250506001810190506104ae565b5085925050509392505050565b6000602082019050818103600083015261050b818486610493565b90509392505050565b6000601f19601f8301169050919050565b7f4e487b7100000000000000000000000000000000000000000000000000000000600052604160045260246000fd5b61055d82610514565b810181811067ffffffffffffffff8211171561057c5761057b610525565b5b80604052505050565b600061058f610133565b905061059b8282610554565b919050565b600067ffffffffffffffff8211156105bb576105ba610525565b5b602082029050602081019050919050565b6000815190506105db81610443565b92915050565b60006105f46105ef846105a0565b610585565b90508083825260208201905060208402830185811115610617576106166101c1565b5b835b81811015610640578061062c88826105cc565b845260208401935050602081019050610619565b5050509392505050565b600082601f83011261065f5761065e6101b7565b5b815161066f8482602086016105e1565b91505092915050565b600067ffffffffffffffff82111561069357610692610525565b5b602082029050602081019050919050565b6106ad81610366565b81146106b857600080fd5b50565b6000815190506106ca816106a4565b92915050565b60006106e36106de84610678565b610585565b90508083825260208201905060208402830185811115610706576107056101c1565b5b835b8181101561072f578061071b88826106bb565b845260208401935050602081019050610708565b5050509392505050565b600082601f83011261074e5761074d6101b7565b5b815161075e8482602086016106d0565b91505092915050565b6000806040838503121561077e5761077d61013d565b5b600083015167ffffffffffffffff81111561079c5761079b610142565b5b6107a88582860161064a565b925050602083015167ffffffffffffffff8111156107c9576107c8610142565b5b6107d585828601610739565b915050925092905056fea2646970667358221220d7c41bcbb1d940a0655c34d44fa51b31a6c79b85b02803e49f58270692f258f364736f6c634300080c0033",
  "linkReferences": {},
  "deployedLinkReferences": {}
}