{
  "_format": "hh-sol-artifact-1",
  "contractName": "ZeroVixPoolDelegate",
  "sourceName": "contracts/delegates/0vix/0vixPool_Delegate.sol",
  "abi": [
    {
      "inputs": [
        {
          "components": [
            {
              "internalType": "address",
              "name": "pool",
              "type": "address"
            },
            {
              "internalType": "address",
              "name": "asset",
              "type": "address"
            },
            {
              "internalType": "uint256",
              "name": "amount",
              "type": "uint256"
            },
            {
              "internalType": "address",
              "name": "controller",
              "type": "address"
            }
          ],
          "internalType": "struct IPoolDelegate.CallParams",
          "name": "params",
          "type": "tuple"
        }
      ],
      "name": "_enterMarket",
      "outputs": [],
      "stateMutability": "nonpayable",
      "type": "function"
    },
    {
      "inputs": [
        {
          "components": [
            {
              "internalType": "address",
              "name": "pool",
              "type": "address"
            },
            {
              "internalType": "address",
              "name": "asset",
              "type": "address"
            },
            {
              "internalType": "uint256",
              "name": "amount",
              "type": "uint256"
            },
            {
              "internalType": "address",
              "name": "controller",
              "type": "address"
            }
          ],
          "internalType": "struct IPoolDelegate.CallParams",
          "name": "params",
          "type": "tuple"
        }
      ],
      "name": "borrow",
      "outputs": [],
      "stateMutability": "nonpayable",
      "type": "function"
    },
    {
      "inputs": [
        {
          "internalType": "address",
          "name": "asset",
          "type": "address"
        }
      ],
      "name": "borrowed",
      "outputs": [
        {
          "internalType": "uint256",
          "name": "",
          "type": "uint256"
        }
      ],
      "stateMutability": "view",
      "type": "function"
    },
    {
      "inputs": [
        {
          "components": [
            {
              "internalType": "address",
              "name": "pool",
              "type": "address"
            },
            {
              "internalType": "address",
              "name": "asset",
              "type": "address"
            },
            {
              "internalType": "uint256",
              "name": "amount",
              "type": "uint256"
            },
            {
              "internalType": "address",
              "name": "controller",
              "type": "address"
            }
          ],
          "internalType": "struct IPoolDelegate.CallParams",
          "name": "params",
          "type": "tuple"
        }
      ],
      "name": "repay",
      "outputs": [],
      "stateMutability": "payable",
      "type": "function"
    },
    {
      "inputs": [
        {
          "internalType": "address",
          "name": "asset",
          "type": "address"
        }
      ],
      "name": "supplied",
      "outputs": [
        {
          "internalType": "uint256",
          "name": "",
          "type": "uint256"
        }
      ],
      "stateMutability": "view",
      "type": "function"
    },
    {
      "inputs": [
        {
          "components": [
            {
              "internalType": "address",
              "name": "pool",
              "type": "address"
            },
            {
              "internalType": "address",
              "name": "asset",
              "type": "address"
            },
            {
              "internalType": "uint256",
              "name": "amount",
              "type": "uint256"
            },
            {
              "internalType": "address",
              "name": "controller",
              "type": "address"
            }
          ],
          "internalType": "struct IPoolDelegate.CallParams",
          "name": "params",
          "type": "tuple"
        }
      ],
      "name": "supply",
      "outputs": [],
      "stateMutability": "payable",
      "type": "function"
    },
    {
      "inputs": [
        {
          "components": [
            {
              "internalType": "address",
              "name": "pool",
              "type": "address"
            },
            {
              "internalType": "address",
              "name": "asset",
              "type": "address"
            },
            {
              "internalType": "uint256",
              "name": "amount",
              "type": "uint256"
            },
            {
              "internalType": "address",
              "name": "controller",
              "type": "address"
            }
          ],
          "internalType": "struct IPoolDelegate.CallParams",
          "name": "params",
          "type": "tuple"
        }
      ],
      "name": "withdraw",
      "outputs": [],
      "stateMutability": "nonpayable",
      "type": "function"
    }
  ],
  "bytecode": "0x608060405234801561001057600080fd5b50610fc0806100206000396000f3fe6080604052600436106100705760003560e01c80635acb354a1161004e5780635acb354a1461010b5780635b8a60c414610134578063bfb5b91d1461015d578063ef33f95d1461018657610070565b806305e4833a146100755780630941cb3d14610091578063155a7205146100ce575b600080fd5b61008f600480360381019061008a91906109a7565b6101a2565b005b34801561009d57600080fd5b506100b860048036038101906100b39190610a32565b61021e565b6040516100c59190610a78565b60405180910390f35b3480156100da57600080fd5b506100f560048036038101906100f09190610a32565b6102a6565b6040516101029190610a78565b60405180910390f35b34801561011757600080fd5b50610132600480360381019061012d91906109a7565b6103ff565b005b34801561014057600080fd5b5061015b600480360381019061015691906109a7565b6105a3565b005b34801561016957600080fd5b50610184600480360381019061017f91906109a7565b61063f565b005b6101a0600480360381019061019b91906109a7565b61078c565b005b60008160000160208101906101b79190610a32565b90508073ffffffffffffffffffffffffffffffffffffffff16634e4d9fea346040518263ffffffff1660e01b81526004016000604051808303818588803b15801561020157600080fd5b505af1158015610215573d6000803e3d6000fd5b50505050505050565b6000808290508073ffffffffffffffffffffffffffffffffffffffff166395dd9193336040518263ffffffff1660e01b815260040161025d9190610aa2565b602060405180830381865afa15801561027a573d6000803e3d6000fd5b505050506040513d601f19601f8201168201806040525081019061029e9190610ae9565b915050919050565b6000808290506000670de0b6b3a76400008273ffffffffffffffffffffffffffffffffffffffff1663182df0f56040518163ffffffff1660e01b8152600401602060405180830381865afa158015610302573d6000803e3d6000fd5b505050506040513d601f19601f820116820180604052508101906103269190610ae9565b8373ffffffffffffffffffffffffffffffffffffffff166370a08231336040518263ffffffff1660e01b815260040161035f9190610aa2565b602060405180830381865afa15801561037c573d6000803e3d6000fd5b505050506040513d601f19601f820116820180604052508101906103a09190610ae9565b6103aa9190610b45565b6103b49190610bce565b90506103f56040518060400160405280600d81526020017f737570706c696564203d2025730000000000000000000000000000000000000081525082610811565b8092505050919050565b61043d6040518060400160405280600181526020017f31000000000000000000000000000000000000000000000000000000000000008152506108ad565b6104468161063f565b6104846040518060400160405280600181526020017f32000000000000000000000000000000000000000000000000000000000000008152506108ad565b8060000160208101906104979190610a32565b73ffffffffffffffffffffffffffffffffffffffff1663c5ebeaec82604001356040518263ffffffff1660e01b81526004016104d39190610a78565b6020604051808303816000875af11580156104f2573d6000803e3d6000fd5b505050506040513d601f19601f820116820180604052508101906105169190610ae9565b506105556040518060400160405280600181526020017f33000000000000000000000000000000000000000000000000000000000000008152506108ad565b3373ffffffffffffffffffffffffffffffffffffffff166108fc82604001359081150290604051600060405180830381858888f1935050505015801561059f573d6000803e3d6000fd5b5050565b60008160000160208101906105b89190610a32565b90508073ffffffffffffffffffffffffffffffffffffffff1663852a12e383604001356040518263ffffffff1660e01b81526004016105f79190610a78565b6020604051808303816000875af1158015610616573d6000803e3d6000fd5b505050506040513d601f19601f8201168201806040525081019061063a9190610ae9565b505050565b60008160600160208101906106549190610a32565b90506000600167ffffffffffffffff81111561067357610672610bff565b5b6040519080825280602002602001820160405280156106a15781602001602082028036833780820191505090505b5090508260000160208101906106b79190610a32565b816000815181106106cb576106ca610c2e565b5b602002602001019073ffffffffffffffffffffffffffffffffffffffff16908173ffffffffffffffffffffffffffffffffffffffff16815250508173ffffffffffffffffffffffffffffffffffffffff1663c2998238826040518263ffffffff1660e01b815260040161073e9190610d1b565b6000604051808303816000875af115801561075d573d6000803e3d6000fd5b505050506040513d6000823e3d601f19601f820116820180604052508101906107869190610e67565b50505050565b60008160000160208101906107a19190610a32565b90506107ac8261063f565b8073ffffffffffffffffffffffffffffffffffffffff16631249c58b346040518263ffffffff1660e01b81526004016000604051808303818588803b1580156107f457600080fd5b505af1158015610808573d6000803e3d6000fd5b50505050505050565b6108a98282604051602401610827929190610f38565b6040516020818303038152906040527f9710a9d0000000000000000000000000000000000000000000000000000000007bffffffffffffffffffffffffffffffffffffffffffffffffffffffff19166020820180517bffffffffffffffffffffffffffffffffffffffffffffffffffffffff8381831617835250505050610946565b5050565b610943816040516024016108c19190610f68565b6040516020818303038152906040527f41304fac000000000000000000000000000000000000000000000000000000007bffffffffffffffffffffffffffffffffffffffffffffffffffffffff19166020820180517bffffffffffffffffffffffffffffffffffffffffffffffffffffffff8381831617835250505050610946565b50565b60008151905060006a636f6e736f6c652e6c6f679050602083016000808483855afa5050505050565b6000604051905090565b600080fd5b600080fd5b600080fd5b60006080828403121561099e5761099d610983565b5b81905092915050565b6000608082840312156109bd576109bc610979565b5b60006109cb84828501610988565b91505092915050565b600073ffffffffffffffffffffffffffffffffffffffff82169050919050565b60006109ff826109d4565b9050919050565b610a0f816109f4565b8114610a1a57600080fd5b50565b600081359050610a2c81610a06565b92915050565b600060208284031215610a4857610a47610979565b5b6000610a5684828501610a1d565b91505092915050565b6000819050919050565b610a7281610a5f565b82525050565b6000602082019050610a8d6000830184610a69565b92915050565b610a9c816109f4565b82525050565b6000602082019050610ab76000830184610a93565b92915050565b610ac681610a5f565b8114610ad157600080fd5b50565b600081519050610ae381610abd565b92915050565b600060208284031215610aff57610afe610979565b5b6000610b0d84828501610ad4565b91505092915050565b7f4e487b7100000000000000000000000000000000000000000000000000000000600052601160045260246000fd5b6000610b5082610a5f565b9150610b5b83610a5f565b9250817fffffffffffffffffffffffffffffffffffffffffffffffffffffffffffffffff0483118215151615610b9457610b93610b16565b5b828202905092915050565b7f4e487b7100000000000000000000000000000000000000000000000000000000600052601260045260246000fd5b6000610bd982610a5f565b9150610be483610a5f565b925082610bf457610bf3610b9f565b5b828204905092915050565b7f4e487b7100000000000000000000000000000000000000000000000000000000600052604160045260246000fd5b7f4e487b7100000000000000000000000000000000000000000000000000000000600052603260045260246000fd5b600081519050919050565b600082825260208201905092915050565b6000819050602082019050919050565b610c92816109f4565b82525050565b6000610ca48383610c89565b60208301905092915050565b6000602082019050919050565b6000610cc882610c5d565b610cd28185610c68565b9350610cdd83610c79565b8060005b83811015610d0e578151610cf58882610c98565b9750610d0083610cb0565b925050600181019050610ce1565b5085935050505092915050565b60006020820190508181036000830152610d358184610cbd565b905092915050565b600080fd5b6000601f19601f8301169050919050565b610d5c82610d42565b810181811067ffffffffffffffff82111715610d7b57610d7a610bff565b5b80604052505050565b6000610d8e61096f565b9050610d9a8282610d53565b919050565b600067ffffffffffffffff821115610dba57610db9610bff565b5b602082029050602081019050919050565b600080fd5b6000610de3610dde84610d9f565b610d84565b90508083825260208201905060208402830185811115610e0657610e05610dcb565b5b835b81811015610e2f5780610e1b8882610ad4565b845260208401935050602081019050610e08565b5050509392505050565b600082601f830112610e4e57610e4d610d3d565b5b8151610e5e848260208601610dd0565b91505092915050565b600060208284031215610e7d57610e7c610979565b5b600082015167ffffffffffffffff811115610e9b57610e9a61097e565b5b610ea784828501610e39565b91505092915050565b600081519050919050565b600082825260208201905092915050565b60005b83811015610eea578082015181840152602081019050610ecf565b83811115610ef9576000848401525b50505050565b6000610f0a82610eb0565b610f148185610ebb565b9350610f24818560208601610ecc565b610f2d81610d42565b840191505092915050565b60006040820190508181036000830152610f528185610eff565b9050610f616020830184610a69565b9392505050565b60006020820190508181036000830152610f828184610eff565b90509291505056fea2646970667358221220ce59c4c4758f1e9d362848425a932e0afa86571372635b1973023ab5b51201e464736f6c634300080c0033",
  "linkReferences": {},
  "deployedLinkReferences": {}
}