{
  "_format": "hh-sol-artifact-1",
  "contractName": "ZeroVixPoolDelegate",
  "sourceName": "contracts/delegates/0vix/0vixPool_Delegate.sol",
  "abi": [
    {
      "inputs": [
        {
          "components": [
            {
              "internalType": "address",
              "name": "pool",
              "type": "address"
            },
            {
              "internalType": "address",
              "name": "asset",
              "type": "address"
            },
            {
              "internalType": "uint256",
              "name": "amount",
              "type": "uint256"
            },
            {
              "internalType": "address",
              "name": "controller",
              "type": "address"
            }
          ],
          "internalType": "struct IPoolDelegate.CallParams",
          "name": "params",
          "type": "tuple"
        }
      ],
      "name": "_enterMarket",
      "outputs": [],
      "stateMutability": "nonpayable",
      "type": "function"
    },
    {
      "inputs": [
        {
          "components": [
            {
              "internalType": "address",
              "name": "pool",
              "type": "address"
            },
            {
              "internalType": "address",
              "name": "asset",
              "type": "address"
            },
            {
              "internalType": "uint256",
              "name": "amount",
              "type": "uint256"
            },
            {
              "internalType": "address",
              "name": "controller",
              "type": "address"
            }
          ],
          "internalType": "struct IPoolDelegate.CallParams",
          "name": "params",
          "type": "tuple"
        }
      ],
      "name": "borrow",
      "outputs": [],
      "stateMutability": "nonpayable",
      "type": "function"
    },
    {
      "inputs": [
        {
          "internalType": "address",
          "name": "asset",
          "type": "address"
        }
      ],
      "name": "borrowed",
      "outputs": [
        {
          "internalType": "uint256",
          "name": "",
          "type": "uint256"
        }
      ],
      "stateMutability": "view",
      "type": "function"
    },
    {
      "inputs": [
        {
          "components": [
            {
              "internalType": "address",
              "name": "pool",
              "type": "address"
            },
            {
              "internalType": "address",
              "name": "asset",
              "type": "address"
            },
            {
              "internalType": "uint256",
              "name": "amount",
              "type": "uint256"
            },
            {
              "internalType": "address",
              "name": "controller",
              "type": "address"
            }
          ],
          "internalType": "struct IPoolDelegate.CallParams",
          "name": "params",
          "type": "tuple"
        }
      ],
      "name": "repay",
      "outputs": [],
      "stateMutability": "payable",
      "type": "function"
    },
    {
      "inputs": [
        {
          "internalType": "address",
          "name": "asset",
          "type": "address"
        }
      ],
      "name": "supplied",
      "outputs": [
        {
          "internalType": "uint256",
          "name": "",
          "type": "uint256"
        }
      ],
      "stateMutability": "view",
      "type": "function"
    },
    {
      "inputs": [
        {
          "components": [
            {
              "internalType": "address",
              "name": "pool",
              "type": "address"
            },
            {
              "internalType": "address",
              "name": "asset",
              "type": "address"
            },
            {
              "internalType": "uint256",
              "name": "amount",
              "type": "uint256"
            },
            {
              "internalType": "address",
              "name": "controller",
              "type": "address"
            }
          ],
          "internalType": "struct IPoolDelegate.CallParams",
          "name": "params",
          "type": "tuple"
        }
      ],
      "name": "supply",
      "outputs": [],
      "stateMutability": "payable",
      "type": "function"
    },
    {
      "inputs": [
        {
          "components": [
            {
              "internalType": "address",
              "name": "pool",
              "type": "address"
            },
            {
              "internalType": "address",
              "name": "asset",
              "type": "address"
            },
            {
              "internalType": "uint256",
              "name": "amount",
              "type": "uint256"
            },
            {
              "internalType": "address",
              "name": "controller",
              "type": "address"
            }
          ],
          "internalType": "struct IPoolDelegate.CallParams",
          "name": "params",
          "type": "tuple"
        }
      ],
      "name": "withdraw",
      "outputs": [],
      "stateMutability": "nonpayable",
      "type": "function"
    }
  ],
  "bytecode": "0x608060405234801561001057600080fd5b5061111a806100206000396000f3fe6080604052600436106100705760003560e01c80635acb354a1161004e5780635acb354a1461010b5780635b8a60c414610134578063bfb5b91d1461015d578063ef33f95d1461018657610070565b806305e4833a146100755780630941cb3d14610091578063155a7205146100ce575b600080fd5b61008f600480360381019061008a9190610b01565b6101a2565b005b34801561009d57600080fd5b506100b860048036038101906100b39190610b8c565b61021e565b6040516100c59190610bd2565b60405180910390f35b3480156100da57600080fd5b506100f560048036038101906100f09190610b8c565b6102a6565b6040516101029190610bd2565b60405180910390f35b34801561011757600080fd5b50610132600480360381019061012d9190610b01565b6103ff565b005b34801561014057600080fd5b5061015b60048036038101906101569190610b01565b6105cb565b005b34801561016957600080fd5b50610184600480360381019061017f9190610b01565b610667565b005b6101a0600480360381019061019b9190610b01565b6107b4565b005b60008160000160208101906101b79190610b8c565b90508073ffffffffffffffffffffffffffffffffffffffff16634e4d9fea346040518263ffffffff1660e01b81526004016000604051808303818588803b15801561020157600080fd5b505af1158015610215573d6000803e3d6000fd5b50505050505050565b6000808290508073ffffffffffffffffffffffffffffffffffffffff166395dd9193336040518263ffffffff1660e01b815260040161025d9190610bfc565b602060405180830381865afa15801561027a573d6000803e3d6000fd5b505050506040513d601f19601f8201168201806040525081019061029e9190610c43565b915050919050565b6000808290506000670de0b6b3a76400008273ffffffffffffffffffffffffffffffffffffffff1663182df0f56040518163ffffffff1660e01b8152600401602060405180830381865afa158015610302573d6000803e3d6000fd5b505050506040513d601f19601f820116820180604052508101906103269190610c43565b8373ffffffffffffffffffffffffffffffffffffffff166370a08231336040518263ffffffff1660e01b815260040161035f9190610bfc565b602060405180830381865afa15801561037c573d6000803e3d6000fd5b505050506040513d601f19601f820116820180604052508101906103a09190610c43565b6103aa9190610c9f565b6103b49190610d28565b90506103f56040518060400160405280600d81526020017f737570706c696564203d2025730000000000000000000000000000000000000081525082610839565b8092505050919050565b61043d6040518060400160405280600181526020017f31000000000000000000000000000000000000000000000000000000000000008152506108d5565b61044681610667565b6104846040518060400160405280600181526020017f32000000000000000000000000000000000000000000000000000000000000008152506108d5565b61049f81600001602081019061049a9190610b8c565b61096e565b60008160000160208101906104b49190610b8c565b73ffffffffffffffffffffffffffffffffffffffff1663c5ebeaec83604001356040518263ffffffff1660e01b81526004016104f09190610bd2565b6020604051808303816000875af115801561050f573d6000803e3d6000fd5b505050506040513d601f19601f820116820180604052508101906105339190610c43565b905061053e81610a07565b61057c6040518060400160405280600181526020017f33000000000000000000000000000000000000000000000000000000000000008152506108d5565b3373ffffffffffffffffffffffffffffffffffffffff166108fc83604001359081150290604051600060405180830381858888f193505050501580156105c6573d6000803e3d6000fd5b505050565b60008160000160208101906105e09190610b8c565b90508073ffffffffffffffffffffffffffffffffffffffff1663852a12e383604001356040518263ffffffff1660e01b815260040161061f9190610bd2565b6020604051808303816000875af115801561063e573d6000803e3d6000fd5b505050506040513d601f19601f820116820180604052508101906106629190610c43565b505050565b600081606001602081019061067c9190610b8c565b90506000600167ffffffffffffffff81111561069b5761069a610d59565b5b6040519080825280602002602001820160405280156106c95781602001602082028036833780820191505090505b5090508260000160208101906106df9190610b8c565b816000815181106106f3576106f2610d88565b5b602002602001019073ffffffffffffffffffffffffffffffffffffffff16908173ffffffffffffffffffffffffffffffffffffffff16815250508173ffffffffffffffffffffffffffffffffffffffff1663c2998238826040518263ffffffff1660e01b81526004016107669190610e75565b6000604051808303816000875af1158015610785573d6000803e3d6000fd5b505050506040513d6000823e3d601f19601f820116820180604052508101906107ae9190610fc1565b50505050565b60008160000160208101906107c99190610b8c565b90506107d482610667565b8073ffffffffffffffffffffffffffffffffffffffff16631249c58b346040518263ffffffff1660e01b81526004016000604051808303818588803b15801561081c57600080fd5b505af1158015610830573d6000803e3d6000fd5b50505050505050565b6108d1828260405160240161084f929190611092565b6040516020818303038152906040527f9710a9d0000000000000000000000000000000000000000000000000000000007bffffffffffffffffffffffffffffffffffffffffffffffffffffffff19166020820180517bffffffffffffffffffffffffffffffffffffffffffffffffffffffff8381831617835250505050610aa0565b5050565b61096b816040516024016108e991906110c2565b6040516020818303038152906040527f41304fac000000000000000000000000000000000000000000000000000000007bffffffffffffffffffffffffffffffffffffffffffffffffffffffff19166020820180517bffffffffffffffffffffffffffffffffffffffffffffffffffffffff8381831617835250505050610aa0565b50565b610a04816040516024016109829190610bfc565b6040516020818303038152906040527f2c2ecbc2000000000000000000000000000000000000000000000000000000007bffffffffffffffffffffffffffffffffffffffffffffffffffffffff19166020820180517bffffffffffffffffffffffffffffffffffffffffffffffffffffffff8381831617835250505050610aa0565b50565b610a9d81604051602401610a1b9190610bd2565b6040516020818303038152906040527ff5b1bba9000000000000000000000000000000000000000000000000000000007bffffffffffffffffffffffffffffffffffffffffffffffffffffffff19166020820180517bffffffffffffffffffffffffffffffffffffffffffffffffffffffff8381831617835250505050610aa0565b50565b60008151905060006a636f6e736f6c652e6c6f679050602083016000808483855afa5050505050565b6000604051905090565b600080fd5b600080fd5b600080fd5b600060808284031215610af857610af7610add565b5b81905092915050565b600060808284031215610b1757610b16610ad3565b5b6000610b2584828501610ae2565b91505092915050565b600073ffffffffffffffffffffffffffffffffffffffff82169050919050565b6000610b5982610b2e565b9050919050565b610b6981610b4e565b8114610b7457600080fd5b50565b600081359050610b8681610b60565b92915050565b600060208284031215610ba257610ba1610ad3565b5b6000610bb084828501610b77565b91505092915050565b6000819050919050565b610bcc81610bb9565b82525050565b6000602082019050610be76000830184610bc3565b92915050565b610bf681610b4e565b82525050565b6000602082019050610c116000830184610bed565b92915050565b610c2081610bb9565b8114610c2b57600080fd5b50565b600081519050610c3d81610c17565b92915050565b600060208284031215610c5957610c58610ad3565b5b6000610c6784828501610c2e565b91505092915050565b7f4e487b7100000000000000000000000000000000000000000000000000000000600052601160045260246000fd5b6000610caa82610bb9565b9150610cb583610bb9565b9250817fffffffffffffffffffffffffffffffffffffffffffffffffffffffffffffffff0483118215151615610cee57610ced610c70565b5b828202905092915050565b7f4e487b7100000000000000000000000000000000000000000000000000000000600052601260045260246000fd5b6000610d3382610bb9565b9150610d3e83610bb9565b925082610d4e57610d4d610cf9565b5b828204905092915050565b7f4e487b7100000000000000000000000000000000000000000000000000000000600052604160045260246000fd5b7f4e487b7100000000000000000000000000000000000000000000000000000000600052603260045260246000fd5b600081519050919050565b600082825260208201905092915050565b6000819050602082019050919050565b610dec81610b4e565b82525050565b6000610dfe8383610de3565b60208301905092915050565b6000602082019050919050565b6000610e2282610db7565b610e2c8185610dc2565b9350610e3783610dd3565b8060005b83811015610e68578151610e4f8882610df2565b9750610e5a83610e0a565b925050600181019050610e3b565b5085935050505092915050565b60006020820190508181036000830152610e8f8184610e17565b905092915050565b600080fd5b6000601f19601f8301169050919050565b610eb682610e9c565b810181811067ffffffffffffffff82111715610ed557610ed4610d59565b5b80604052505050565b6000610ee8610ac9565b9050610ef48282610ead565b919050565b600067ffffffffffffffff821115610f1457610f13610d59565b5b602082029050602081019050919050565b600080fd5b6000610f3d610f3884610ef9565b610ede565b90508083825260208201905060208402830185811115610f6057610f5f610f25565b5b835b81811015610f895780610f758882610c2e565b845260208401935050602081019050610f62565b5050509392505050565b600082601f830112610fa857610fa7610e97565b5b8151610fb8848260208601610f2a565b91505092915050565b600060208284031215610fd757610fd6610ad3565b5b600082015167ffffffffffffffff811115610ff557610ff4610ad8565b5b61100184828501610f93565b91505092915050565b600081519050919050565b600082825260208201905092915050565b60005b83811015611044578082015181840152602081019050611029565b83811115611053576000848401525b50505050565b60006110648261100a565b61106e8185611015565b935061107e818560208601611026565b61108781610e9c565b840191505092915050565b600060408201905081810360008301526110ac8185611059565b90506110bb6020830184610bc3565b9392505050565b600060208201905081810360008301526110dc8184611059565b90509291505056fea2646970667358221220da911a44f30bf139bef70815a50c9cef2ad9d365e34ea80c66424b69f7917c8864736f6c634300080c0033",
  "linkReferences": {},
  "deployedLinkReferences": {}
}