{
  "_format": "hh-sol-artifact-1",
  "contractName": "FeesCollector",
  "sourceName": "contracts/FeesCollector.sol",
  "abi": [
    {
      "anonymous": false,
      "inputs": [
        {
          "indexed": true,
          "internalType": "address",
          "name": "previousOwner",
          "type": "address"
        },
        {
          "indexed": true,
          "internalType": "address",
          "name": "newOwner",
          "type": "address"
        }
      ],
      "name": "OwnershipTransferred",
      "type": "event"
    },
    {
      "anonymous": false,
      "inputs": [
        {
          "indexed": true,
          "internalType": "address",
          "name": "asset",
          "type": "address"
        },
        {
          "indexed": false,
          "internalType": "uint256",
          "name": "amount",
          "type": "uint256"
        },
        {
          "indexed": false,
          "internalType": "address",
          "name": "to",
          "type": "address"
        }
      ],
      "name": "Transfer",
      "type": "event"
    },
    {
      "stateMutability": "nonpayable",
      "type": "fallback"
    },
    {
      "inputs": [],
      "name": "owner",
      "outputs": [
        {
          "internalType": "address",
          "name": "",
          "type": "address"
        }
      ],
      "stateMutability": "view",
      "type": "function"
    },
    {
      "inputs": [],
      "name": "renounceOwnership",
      "outputs": [],
      "stateMutability": "nonpayable",
      "type": "function"
    },
    {
      "inputs": [
        {
          "components": [
            {
              "internalType": "contract IERC20",
              "name": "asset",
              "type": "address"
            },
            {
              "internalType": "address",
              "name": "to",
              "type": "address"
            }
          ],
          "internalType": "struct FeesCollector.TransferParams[]",
          "name": "transfers",
          "type": "tuple[]"
        }
      ],
      "name": "transferOut",
      "outputs": [],
      "stateMutability": "nonpayable",
      "type": "function"
    },
    {
      "inputs": [
        {
          "internalType": "address",
          "name": "newOwner",
          "type": "address"
        }
      ],
      "name": "transferOwnership",
      "outputs": [],
      "stateMutability": "nonpayable",
      "type": "function"
    },
    {
      "stateMutability": "payable",
      "type": "receive"
    }
  ],
  "bytecode": "0x608060405234801561001057600080fd5b5061002d61002261003260201b60201c565b61003a60201b60201c565b6100fe565b600033905090565b60008060009054906101000a900473ffffffffffffffffffffffffffffffffffffffff169050816000806101000a81548173ffffffffffffffffffffffffffffffffffffffff021916908373ffffffffffffffffffffffffffffffffffffffff1602179055508173ffffffffffffffffffffffffffffffffffffffff168173ffffffffffffffffffffffffffffffffffffffff167f8be0079c531659141344cd1fd0a4f28419497f9722a3daafe3b4186f6b6457e060405160405180910390a35050565b610fd38061010d6000396000f3fe6080604052600436106100435760003560e01c80634bae9f0914610059578063715018a6146100825780638da5cb5b14610099578063f2fde38b146100c45761004a565b3661004a57005b34801561005657600080fd5b50005b34801561006557600080fd5b50610080600480360381019061007b9190610885565b6100ed565b005b34801561008e57600080fd5b50610097610308565b005b3480156100a557600080fd5b506100ae61031c565b6040516100bb9190610913565b60405180910390f35b3480156100d057600080fd5b506100eb60048036038101906100e6919061095a565b610345565b005b6100f56103c9565b600060018383905061010791906109c0565b90506000805b828111610301576000858583818110610129576101286109f4565b5b90506040020160000160208101906101419190610a61565b90506000868684818110610158576101576109f4565b5b9050604002016020016020810190610170919061095a565b9050600073ffffffffffffffffffffffffffffffffffffffff168273ffffffffffffffffffffffffffffffffffffffff1614156101f6574793508073ffffffffffffffffffffffffffffffffffffffff166108fc859081150290604051600060405180830381858888f193505050501580156101f0573d6000803e3d6000fd5b5061029e565b8173ffffffffffffffffffffffffffffffffffffffff166370a08231306040518263ffffffff1660e01b815260040161022f9190610913565b602060405180830381865afa15801561024c573d6000803e3d6000fd5b505050506040513d601f19601f820116820180604052508101906102709190610aba565b935061029d81858473ffffffffffffffffffffffffffffffffffffffff166104479092919063ffffffff16565b5b8173ffffffffffffffffffffffffffffffffffffffff167f138dbc8474f748db86063dcef24cef1495bc73385a946f8d691128085e5ebec285836040516102e6929190610af6565b60405180910390a25050806102fa90610b1f565b905061010d565b5050505050565b6103106103c9565b61031a60006104cd565b565b60008060009054906101000a900473ffffffffffffffffffffffffffffffffffffffff16905090565b61034d6103c9565b600073ffffffffffffffffffffffffffffffffffffffff168173ffffffffffffffffffffffffffffffffffffffff1614156103bd576040517f08c379a00000000000000000000000000000000000000000000000000000000081526004016103b490610beb565b60405180910390fd5b6103c6816104cd565b50565b6103d1610591565b73ffffffffffffffffffffffffffffffffffffffff166103ef61031c565b73ffffffffffffffffffffffffffffffffffffffff1614610445576040517f08c379a000000000000000000000000000000000000000000000000000000000815260040161043c90610c57565b60405180910390fd5b565b6104c88363a9059cbb60e01b8484604051602401610466929190610c77565b604051602081830303815290604052907bffffffffffffffffffffffffffffffffffffffffffffffffffffffff19166020820180517bffffffffffffffffffffffffffffffffffffffffffffffffffffffff8381831617835250505050610599565b505050565b60008060009054906101000a900473ffffffffffffffffffffffffffffffffffffffff169050816000806101000a81548173ffffffffffffffffffffffffffffffffffffffff021916908373ffffffffffffffffffffffffffffffffffffffff1602179055508173ffffffffffffffffffffffffffffffffffffffff168173ffffffffffffffffffffffffffffffffffffffff167f8be0079c531659141344cd1fd0a4f28419497f9722a3daafe3b4186f6b6457e060405160405180910390a35050565b600033905090565b60006105fb826040518060400160405280602081526020017f5361666545524332303a206c6f772d6c6576656c2063616c6c206661696c65648152508573ffffffffffffffffffffffffffffffffffffffff166106609092919063ffffffff16565b905060008151111561065b578080602001905181019061061b9190610cd8565b61065a576040517f08c379a000000000000000000000000000000000000000000000000000000000815260040161065190610d77565b60405180910390fd5b5b505050565b606061066f8484600085610678565b90509392505050565b6060824710156106bd576040517f08c379a00000000000000000000000000000000000000000000000000000000081526004016106b490610e09565b60405180910390fd5b6106c68561078c565b610705576040517f08c379a00000000000000000000000000000000000000000000000000000000081526004016106fc90610e75565b60405180910390fd5b6000808673ffffffffffffffffffffffffffffffffffffffff16858760405161072e9190610f0f565b60006040518083038185875af1925050503d806000811461076b576040519150601f19603f3d011682016040523d82523d6000602084013e610770565b606091505b50915091506107808282866107af565b92505050949350505050565b6000808273ffffffffffffffffffffffffffffffffffffffff163b119050919050565b606083156107bf5782905061080f565b6000835111156107d25782518084602001fd5b816040517f08c379a00000000000000000000000000000000000000000000000000000000081526004016108069190610f7b565b60405180910390fd5b9392505050565b600080fd5b600080fd5b600080fd5b600080fd5b600080fd5b60008083601f84011261084557610844610820565b5b8235905067ffffffffffffffff81111561086257610861610825565b5b60208301915083604082028301111561087e5761087d61082a565b5b9250929050565b6000806020838503121561089c5761089b610816565b5b600083013567ffffffffffffffff8111156108ba576108b961081b565b5b6108c68582860161082f565b92509250509250929050565b600073ffffffffffffffffffffffffffffffffffffffff82169050919050565b60006108fd826108d2565b9050919050565b61090d816108f2565b82525050565b60006020820190506109286000830184610904565b92915050565b610937816108f2565b811461094257600080fd5b50565b6000813590506109548161092e565b92915050565b6000602082840312156109705761096f610816565b5b600061097e84828501610945565b91505092915050565b6000819050919050565b7f4e487b7100000000000000000000000000000000000000000000000000000000600052601160045260246000fd5b60006109cb82610987565b91506109d683610987565b9250828210156109e9576109e8610991565b5b828203905092915050565b7f4e487b7100000000000000000000000000000000000000000000000000000000600052603260045260246000fd5b6000610a2e826108f2565b9050919050565b610a3e81610a23565b8114610a4957600080fd5b50565b600081359050610a5b81610a35565b92915050565b600060208284031215610a7757610a76610816565b5b6000610a8584828501610a4c565b91505092915050565b610a9781610987565b8114610aa257600080fd5b50565b600081519050610ab481610a8e565b92915050565b600060208284031215610ad057610acf610816565b5b6000610ade84828501610aa5565b91505092915050565b610af081610987565b82525050565b6000604082019050610b0b6000830185610ae7565b610b186020830184610904565b9392505050565b6000610b2a82610987565b91507fffffffffffffffffffffffffffffffffffffffffffffffffffffffffffffffff821415610b5d57610b5c610991565b5b600182019050919050565b600082825260208201905092915050565b7f4f776e61626c653a206e6577206f776e657220697320746865207a65726f206160008201527f6464726573730000000000000000000000000000000000000000000000000000602082015250565b6000610bd5602683610b68565b9150610be082610b79565b604082019050919050565b60006020820190508181036000830152610c0481610bc8565b9050919050565b7f4f776e61626c653a2063616c6c6572206973206e6f7420746865206f776e6572600082015250565b6000610c41602083610b68565b9150610c4c82610c0b565b602082019050919050565b60006020820190508181036000830152610c7081610c34565b9050919050565b6000604082019050610c8c6000830185610904565b610c996020830184610ae7565b9392505050565b60008115159050919050565b610cb581610ca0565b8114610cc057600080fd5b50565b600081519050610cd281610cac565b92915050565b600060208284031215610cee57610ced610816565b5b6000610cfc84828501610cc3565b91505092915050565b7f5361666545524332303a204552433230206f7065726174696f6e20646964206e60008201527f6f74207375636365656400000000000000000000000000000000000000000000602082015250565b6000610d61602a83610b68565b9150610d6c82610d05565b604082019050919050565b60006020820190508181036000830152610d9081610d54565b9050919050565b7f416464726573733a20696e73756666696369656e742062616c616e636520666f60008201527f722063616c6c0000000000000000000000000000000000000000000000000000602082015250565b6000610df3602683610b68565b9150610dfe82610d97565b604082019050919050565b60006020820190508181036000830152610e2281610de6565b9050919050565b7f416464726573733a2063616c6c20746f206e6f6e2d636f6e7472616374000000600082015250565b6000610e5f601d83610b68565b9150610e6a82610e29565b602082019050919050565b60006020820190508181036000830152610e8e81610e52565b9050919050565b600081519050919050565b600081905092915050565b60005b83811015610ec9578082015181840152602081019050610eae565b83811115610ed8576000848401525b50505050565b6000610ee982610e95565b610ef38185610ea0565b9350610f03818560208601610eab565b80840191505092915050565b6000610f1b8284610ede565b915081905092915050565b600081519050919050565b6000601f19601f8301169050919050565b6000610f4d82610f26565b610f578185610b68565b9350610f67818560208601610eab565b610f7081610f31565b840191505092915050565b60006020820190508181036000830152610f958184610f42565b90509291505056fea264697066735822122018a307e96d9994ad5a7b3aee15062955898d63624694881b03e34c68c2cdaee764736f6c634300080c0033",
  "linkReferences": {},
  "deployedLinkReferences": {}
}