{
  "_format": "hh-sol-artifact-1",
  "contractName": "LinkVault",
  "sourceName": "contracts/LinkVault.sol",
  "abi": [
    {
      "inputs": [
        {
          "internalType": "string",
          "name": "name_",
          "type": "string"
        },
        {
          "internalType": "address",
          "name": "swapper_",
          "type": "address"
        },
        {
          "internalType": "address",
          "name": "feesCollector_",
          "type": "address"
        },
        {
          "internalType": "address",
          "name": "configProvider_",
          "type": "address"
        }
      ],
      "stateMutability": "nonpayable",
      "type": "constructor"
    },
    {
      "anonymous": false,
      "inputs": [
        {
          "indexed": true,
          "internalType": "address",
          "name": "pool",
          "type": "address"
        },
        {
          "indexed": true,
          "internalType": "address",
          "name": "asset",
          "type": "address"
        },
        {
          "indexed": false,
          "internalType": "uint256",
          "name": "amount",
          "type": "uint256"
        }
      ],
      "name": "Borrow",
      "type": "event"
    },
    {
      "anonymous": false,
      "inputs": [
        {
          "indexed": true,
          "internalType": "address",
          "name": "previousOwner",
          "type": "address"
        },
        {
          "indexed": true,
          "internalType": "address",
          "name": "newOwner",
          "type": "address"
        }
      ],
      "name": "OwnershipTransferred",
      "type": "event"
    },
    {
      "anonymous": false,
      "inputs": [
        {
          "indexed": true,
          "internalType": "address",
          "name": "pool",
          "type": "address"
        },
        {
          "indexed": true,
          "internalType": "address",
          "name": "asset",
          "type": "address"
        },
        {
          "indexed": false,
          "internalType": "uint256",
          "name": "amount",
          "type": "uint256"
        }
      ],
      "name": "Repay",
      "type": "event"
    },
    {
      "anonymous": false,
      "inputs": [
        {
          "indexed": true,
          "internalType": "address",
          "name": "pool",
          "type": "address"
        },
        {
          "indexed": true,
          "internalType": "address",
          "name": "asset",
          "type": "address"
        },
        {
          "indexed": false,
          "internalType": "uint256",
          "name": "amount",
          "type": "uint256"
        }
      ],
      "name": "Supply",
      "type": "event"
    },
    {
      "anonymous": false,
      "inputs": [
        {
          "indexed": true,
          "internalType": "address",
          "name": "pool",
          "type": "address"
        },
        {
          "indexed": true,
          "internalType": "address",
          "name": "asset",
          "type": "address"
        },
        {
          "indexed": false,
          "internalType": "uint256",
          "name": "amount",
          "type": "uint256"
        }
      ],
      "name": "Withdraw",
      "type": "event"
    },
    {
      "inputs": [
        {
          "components": [
            {
              "internalType": "address",
              "name": "pool",
              "type": "address"
            },
            {
              "internalType": "address",
              "name": "asset",
              "type": "address"
            },
            {
              "internalType": "uint256",
              "name": "amount",
              "type": "uint256"
            },
            {
              "internalType": "address",
              "name": "controller",
              "type": "address"
            }
          ],
          "internalType": "struct IPoolDelegate.CallParams",
          "name": "params",
          "type": "tuple"
        }
      ],
      "name": "borrow",
      "outputs": [],
      "stateMutability": "nonpayable",
      "type": "function"
    },
    {
      "inputs": [
        {
          "components": [
            {
              "internalType": "address",
              "name": "pool",
              "type": "address"
            },
            {
              "internalType": "address",
              "name": "asset",
              "type": "address"
            },
            {
              "internalType": "uint256",
              "name": "amount",
              "type": "uint256"
            },
            {
              "internalType": "address",
              "name": "controller",
              "type": "address"
            }
          ],
          "internalType": "struct IPoolDelegate.CallParams",
          "name": "params",
          "type": "tuple"
        }
      ],
      "name": "borrowed",
      "outputs": [
        {
          "internalType": "uint256",
          "name": "",
          "type": "uint256"
        }
      ],
      "stateMutability": "view",
      "type": "function"
    },
    {
      "inputs": [
        {
          "internalType": "bytes",
          "name": "data",
          "type": "bytes"
        }
      ],
      "name": "checkData",
      "outputs": [],
      "stateMutability": "view",
      "type": "function"
    },
    {
      "inputs": [],
      "name": "currentDebtAsset",
      "outputs": [
        {
          "internalType": "address",
          "name": "",
          "type": "address"
        }
      ],
      "stateMutability": "view",
      "type": "function"
    },
    {
      "inputs": [],
      "name": "currentDebtPool",
      "outputs": [
        {
          "internalType": "address",
          "name": "",
          "type": "address"
        }
      ],
      "stateMutability": "view",
      "type": "function"
    },
    {
      "inputs": [
        {
          "internalType": "bytes",
          "name": "data",
          "type": "bytes"
        }
      ],
      "name": "executeSwap",
      "outputs": [],
      "stateMutability": "nonpayable",
      "type": "function"
    },
    {
      "inputs": [
        {
          "components": [
            {
              "internalType": "address",
              "name": "pool",
              "type": "address"
            },
            {
              "internalType": "address",
              "name": "asset",
              "type": "address"
            },
            {
              "internalType": "uint256",
              "name": "amount",
              "type": "uint256"
            },
            {
              "internalType": "address",
              "name": "controller",
              "type": "address"
            }
          ],
          "internalType": "struct IPoolDelegate.CallParams",
          "name": "params",
          "type": "tuple"
        }
      ],
      "name": "getExcess",
      "outputs": [
        {
          "internalType": "uint256",
          "name": "",
          "type": "uint256"
        }
      ],
      "stateMutability": "view",
      "type": "function"
    },
    {
      "inputs": [],
      "name": "name",
      "outputs": [
        {
          "internalType": "string",
          "name": "",
          "type": "string"
        }
      ],
      "stateMutability": "view",
      "type": "function"
    },
    {
      "inputs": [],
      "name": "owner",
      "outputs": [
        {
          "internalType": "address",
          "name": "",
          "type": "address"
        }
      ],
      "stateMutability": "view",
      "type": "function"
    },
    {
      "inputs": [],
      "name": "renounceOwnership",
      "outputs": [],
      "stateMutability": "nonpayable",
      "type": "function"
    },
    {
      "inputs": [
        {
          "components": [
            {
              "internalType": "address",
              "name": "pool",
              "type": "address"
            },
            {
              "internalType": "address",
              "name": "asset",
              "type": "address"
            },
            {
              "internalType": "uint256",
              "name": "amount",
              "type": "uint256"
            },
            {
              "internalType": "address",
              "name": "controller",
              "type": "address"
            }
          ],
          "internalType": "struct IPoolDelegate.CallParams",
          "name": "params",
          "type": "tuple"
        }
      ],
      "name": "repay",
      "outputs": [],
      "stateMutability": "payable",
      "type": "function"
    },
    {
      "inputs": [
        {
          "internalType": "address[]",
          "name": "assets",
          "type": "address[]"
        }
      ],
      "name": "requestSwaps",
      "outputs": [],
      "stateMutability": "nonpayable",
      "type": "function"
    },
    {
      "inputs": [
        {
          "internalType": "string",
          "name": "name_",
          "type": "string"
        }
      ],
      "name": "setName",
      "outputs": [],
      "stateMutability": "nonpayable",
      "type": "function"
    },
    {
      "inputs": [
        {
          "components": [
            {
              "internalType": "address",
              "name": "pool",
              "type": "address"
            },
            {
              "internalType": "address",
              "name": "asset",
              "type": "address"
            },
            {
              "internalType": "uint256",
              "name": "amount",
              "type": "uint256"
            },
            {
              "internalType": "address",
              "name": "controller",
              "type": "address"
            }
          ],
          "internalType": "struct IPoolDelegate.CallParams",
          "name": "params",
          "type": "tuple"
        }
      ],
      "name": "supplied",
      "outputs": [
        {
          "internalType": "uint256",
          "name": "",
          "type": "uint256"
        }
      ],
      "stateMutability": "view",
      "type": "function"
    },
    {
      "inputs": [
        {
          "components": [
            {
              "internalType": "address",
              "name": "pool",
              "type": "address"
            },
            {
              "internalType": "address",
              "name": "asset",
              "type": "address"
            },
            {
              "internalType": "uint256",
              "name": "amount",
              "type": "uint256"
            },
            {
              "internalType": "address",
              "name": "controller",
              "type": "address"
            }
          ],
          "internalType": "struct IPoolDelegate.CallParams",
          "name": "params",
          "type": "tuple"
        }
      ],
      "name": "supply",
      "outputs": [],
      "stateMutability": "payable",
      "type": "function"
    },
    {
      "inputs": [
        {
          "internalType": "address",
          "name": "asset",
          "type": "address"
        },
        {
          "internalType": "uint256",
          "name": "amount",
          "type": "uint256"
        },
        {
          "internalType": "address",
          "name": "to",
          "type": "address"
        }
      ],
      "name": "transfer",
      "outputs": [],
      "stateMutability": "nonpayable",
      "type": "function"
    },
    {
      "inputs": [
        {
          "internalType": "address",
          "name": "newOwner",
          "type": "address"
        }
      ],
      "name": "transferOwnership",
      "outputs": [],
      "stateMutability": "nonpayable",
      "type": "function"
    },
    {
      "inputs": [
        {
          "components": [
            {
              "internalType": "address",
              "name": "pool",
              "type": "address"
            },
            {
              "internalType": "address",
              "name": "asset",
              "type": "address"
            },
            {
              "internalType": "uint256",
              "name": "amount",
              "type": "uint256"
            },
            {
              "internalType": "address",
              "name": "controller",
              "type": "address"
            }
          ],
          "internalType": "struct IPoolDelegate.CallParams",
          "name": "params",
          "type": "tuple"
        }
      ],
      "name": "withdraw",
      "outputs": [],
      "stateMutability": "nonpayable",
      "type": "function"
    },
    {
      "inputs": [
        {
          "components": [
            {
              "internalType": "address",
              "name": "pool",
              "type": "address"
            },
            {
              "internalType": "address",
              "name": "asset",
              "type": "address"
            },
            {
              "internalType": "uint256",
              "name": "amount",
              "type": "uint256"
            },
            {
              "internalType": "address",
              "name": "controller",
              "type": "address"
            }
          ],
          "internalType": "struct IPoolDelegate.CallParams[]",
          "name": "params",
          "type": "tuple[]"
        }
      ],
      "name": "withdrawExcesses",
      "outputs": [],
      "stateMutability": "nonpayable",
      "type": "function"
    }
  ],
  "bytecode": "0x60806040523480156200001157600080fd5b5060405162004849380380620048498339818101604052810190620000379190620004c7565b8383838380846200005d620000516200014960201b60201c565b6200015160201b60201c565b81600560006101000a81548173ffffffffffffffffffffffffffffffffffffffff021916908373ffffffffffffffffffffffffffffffffffffffff1602179055508060019080519060200190620000b692919062000215565b50505082600660006101000a81548173ffffffffffffffffffffffffffffffffffffffff021916908373ffffffffffffffffffffffffffffffffffffffff16021790555081600760006101000a81548173ffffffffffffffffffffffffffffffffffffffff021916908373ffffffffffffffffffffffffffffffffffffffff1602179055505050505050505050620005bd565b600033905090565b60008060009054906101000a900473ffffffffffffffffffffffffffffffffffffffff169050816000806101000a81548173ffffffffffffffffffffffffffffffffffffffff021916908373ffffffffffffffffffffffffffffffffffffffff1602179055508173ffffffffffffffffffffffffffffffffffffffff168173ffffffffffffffffffffffffffffffffffffffff167f8be0079c531659141344cd1fd0a4f28419497f9722a3daafe3b4186f6b6457e060405160405180910390a35050565b828054620002239062000587565b90600052602060002090601f01602090048101928262000247576000855562000293565b82601f106200026257805160ff191683800117855562000293565b8280016001018555821562000293579182015b828111156200029257825182559160200191906001019062000275565b5b509050620002a29190620002a6565b5090565b5b80821115620002c1576000816000905550600101620002a7565b5090565b6000604051905090565b600080fd5b600080fd5b600080fd5b600080fd5b6000601f19601f8301169050919050565b7f4e487b7100000000000000000000000000000000000000000000000000000000600052604160045260246000fd5b6200032e82620002e3565b810181811067ffffffffffffffff8211171562000350576200034f620002f4565b5b80604052505050565b600062000365620002c5565b905062000373828262000323565b919050565b600067ffffffffffffffff821115620003965762000395620002f4565b5b620003a182620002e3565b9050602081019050919050565b60005b83811015620003ce578082015181840152602081019050620003b1565b83811115620003de576000848401525b50505050565b6000620003fb620003f58462000378565b62000359565b9050828152602081018484840111156200041a5762000419620002de565b5b62000427848285620003ae565b509392505050565b600082601f830112620004475762000446620002d9565b5b815162000459848260208601620003e4565b91505092915050565b600073ffffffffffffffffffffffffffffffffffffffff82169050919050565b60006200048f8262000462565b9050919050565b620004a18162000482565b8114620004ad57600080fd5b50565b600081519050620004c18162000496565b92915050565b60008060008060808587031215620004e457620004e3620002cf565b5b600085015167ffffffffffffffff811115620005055762000504620002d4565b5b62000513878288016200042f565b94505060206200052687828801620004b0565b93505060406200053987828801620004b0565b92505060606200054c87828801620004b0565b91505092959194509250565b7f4e487b7100000000000000000000000000000000000000000000000000000000600052602260045260246000fd5b60006002820490506001821680620005a057607f821691505b60208210811415620005b757620005b662000558565b5b50919050565b61427c80620005cd6000396000f3fe6080604052600436106101145760003560e01c80638da5cb5b116100a0578063d4d4ed0011610064578063d4d4ed0014610366578063dbba0f01146103a3578063e74f6ff6146103cc578063ef33f95d146103f7578063f2fde38b1461041357610114565b80638da5cb5b14610297578063985f61a1146102c25780639d0506ae146102eb5780639e2578ed14610314578063c47f00271461033d57610114565b80635b8a60c4116100e75780635b8a60c4146101b45780635ba34b53146101dd578063715018a61461021a57806375b783191461023157806388dab3391461026e57610114565b806305e4833a1461011957806306fdde03146101355780633eea1ef3146101605780635acb354a1461018b575b600080fd5b610133600480360381019061012e9190612fa3565b61043c565b005b34801561014157600080fd5b5061014a6105b0565b6040516101579190613058565b60405180910390f35b34801561016c57600080fd5b50610175610642565b6040516101829190613089565b60405180910390f35b34801561019757600080fd5b506101b260048036038101906101ad91906130c8565b61066c565b005b3480156101c057600080fd5b506101db60048036038101906101d69190612fa3565b610a05565b005b3480156101e957600080fd5b5061020460048036038101906101ff9190612fa3565b610bdc565b6040516102119190613104565b60405180910390f35b34801561022657600080fd5b5061022f610dae565b005b34801561023d57600080fd5b5061025860048036038101906102539190612fa3565b610dc2565b6040516102659190613104565b60405180910390f35b34801561027a57600080fd5b50610295600480360381019061029091906131ec565b610f94565b005b3480156102a357600080fd5b506102ac611024565b6040516102b99190613089565b60405180910390f35b3480156102ce57600080fd5b506102e960048036038101906102e49190613290565b61104d565b005b3480156102f757600080fd5b50610312600480360381019061030d9190613290565b61137d565b005b34801561032057600080fd5b5061033b60048036038101906103369190613333565b6114ae565b005b34801561034957600080fd5b50610364600480360381019061035f91906133d6565b611822565b005b34801561037257600080fd5b5061038d60048036038101906103889190612fa3565b611840565b60405161039a9190613104565b60405180910390f35b3480156103af57600080fd5b506103ca60048036038101906103c59190613423565b6118fc565b005b3480156103d857600080fd5b506103e1611a15565b6040516103ee9190613089565b60405180910390f35b610411600480360381019061040c91906130c8565b611a3f565b005b34801561041f57600080fd5b5061043a60048036038101906104359190613476565b611e12565b005b610444611e96565b6000816020015173ffffffffffffffffffffffffffffffffffffffff166370a08231306040518263ffffffff1660e01b81526004016104839190613089565b602060405180830381865afa1580156104a0573d6000803e3d6000fd5b505050506040513d601f19601f820116820180604052508101906104c491906134b8565b905060006104d183610bdc565b9050826040015181106104e85782604001516104ea565b805b8360400181815250506105416040518060400160405280601081526020017f746f207472616e73666572203d2025730000000000000000000000000000000081525083856040015161053c9190613514565b611f14565b82604001518210156105a25761055a8360200151611fb0565b6105a1610565612049565b308486604001516105769190613514565b866020015173ffffffffffffffffffffffffffffffffffffffff16612051909392919063ffffffff16565b5b6105ab836120da565b505050565b6060600180546105bf90613577565b80601f01602080910402602001604051908101604052809291908181526020018280546105eb90613577565b80156106385780601f1061060d57610100808354040283529160200191610638565b820191906000526020600020905b81548152906001019060200180831161061b57829003601f168201915b5050505050905090565b6000600360009054906101000a900473ffffffffffffffffffffffffffffffffffffffff16905090565b610674611e96565b600073ffffffffffffffffffffffffffffffffffffffff16600360009054906101000a900473ffffffffffffffffffffffffffffffffffffffff1673ffffffffffffffffffffffffffffffffffffffff1614610705576040517f08c379a00000000000000000000000000000000000000000000000000000000081526004016106fc906135f5565b60405180910390fd5b600073ffffffffffffffffffffffffffffffffffffffff16600460009054906101000a900473ffffffffffffffffffffffffffffffffffffffff1673ffffffffffffffffffffffffffffffffffffffff1614610796576040517f08c379a000000000000000000000000000000000000000000000000000000000815260040161078d906135f5565b60405180910390fd5b8060200160208101906107a99190613476565b600460006101000a81548173ffffffffffffffffffffffffffffffffffffffff021916908373ffffffffffffffffffffffffffffffffffffffff1602179055508060000160208101906107fc9190613476565b600360006101000a81548173ffffffffffffffffffffffffffffffffffffffff021916908373ffffffffffffffffffffffffffffffffffffffff1602179055506000600560009054906101000a900473ffffffffffffffffffffffffffffffffffffffff1673ffffffffffffffffffffffffffffffffffffffff16637e8f3aed83600001602081019061088f9190613476565b6040518263ffffffff1660e01b81526004016108ab9190613089565b602060405180830381865afa1580156108c8573d6000803e3d6000fd5b505050506040513d601f19601f820116820180604052508101906108ec919061362a565b90506000635acb354a60e01b836040516024016109099190613718565b604051602081830303815290604052907bffffffffffffffffffffffffffffffffffffffffffffffffffffffff19166020820180517bffffffffffffffffffffffffffffffffffffffffffffffffffffffff83818316178352505050509050610972828261242b565b508260200160208101906109869190613476565b73ffffffffffffffffffffffffffffffffffffffff168360000160208101906109af9190613476565b73ffffffffffffffffffffffffffffffffffffffff167f312a5e5e1079f5dda4e95dbbd0b908b291fd5b992ef22073643ab691572c5b5285604001356040516109f89190613104565b60405180910390a3505050565b610a0d611e96565b610a1681612458565b600060026000836000015173ffffffffffffffffffffffffffffffffffffffff1673ffffffffffffffffffffffffffffffffffffffff1681526020019081526020016000206000836020015173ffffffffffffffffffffffffffffffffffffffff1673ffffffffffffffffffffffffffffffffffffffff16815260200190815260200160002054905080826040015111610abf57816040015181610aba9190613514565b610ac2565b60005b60026000846000015173ffffffffffffffffffffffffffffffffffffffff1673ffffffffffffffffffffffffffffffffffffffff1681526020019081526020016000206000846020015173ffffffffffffffffffffffffffffffffffffffff1673ffffffffffffffffffffffffffffffffffffffff16815260200190815260200160002081905550816020015173ffffffffffffffffffffffffffffffffffffffff1663a9059cbb610b72611024565b84604001516040518363ffffffff1660e01b8152600401610b94929190613733565b6020604051808303816000875af1158015610bb3573d6000803e3d6000fd5b505050506040513d601f19601f82011682018060405250810190610bd79190613794565b505050565b600080600560009054906101000a900473ffffffffffffffffffffffffffffffffffffffff1673ffffffffffffffffffffffffffffffffffffffff1663c9b1f1fb846000015185602001516040518363ffffffff1660e01b8152600401610c449291906137c1565b602060405180830381865afa158015610c61573d6000803e3d6000fd5b505050506040513d601f19601f82011682018060405250810190610c85919061362a565b90506000600560009054906101000a900473ffffffffffffffffffffffffffffffffffffffff1673ffffffffffffffffffffffffffffffffffffffff16637e8f3aed85600001516040518263ffffffff1660e01b8152600401610ce89190613089565b602060405180830381865afa158015610d05573d6000803e3d6000fd5b505050506040513d601f19601f82011682018060405250810190610d29919061362a565b90508073ffffffffffffffffffffffffffffffffffffffff16630941cb3d836040518263ffffffff1660e01b8152600401610d649190613089565b602060405180830381865afa158015610d81573d6000803e3d6000fd5b505050506040513d601f19601f82011682018060405250810190610da591906134b8565b92505050919050565b610db6611e96565b610dc06000612625565b565b600080600560009054906101000a900473ffffffffffffffffffffffffffffffffffffffff1673ffffffffffffffffffffffffffffffffffffffff1663271dc945846000015185602001516040518363ffffffff1660e01b8152600401610e2a9291906137c1565b602060405180830381865afa158015610e47573d6000803e3d6000fd5b505050506040513d601f19601f82011682018060405250810190610e6b919061362a565b90506000600560009054906101000a900473ffffffffffffffffffffffffffffffffffffffff1673ffffffffffffffffffffffffffffffffffffffff16637e8f3aed85600001516040518263ffffffff1660e01b8152600401610ece9190613089565b602060405180830381865afa158015610eeb573d6000803e3d6000fd5b505050506040513d601f19601f82011682018060405250810190610f0f919061362a565b90508073ffffffffffffffffffffffffffffffffffffffff1663155a7205836040518263ffffffff1660e01b8152600401610f4a9190613089565b602060405180830381865afa158015610f67573d6000803e3d6000fd5b505050506040513d601f19601f82011682018060405250810190610f8b91906134b8565b92505050919050565b60008151905060005b8181101561101f57610fc8838281518110610fbb57610fba6137ea565b5b6020026020010151611840565b838281518110610fdb57610fda6137ea565b5b6020026020010151604001818152505061100e838281518110611001576110006137ea565b5b6020026020010151612458565b8061101890613819565b9050610f9d565b505050565b60008060009054906101000a900473ffffffffffffffffffffffffffffffffffffffff16905090565b611057828261137d565b6000600460009054906101000a900473ffffffffffffffffffffffffffffffffffffffff1673ffffffffffffffffffffffffffffffffffffffff166370a08231306040518263ffffffff1660e01b81526004016110b49190613089565b602060405180830381865afa1580156110d1573d6000803e3d6000fd5b505050506040513d601f19601f820116820180604052508101906110f591906134b8565b90506111f483838080601f016020809104026020016040519081016040528093929190818152602001838380828437600081840152601f19601f82011690508083019250505050505050600660009054906101000a900473ffffffffffffffffffffffffffffffffffffffff1673ffffffffffffffffffffffffffffffffffffffff1663245a7bfc6040518163ffffffff1660e01b8152600401602060405180830381865afa1580156111ac573d6000803e3d6000fd5b505050506040513d601f19601f820116820180604052508101906111d0919061362a565b73ffffffffffffffffffffffffffffffffffffffff166126e990919063ffffffff16565b506000600460009054906101000a900473ffffffffffffffffffffffffffffffffffffffff1673ffffffffffffffffffffffffffffffffffffffff166370a08231306040518263ffffffff1660e01b81526004016112529190613089565b602060405180830381865afa15801561126f573d6000803e3d6000fd5b505050506040513d601f19601f8201168201806040525081019061129391906134b8565b9050600082826112a39190613514565b9050600081116112b257600080fd5b60006112bd82612733565b905060006040518060800160405280600360009054906101000a900473ffffffffffffffffffffffffffffffffffffffff1673ffffffffffffffffffffffffffffffffffffffff168152602001600460009054906101000a900473ffffffffffffffffffffffffffffffffffffffff1673ffffffffffffffffffffffffffffffffffffffff168152602001838152602001600073ffffffffffffffffffffffffffffffffffffffff168152509050611374816120da565b50505050505050565b6000828260049080926113929392919061386c565b81019061139f9190613a80565b509150503073ffffffffffffffffffffffffffffffffffffffff16816060015173ffffffffffffffffffffffffffffffffffffffff1614611415576040517f08c379a000000000000000000000000000000000000000000000000000000000815260040161140c90613b57565b60405180910390fd5b600460009054906101000a900473ffffffffffffffffffffffffffffffffffffffff1673ffffffffffffffffffffffffffffffffffffffff16816020015173ffffffffffffffffffffffffffffffffffffffff16146114a9576040517f08c379a00000000000000000000000000000000000000000000000000000000081526004016114a090613bc3565b60405180910390fd5b505050565b600082829050905060005b8181101561181c5760008484838181106114d6576114d56137ea565b5b90506020020160208101906114eb9190613476565b73ffffffffffffffffffffffffffffffffffffffff166370a08231306040518263ffffffff1660e01b81526004016115239190613089565b602060405180830381865afa158015611540573d6000803e3d6000fd5b505050506040513d601f19601f8201168201806040525081019061156491906134b8565b9050600060405180604001604052803073ffffffffffffffffffffffffffffffffffffffff16815260200163985f61a160e01b7bffffffffffffffffffffffffffffffffffffffffffffffffffffffff1916815250905060006040518060e001604052808888878181106115db576115da6137ea565b5b90506020020160208101906115f09190613476565b73ffffffffffffffffffffffffffffffffffffffff168152602001600460009054906101000a900473ffffffffffffffffffffffffffffffffffffffff1673ffffffffffffffffffffffffffffffffffffffff1681526020018481526020013073ffffffffffffffffffffffffffffffffffffffff168152602001600581526020013073ffffffffffffffffffffffffffffffffffffffff168152602001600115158152509050611779600660009054906101000a900473ffffffffffffffffffffffffffffffffffffffff1673ffffffffffffffffffffffffffffffffffffffff1663245a7bfc6040518163ffffffff1660e01b8152600401602060405180830381865afa158015611707573d6000803e3d6000fd5b505050506040513d601f19601f8201168201806040525081019061172b919061362a565b8489898881811061173f5761173e6137ea565b5b90506020020160208101906117549190613476565b73ffffffffffffffffffffffffffffffffffffffff1661282c9092919063ffffffff16565b600660009054906101000a900473ffffffffffffffffffffffffffffffffffffffff1673ffffffffffffffffffffffffffffffffffffffff16639547c9d783836040518363ffffffff1660e01b81526004016117d6929190613cea565b600060405180830381600087803b1580156117f057600080fd5b505af1158015611804573d6000803e3d6000fd5b505050505050508061181590613819565b90506114b9565b50505050565b61182a611e96565b81816001919061183b929190612d4a565b505050565b60008061184c83610dc2565b9050600060026000856000015173ffffffffffffffffffffffffffffffffffffffff1673ffffffffffffffffffffffffffffffffffffffff1681526020019081526020016000206000856020015173ffffffffffffffffffffffffffffffffffffffff1673ffffffffffffffffffffffffffffffffffffffff168152602001908152602001600020549050808210156118e65760006118f3565b80826118f29190613514565b5b92505050919050565b611904611e96565b60008373ffffffffffffffffffffffffffffffffffffffff166370a08231306040518263ffffffff1660e01b815260040161193f9190613089565b602060405180830381865afa15801561195c573d6000803e3d6000fd5b505050506040513d601f19601f8201168201806040525081019061198091906134b8565b90508373ffffffffffffffffffffffffffffffffffffffff1663a9059cbb838386116119ac57856119ae565b835b6040518363ffffffff1660e01b81526004016119cb929190613733565b6020604051808303816000875af11580156119ea573d6000803e3d6000fd5b505050506040513d601f19601f82011682018060405250810190611a0e9190613794565b5050505050565b6000600460009054906101000a900473ffffffffffffffffffffffffffffffffffffffff16905090565b611a47611e96565b6000816020016020810190611a5c9190613476565b73ffffffffffffffffffffffffffffffffffffffff166370a08231306040518263ffffffff1660e01b8152600401611a949190613089565b602060405180830381865afa158015611ab1573d6000803e3d6000fd5b505050506040513d601f19601f82011682018060405250810190611ad591906134b8565b90508160400135811015611b8d57816020016020810190611af69190613476565b73ffffffffffffffffffffffffffffffffffffffff166323b872dd611b19612049565b30848660400135611b2a9190613514565b6040518463ffffffff1660e01b8152600401611b4893929190613d14565b6020604051808303816000875af1158015611b67573d6000803e3d6000fd5b505050506040513d601f19601f82011682018060405250810190611b8b9190613794565b505b816040013560026000846000016020810190611ba99190613476565b73ffffffffffffffffffffffffffffffffffffffff1673ffffffffffffffffffffffffffffffffffffffff1681526020019081526020016000206000846020016020810190611bf89190613476565b73ffffffffffffffffffffffffffffffffffffffff1673ffffffffffffffffffffffffffffffffffffffff1681526020019081526020016000206000828254611c419190613d4b565b925050819055506000600560009054906101000a900473ffffffffffffffffffffffffffffffffffffffff1673ffffffffffffffffffffffffffffffffffffffff16637e8f3aed846000016020810190611c9b9190613476565b6040518263ffffffff1660e01b8152600401611cb79190613089565b602060405180830381865afa158015611cd4573d6000803e3d6000fd5b505050506040513d601f19601f82011682018060405250810190611cf8919061362a565b9050600063ef33f95d60e01b84604051602401611d159190613718565b604051602081830303815290604052907bffffffffffffffffffffffffffffffffffffffffffffffffffffffff19166020820180517bffffffffffffffffffffffffffffffffffffffffffffffffffffffff83818316178352505050509050611d7e828261242b565b50836020016020810190611d929190613476565b73ffffffffffffffffffffffffffffffffffffffff16846000016020810190611dbb9190613476565b73ffffffffffffffffffffffffffffffffffffffff167fd1cf3d156d5f8f0d50f6c122ed609cec09d35c9b9fb3fff6ea0959134dae424e8660400135604051611e049190613104565b60405180910390a350505050565b611e1a611e96565b600073ffffffffffffffffffffffffffffffffffffffff168173ffffffffffffffffffffffffffffffffffffffff161415611e8a576040517f08c379a0000000000000000000000000000000000000000000000000000000008152600401611e8190613e13565b60405180910390fd5b611e9381612625565b50565b611e9e612049565b73ffffffffffffffffffffffffffffffffffffffff16611ebc611024565b73ffffffffffffffffffffffffffffffffffffffff1614611f12576040517f08c379a0000000000000000000000000000000000000000000000000000000008152600401611f0990613e7f565b60405180910390fd5b565b611fac8282604051602401611f2a929190613e9f565b6040516020818303038152906040527f9710a9d0000000000000000000000000000000000000000000000000000000007bffffffffffffffffffffffffffffffffffffffffffffffffffffffff19166020820180517bffffffffffffffffffffffffffffffffffffffffffffffffffffffff838183161783525050505061293e565b5050565b61204681604051602401611fc49190613089565b6040516020818303038152906040527f2c2ecbc2000000000000000000000000000000000000000000000000000000007bffffffffffffffffffffffffffffffffffffffffffffffffffffffff19166020820180517bffffffffffffffffffffffffffffffffffffffffffffffffffffffff838183161783525050505061293e565b50565b600033905090565b6120d4846323b872dd60e01b85858560405160240161207293929190613d14565b604051602081830303815290604052907bffffffffffffffffffffffffffffffffffffffffffffffffffffffff19166020820180517bffffffffffffffffffffffffffffffffffffffffffffffffffffffff8381831617835250505050612967565b50505050565b600073ffffffffffffffffffffffffffffffffffffffff16600360009054906101000a900473ffffffffffffffffffffffffffffffffffffffff1673ffffffffffffffffffffffffffffffffffffffff1614156121745761216f6040518060400160405280600c81526020017f6e6f206465627420706f6f6c0000000000000000000000000000000000000000815250612a2e565b612428565b6000600560009054906101000a900473ffffffffffffffffffffffffffffffffffffffff1673ffffffffffffffffffffffffffffffffffffffff16637e8f3aed83600001516040518263ffffffff1660e01b81526004016121d59190613089565b602060405180830381865afa1580156121f2573d6000803e3d6000fd5b505050506040513d601f19601f82011682018060405250810190612216919061362a565b905060006305e4833a60e01b836040516024016122339190613f24565b604051602081830303815290604052907bffffffffffffffffffffffffffffffffffffffffffffffffffffffff19166020820180517bffffffffffffffffffffffffffffffffffffffffffffffffffffffff8381831617835250505050905061229c828261242b565b5060006122a884610bdc565b1415612371576122ec6040518060400160405280600c81526020017f657874696e677569736865640000000000000000000000000000000000000000815250612a2e565b6000600360006101000a81548173ffffffffffffffffffffffffffffffffffffffff021916908373ffffffffffffffffffffffffffffffffffffffff1602179055506000600460006101000a81548173ffffffffffffffffffffffffffffffffffffffff021916908373ffffffffffffffffffffffffffffffffffffffff1602179055505b6123b46040518060400160405280600a81526020017f726570617965643d2573000000000000000000000000000000000000000000008152508460400151611f14565b826020015173ffffffffffffffffffffffffffffffffffffffff16836000015173ffffffffffffffffffffffffffffffffffffffff167f05f2eeda0e08e4b437f487c8d7d29b14537d15e3488170dc3de5dbdf8dac4684856040015160405161241d9190613104565b60405180910390a350505b50565b6060612450838360405180606001604052806027815260200161422060279139612ac7565b905092915050565b600061246382610dc2565b905081604001518111612476578061247c565b81604001515b8260400181815250506000600560009054906101000a900473ffffffffffffffffffffffffffffffffffffffff1673ffffffffffffffffffffffffffffffffffffffff16637e8f3aed84600001516040518263ffffffff1660e01b81526004016124e69190613089565b602060405180830381865afa158015612503573d6000803e3d6000fd5b505050506040513d601f19601f82011682018060405250810190612527919061362a565b90506000635b8a60c460e01b846040516024016125449190613f24565b604051602081830303815290604052907bffffffffffffffffffffffffffffffffffffffffffffffffffffffff19166020820180517bffffffffffffffffffffffffffffffffffffffffffffffffffffffff838183161783525050505090506125ad828261242b565b50836020015173ffffffffffffffffffffffffffffffffffffffff16846000015173ffffffffffffffffffffffffffffffffffffffff167f9b1bfa7fa9ee420a16e124f794c35ac9f90472acc99140eb2f6447c714cad8eb86604001516040516126179190613104565b60405180910390a350505050565b60008060009054906101000a900473ffffffffffffffffffffffffffffffffffffffff169050816000806101000a81548173ffffffffffffffffffffffffffffffffffffffff021916908373ffffffffffffffffffffffffffffffffffffffff1602179055508173ffffffffffffffffffffffffffffffffffffffff168173ffffffffffffffffffffffffffffffffffffffff167f8be0079c531659141344cd1fd0a4f28419497f9722a3daafe3b4186f6b6457e060405160405180910390a35050565b606061272b83836040518060400160405280601e81526020017f416464726573733a206c6f772d6c6576656c2063616c6c206661696c65640000815250612b94565b905092915050565b600080600a8311612745576000612753565b600a836127529190613f6e565b5b9050600460009054906101000a900473ffffffffffffffffffffffffffffffffffffffff1673ffffffffffffffffffffffffffffffffffffffff1663a9059cbb600760009054906101000a900473ffffffffffffffffffffffffffffffffffffffff16836040518363ffffffff1660e01b81526004016127d4929190613733565b6020604051808303816000875af11580156127f3573d6000803e3d6000fd5b505050506040513d601f19601f820116820180604052508101906128179190613794565b5080836128249190613514565b915050919050565b6000818473ffffffffffffffffffffffffffffffffffffffff1663dd62ed3e30866040518363ffffffff1660e01b815260040161286a9291906137c1565b602060405180830381865afa158015612887573d6000803e3d6000fd5b505050506040513d601f19601f820116820180604052508101906128ab91906134b8565b6128b59190613d4b565b90506129388463095ea7b360e01b85846040516024016128d6929190613733565b604051602081830303815290604052907bffffffffffffffffffffffffffffffffffffffffffffffffffffffff19166020820180517bffffffffffffffffffffffffffffffffffffffffffffffffffffffff8381831617835250505050612967565b50505050565b60008151905060006a636f6e736f6c652e6c6f679050602083016000808483855afa5050505050565b60006129c9826040518060400160405280602081526020017f5361666545524332303a206c6f772d6c6576656c2063616c6c206661696c65648152508573ffffffffffffffffffffffffffffffffffffffff16612b949092919063ffffffff16565b9050600081511115612a2957808060200190518101906129e99190613794565b612a28576040517f08c379a0000000000000000000000000000000000000000000000000000000008152600401612a1f90614011565b60405180910390fd5b5b505050565b612ac481604051602401612a429190613058565b6040516020818303038152906040527f41304fac000000000000000000000000000000000000000000000000000000007bffffffffffffffffffffffffffffffffffffffffffffffffffffffff19166020820180517bffffffffffffffffffffffffffffffffffffffffffffffffffffffff838183161783525050505061293e565b50565b6060612ad284612bac565b612b11576040517f08c379a0000000000000000000000000000000000000000000000000000000008152600401612b08906140a3565b60405180910390fd5b6000808573ffffffffffffffffffffffffffffffffffffffff1685604051612b39919061410a565b600060405180830381855af49150503d8060008114612b74576040519150601f19603f3d011682016040523d82523d6000602084013e612b79565b606091505b5091509150612b89828286612bcf565b925050509392505050565b6060612ba38484600085612c36565b90509392505050565b6000808273ffffffffffffffffffffffffffffffffffffffff163b119050919050565b60608315612bdf57829050612c2f565b600083511115612bf25782518084602001fd5b816040517f08c379a0000000000000000000000000000000000000000000000000000000008152600401612c269190613058565b60405180910390fd5b9392505050565b606082471015612c7b576040517f08c379a0000000000000000000000000000000000000000000000000000000008152600401612c7290614193565b60405180910390fd5b612c8485612bac565b612cc3576040517f08c379a0000000000000000000000000000000000000000000000000000000008152600401612cba906141ff565b60405180910390fd5b6000808673ffffffffffffffffffffffffffffffffffffffff168587604051612cec919061410a565b60006040518083038185875af1925050503d8060008114612d29576040519150601f19603f3d011682016040523d82523d6000602084013e612d2e565b606091505b5091509150612d3e828286612bcf565b92505050949350505050565b828054612d5690613577565b90600052602060002090601f016020900481019282612d785760008555612dbf565b82601f10612d9157803560ff1916838001178555612dbf565b82800160010185558215612dbf579182015b82811115612dbe578235825591602001919060010190612da3565b5b509050612dcc9190612dd0565b5090565b5b80821115612de9576000816000905550600101612dd1565b5090565b6000604051905090565b600080fd5b600080fd5b600080fd5b6000601f19601f8301169050919050565b7f4e487b7100000000000000000000000000000000000000000000000000000000600052604160045260246000fd5b612e4f82612e06565b810181811067ffffffffffffffff82111715612e6e57612e6d612e17565b5b80604052505050565b6000612e81612ded565b9050612e8d8282612e46565b919050565b600080fd5b600073ffffffffffffffffffffffffffffffffffffffff82169050919050565b6000612ec282612e97565b9050919050565b612ed281612eb7565b8114612edd57600080fd5b50565b600081359050612eef81612ec9565b92915050565b6000819050919050565b612f0881612ef5565b8114612f1357600080fd5b50565b600081359050612f2581612eff565b92915050565b600060808284031215612f4157612f40612e01565b5b612f4b6080612e77565b90506000612f5b84828501612ee0565b6000830152506020612f6f84828501612ee0565b6020830152506040612f8384828501612f16565b6040830152506060612f9784828501612ee0565b60608301525092915050565b600060808284031215612fb957612fb8612df7565b5b6000612fc784828501612f2b565b91505092915050565b600081519050919050565b600082825260208201905092915050565b60005b8381101561300a578082015181840152602081019050612fef565b83811115613019576000848401525b50505050565b600061302a82612fd0565b6130348185612fdb565b9350613044818560208601612fec565b61304d81612e06565b840191505092915050565b60006020820190508181036000830152613072818461301f565b905092915050565b61308381612eb7565b82525050565b600060208201905061309e600083018461307a565b92915050565b600080fd5b6000608082840312156130bf576130be6130a4565b5b81905092915050565b6000608082840312156130de576130dd612df7565b5b60006130ec848285016130a9565b91505092915050565b6130fe81612ef5565b82525050565b600060208201905061311960008301846130f5565b92915050565b600080fd5b600067ffffffffffffffff82111561313f5761313e612e17565b5b602082029050602081019050919050565b600080fd5b600061316861316384613124565b612e77565b9050808382526020820190506080840283018581111561318b5761318a613150565b5b835b818110156131b457806131a08882612f2b565b84526020840193505060808101905061318d565b5050509392505050565b600082601f8301126131d3576131d261311f565b5b81356131e3848260208601613155565b91505092915050565b60006020828403121561320257613201612df7565b5b600082013567ffffffffffffffff8111156132205761321f612dfc565b5b61322c848285016131be565b91505092915050565b600080fd5b60008083601f8401126132505761324f61311f565b5b8235905067ffffffffffffffff81111561326d5761326c613235565b5b60208301915083600182028301111561328957613288613150565b5b9250929050565b600080602083850312156132a7576132a6612df7565b5b600083013567ffffffffffffffff8111156132c5576132c4612dfc565b5b6132d18582860161323a565b92509250509250929050565b60008083601f8401126132f3576132f261311f565b5b8235905067ffffffffffffffff8111156133105761330f613235565b5b60208301915083602082028301111561332c5761332b613150565b5b9250929050565b6000806020838503121561334a57613349612df7565b5b600083013567ffffffffffffffff81111561336857613367612dfc565b5b613374858286016132dd565b92509250509250929050565b60008083601f8401126133965761339561311f565b5b8235905067ffffffffffffffff8111156133b3576133b2613235565b5b6020830191508360018202830111156133cf576133ce613150565b5b9250929050565b600080602083850312156133ed576133ec612df7565b5b600083013567ffffffffffffffff81111561340b5761340a612dfc565b5b61341785828601613380565b92509250509250929050565b60008060006060848603121561343c5761343b612df7565b5b600061344a86828701612ee0565b935050602061345b86828701612f16565b925050604061346c86828701612ee0565b9150509250925092565b60006020828403121561348c5761348b612df7565b5b600061349a84828501612ee0565b91505092915050565b6000815190506134b281612eff565b92915050565b6000602082840312156134ce576134cd612df7565b5b60006134dc848285016134a3565b91505092915050565b7f4e487b7100000000000000000000000000000000000000000000000000000000600052601160045260246000fd5b600061351f82612ef5565b915061352a83612ef5565b92508282101561353d5761353c6134e5565b5b828203905092915050565b7f4e487b7100000000000000000000000000000000000000000000000000000000600052602260045260246000fd5b6000600282049050600182168061358f57607f821691505b602082108114156135a3576135a2613548565b5b50919050565b7f5661756c743a204f6e65206c6f616e20617420612074696d6500000000000000600082015250565b60006135df601983612fdb565b91506135ea826135a9565b602082019050919050565b6000602082019050818103600083015261360e816135d2565b9050919050565b60008151905061362481612ec9565b92915050565b6000602082840312156136405761363f612df7565b5b600061364e84828501613615565b91505092915050565b60006136666020840184612ee0565b905092915050565b61367781612eb7565b82525050565b600061368c6020840184612f16565b905092915050565b61369d81612ef5565b82525050565b608082016136b46000830183613657565b6136c1600085018261366e565b506136cf6020830183613657565b6136dc602085018261366e565b506136ea604083018361367d565b6136f76040850182613694565b506137056060830183613657565b613712606085018261366e565b50505050565b600060808201905061372d60008301846136a3565b92915050565b6000604082019050613748600083018561307a565b61375560208301846130f5565b9392505050565b60008115159050919050565b6137718161375c565b811461377c57600080fd5b50565b60008151905061378e81613768565b92915050565b6000602082840312156137aa576137a9612df7565b5b60006137b88482850161377f565b91505092915050565b60006040820190506137d6600083018561307a565b6137e3602083018461307a565b9392505050565b7f4e487b7100000000000000000000000000000000000000000000000000000000600052603260045260246000fd5b600061382482612ef5565b91507fffffffffffffffffffffffffffffffffffffffffffffffffffffffffffffffff821415613857576138566134e5565b5b600182019050919050565b600080fd5b600080fd5b600080858511156138805761387f613862565b5b8386111561389157613890613867565b5b6001850283019150848603905094509492505050565b60006138b282612e97565b9050919050565b6138c2816138a7565b81146138cd57600080fd5b50565b6000813590506138df816138b9565b92915050565b600080fd5b600067ffffffffffffffff82111561390557613904612e17565b5b61390e82612e06565b9050602081019050919050565b82818337600083830152505050565b600061393d613938846138ea565b612e77565b905082815260208101848484011115613959576139586138e5565b5b61396484828561391b565b509392505050565b600082601f8301126139815761398061311f565b5b813561399184826020860161392a565b91505092915050565b600061010082840312156139b1576139b0612e01565b5b6139bc610100612e77565b905060006139cc84828501612ee0565b60008301525060206139e084828501612ee0565b60208301525060406139f4848285016138d0565b6040830152506060613a08848285016138d0565b6060830152506080613a1c84828501612f16565b60808301525060a0613a3084828501612f16565b60a08301525060c0613a4484828501612f16565b60c08301525060e082013567ffffffffffffffff811115613a6857613a67612e92565b5b613a748482850161396c565b60e08301525092915050565b600080600060608486031215613a9957613a98612df7565b5b6000613aa7868287016138d0565b935050602084013567ffffffffffffffff811115613ac857613ac7612dfc565b5b613ad48682870161399a565b925050604084013567ffffffffffffffff811115613af557613af4612dfc565b5b613b018682870161396c565b9150509250925092565b7f5661756c743a2077726f6e672073776170206473745265636569766572000000600082015250565b6000613b41601d83612fdb565b9150613b4c82613b0b565b602082019050919050565b60006020820190508181036000830152613b7081613b34565b9050919050565b7f5661756c743a2077726f6e67207377617020647374546f6b656e000000000000600082015250565b6000613bad601a83612fdb565b9150613bb882613b77565b602082019050919050565b60006020820190508181036000830152613bdc81613ba0565b9050919050565b60007fffffffff0000000000000000000000000000000000000000000000000000000082169050919050565b613c1881613be3565b82525050565b604082016000820151613c34600085018261366e565b506020820151613c476020850182613c0f565b50505050565b613c568161375c565b82525050565b60e082016000820151613c72600085018261366e565b506020820151613c85602085018261366e565b506040820151613c986040850182613694565b506060820151613cab606085018261366e565b506080820151613cbe6080850182613694565b5060a0820151613cd160a085018261366e565b5060c0820151613ce460c0850182613c4d565b50505050565b600061012082019050613d006000830185613c1e565b613d0d6040830184613c5c565b9392505050565b6000606082019050613d29600083018661307a565b613d36602083018561307a565b613d4360408301846130f5565b949350505050565b6000613d5682612ef5565b9150613d6183612ef5565b9250827fffffffffffffffffffffffffffffffffffffffffffffffffffffffffffffffff03821115613d9657613d956134e5565b5b828201905092915050565b7f4f776e61626c653a206e6577206f776e657220697320746865207a65726f206160008201527f6464726573730000000000000000000000000000000000000000000000000000602082015250565b6000613dfd602683612fdb565b9150613e0882613da1565b604082019050919050565b60006020820190508181036000830152613e2c81613df0565b9050919050565b7f4f776e61626c653a2063616c6c6572206973206e6f7420746865206f776e6572600082015250565b6000613e69602083612fdb565b9150613e7482613e33565b602082019050919050565b60006020820190508181036000830152613e9881613e5c565b9050919050565b60006040820190508181036000830152613eb9818561301f565b9050613ec860208301846130f5565b9392505050565b608082016000820151613ee5600085018261366e565b506020820151613ef8602085018261366e565b506040820151613f0b6040850182613694565b506060820151613f1e606085018261366e565b50505050565b6000608082019050613f396000830184613ecf565b92915050565b7f4e487b7100000000000000000000000000000000000000000000000000000000600052601260045260246000fd5b6000613f7982612ef5565b9150613f8483612ef5565b925082613f9457613f93613f3f565b5b828204905092915050565b7f5361666545524332303a204552433230206f7065726174696f6e20646964206e60008201527f6f74207375636365656400000000000000000000000000000000000000000000602082015250565b6000613ffb602a83612fdb565b915061400682613f9f565b604082019050919050565b6000602082019050818103600083015261402a81613fee565b9050919050565b7f416464726573733a2064656c65676174652063616c6c20746f206e6f6e2d636f60008201527f6e74726163740000000000000000000000000000000000000000000000000000602082015250565b600061408d602683612fdb565b915061409882614031565b604082019050919050565b600060208201905081810360008301526140bc81614080565b9050919050565b600081519050919050565b600081905092915050565b60006140e4826140c3565b6140ee81856140ce565b93506140fe818560208601612fec565b80840191505092915050565b600061411682846140d9565b915081905092915050565b7f416464726573733a20696e73756666696369656e742062616c616e636520666f60008201527f722063616c6c0000000000000000000000000000000000000000000000000000602082015250565b600061417d602683612fdb565b915061418882614121565b604082019050919050565b600060208201905081810360008301526141ac81614170565b9050919050565b7f416464726573733a2063616c6c20746f206e6f6e2d636f6e7472616374000000600082015250565b60006141e9601d83612fdb565b91506141f4826141b3565b602082019050919050565b60006020820190508181036000830152614218816141dc565b905091905056fe416464726573733a206c6f772d6c6576656c2064656c65676174652063616c6c206661696c6564a26469706673582212202ce3bd15aa4cb5b9aa628acfd07a0ba12b52f155950630fc51bf07585cf313e464736f6c634300080c0033",
  "linkReferences": {},
  "deployedLinkReferences": {}
}