{
  "_format": "hh-sol-artifact-1",
  "contractName": "AaveV3PoolDelegate",
  "sourceName": "contracts/delegates/aaveV3/AaveV3Pool_Delegate.sol",
  "abi": [
    {
      "inputs": [
        {
          "components": [
            {
              "internalType": "address",
              "name": "pool",
              "type": "address"
            },
            {
              "internalType": "address",
              "name": "asset",
              "type": "address"
            },
            {
              "internalType": "uint256",
              "name": "amount",
              "type": "uint256"
            },
            {
              "internalType": "address",
              "name": "controller",
              "type": "address"
            }
          ],
          "internalType": "struct IPoolDelegate.CallParams",
          "name": "params",
          "type": "tuple"
        }
      ],
      "name": "borrow",
      "outputs": [],
      "stateMutability": "nonpayable",
      "type": "function"
    },
    {
      "inputs": [
        {
          "internalType": "address",
          "name": "asset",
          "type": "address"
        }
      ],
      "name": "borrowed",
      "outputs": [
        {
          "internalType": "uint256",
          "name": "",
          "type": "uint256"
        }
      ],
      "stateMutability": "view",
      "type": "function"
    },
    {
      "inputs": [
        {
          "components": [
            {
              "internalType": "address",
              "name": "pool",
              "type": "address"
            },
            {
              "internalType": "address",
              "name": "asset",
              "type": "address"
            },
            {
              "internalType": "uint256",
              "name": "amount",
              "type": "uint256"
            },
            {
              "internalType": "address",
              "name": "controller",
              "type": "address"
            }
          ],
          "internalType": "struct IPoolDelegate.CallParams",
          "name": "params",
          "type": "tuple"
        }
      ],
      "name": "repay",
      "outputs": [],
      "stateMutability": "payable",
      "type": "function"
    },
    {
      "inputs": [
        {
          "internalType": "address",
          "name": "asset",
          "type": "address"
        }
      ],
      "name": "supplied",
      "outputs": [
        {
          "internalType": "uint256",
          "name": "",
          "type": "uint256"
        }
      ],
      "stateMutability": "view",
      "type": "function"
    },
    {
      "inputs": [
        {
          "components": [
            {
              "internalType": "address",
              "name": "pool",
              "type": "address"
            },
            {
              "internalType": "address",
              "name": "asset",
              "type": "address"
            },
            {
              "internalType": "uint256",
              "name": "amount",
              "type": "uint256"
            },
            {
              "internalType": "address",
              "name": "controller",
              "type": "address"
            }
          ],
          "internalType": "struct IPoolDelegate.CallParams",
          "name": "params",
          "type": "tuple"
        }
      ],
      "name": "supply",
      "outputs": [],
      "stateMutability": "payable",
      "type": "function"
    },
    {
      "inputs": [
        {
          "components": [
            {
              "internalType": "address",
              "name": "pool",
              "type": "address"
            },
            {
              "internalType": "address",
              "name": "asset",
              "type": "address"
            },
            {
              "internalType": "uint256",
              "name": "amount",
              "type": "uint256"
            },
            {
              "internalType": "address",
              "name": "controller",
              "type": "address"
            }
          ],
          "internalType": "struct IPoolDelegate.CallParams",
          "name": "params",
          "type": "tuple"
        }
      ],
      "name": "withdraw",
      "outputs": [],
      "stateMutability": "nonpayable",
      "type": "function"
    }
  ],
  "bytecode": "0x608060405234801561001057600080fd5b50610e50806100206000396000f3fe6080604052600436106100555760003560e01c806305e4833a1461005a5780630941cb3d14610076578063155a7205146100b35780635acb354a146100f05780635b8a60c414610119578063ef33f95d14610142575b600080fd5b610074600480360381019061006f9190610954565b61015e565b005b34801561008257600080fd5b5061009d600480360381019061009891906109df565b6103f5565b6040516100aa9190610a25565b60405180910390f35b3480156100bf57600080fd5b506100da60048036038101906100d591906109df565b610478565b6040516100e79190610a25565b60405180910390f35b3480156100fc57600080fd5b5061011760048036038101906101129190610954565b6104fb565b005b34801561012557600080fd5b50610140600480360381019061013b9190610954565b610630565b005b61015c60048036038101906101579190610954565b6106dc565b005b600034146101a1576040517f08c379a000000000000000000000000000000000000000000000000000000000815260040161019890610a9d565b60405180910390fd5b6101df6040518060400160405280600181526020017f3000000000000000000000000000000000000000000000000000000000000000815250610869565b60008160200160208101906101f491906109df565b90506102346040518060400160405280600181526020017f3100000000000000000000000000000000000000000000000000000000000000815250610869565b8073ffffffffffffffffffffffffffffffffffffffff1663095ea7b383600001602081019061026391906109df565b84604001356040518363ffffffff1660e01b8152600401610285929190610acc565b6020604051808303816000875af11580156102a4573d6000803e3d6000fd5b505050506040513d601f19601f820116820180604052508101906102c89190610b2d565b506103076040518060400160405280600181526020017f3200000000000000000000000000000000000000000000000000000000000000815250610869565b81600001602081019061031a91906109df565b73ffffffffffffffffffffffffffffffffffffffff1663573ade8183602001602081019061034891906109df565b84604001356002306040518563ffffffff1660e01b815260040161036f9493929190610b9f565b6020604051808303816000875af115801561038e573d6000803e3d6000fd5b505050506040513d601f19601f820116820180604052508101906103b29190610c10565b506103f16040518060400160405280600181526020017f3300000000000000000000000000000000000000000000000000000000000000815250610869565b5050565b60008173ffffffffffffffffffffffffffffffffffffffff166370a08231336040518263ffffffff1660e01b81526004016104309190610c3d565b602060405180830381865afa15801561044d573d6000803e3d6000fd5b505050506040513d601f19601f820116820180604052508101906104719190610c10565b9050919050565b60008173ffffffffffffffffffffffffffffffffffffffff166370a08231336040518263ffffffff1660e01b81526004016104b39190610c3d565b602060405180830381865afa1580156104d0573d6000803e3d6000fd5b505050506040513d601f19601f820116820180604052508101906104f49190610c10565b9050919050565b80600001602081019061050e91906109df565b73ffffffffffffffffffffffffffffffffffffffff1663a415bcad82602001602081019061053c91906109df565b836040013560026000306040518663ffffffff1660e01b8152600401610566959493929190610ca1565b600060405180830381600087803b15801561058057600080fd5b505af1158015610594573d6000803e3d6000fd5b505050508060200160208101906105ab91906109df565b73ffffffffffffffffffffffffffffffffffffffff1663a9059cbb3383604001356040518363ffffffff1660e01b81526004016105e9929190610acc565b6020604051808303816000875af1158015610608573d6000803e3d6000fd5b505050506040513d601f19601f8201168201806040525081019061062c9190610b2d565b5050565b80600001602081019061064391906109df565b73ffffffffffffffffffffffffffffffffffffffff166369328dec82602001602081019061067191906109df565b8360400135306040518463ffffffff1660e01b815260040161069593929190610cf4565b6020604051808303816000875af11580156106b4573d6000803e3d6000fd5b505050506040513d601f19601f820116820180604052508101906106d89190610c10565b5050565b6000341461071f576040517f08c379a000000000000000000000000000000000000000000000000000000000815260040161071690610a9d565b60405180910390fd5b600081602001602081019061073491906109df565b90508073ffffffffffffffffffffffffffffffffffffffff1663095ea7b383600001602081019061076591906109df565b84604001356040518363ffffffff1660e01b8152600401610787929190610acc565b6020604051808303816000875af11580156107a6573d6000803e3d6000fd5b505050506040513d601f19601f820116820180604052508101906107ca9190610b2d565b508160000160208101906107de91906109df565b73ffffffffffffffffffffffffffffffffffffffff1663617ba03783602001602081019061080c91906109df565b84604001353060006040518563ffffffff1660e01b81526004016108339493929190610d2b565b600060405180830381600087803b15801561084d57600080fd5b505af1158015610861573d6000803e3d6000fd5b505050505050565b6108ff8160405160240161087d9190610df8565b6040516020818303038152906040527f41304fac000000000000000000000000000000000000000000000000000000007bffffffffffffffffffffffffffffffffffffffffffffffffffffffff19166020820180517bffffffffffffffffffffffffffffffffffffffffffffffffffffffff8381831617835250505050610902565b50565b60008151905060006a636f6e736f6c652e6c6f679050602083016000808483855afa5050505050565b600080fd5b600080fd5b60006080828403121561094b5761094a610930565b5b81905092915050565b60006080828403121561096a5761096961092b565b5b600061097884828501610935565b91505092915050565b600073ffffffffffffffffffffffffffffffffffffffff82169050919050565b60006109ac82610981565b9050919050565b6109bc816109a1565b81146109c757600080fd5b50565b6000813590506109d9816109b3565b92915050565b6000602082840312156109f5576109f461092b565b5b6000610a03848285016109ca565b91505092915050565b6000819050919050565b610a1f81610a0c565b82525050565b6000602082019050610a3a6000830184610a16565b92915050565b600082825260208201905092915050565b7f44656c65676174653a2034303000000000000000000000000000000000000000600082015250565b6000610a87600d83610a40565b9150610a9282610a51565b602082019050919050565b60006020820190508181036000830152610ab681610a7a565b9050919050565b610ac6816109a1565b82525050565b6000604082019050610ae16000830185610abd565b610aee6020830184610a16565b9392505050565b60008115159050919050565b610b0a81610af5565b8114610b1557600080fd5b50565b600081519050610b2781610b01565b92915050565b600060208284031215610b4357610b4261092b565b5b6000610b5184828501610b18565b91505092915050565b6000819050919050565b6000819050919050565b6000610b89610b84610b7f84610b5a565b610b64565b610a0c565b9050919050565b610b9981610b6e565b82525050565b6000608082019050610bb46000830187610abd565b610bc16020830186610a16565b610bce6040830185610b90565b610bdb6060830184610abd565b95945050505050565b610bed81610a0c565b8114610bf857600080fd5b50565b600081519050610c0a81610be4565b92915050565b600060208284031215610c2657610c2561092b565b5b6000610c3484828501610bfb565b91505092915050565b6000602082019050610c526000830184610abd565b92915050565b6000819050919050565b600061ffff82169050919050565b6000610c8b610c86610c8184610c58565b610b64565b610c62565b9050919050565b610c9b81610c70565b82525050565b600060a082019050610cb66000830188610abd565b610cc36020830187610a16565b610cd06040830186610b90565b610cdd6060830185610c92565b610cea6080830184610abd565b9695505050505050565b6000606082019050610d096000830186610abd565b610d166020830185610a16565b610d236040830184610abd565b949350505050565b6000608082019050610d406000830187610abd565b610d4d6020830186610a16565b610d5a6040830185610abd565b610d676060830184610c92565b95945050505050565b600081519050919050565b60005b83811015610d99578082015181840152602081019050610d7e565b83811115610da8576000848401525b50505050565b6000601f19601f8301169050919050565b6000610dca82610d70565b610dd48185610a40565b9350610de4818560208601610d7b565b610ded81610dae565b840191505092915050565b60006020820190508181036000830152610e128184610dbf565b90509291505056fea26469706673582212205a4adbcd69ff555d989deb8a4b7340e8cde453c0e1b456305fc4377a19eeb99a64736f6c634300080c0033",
  "linkReferences": {},
  "deployedLinkReferences": {}
}