{
  "_format": "hh-sol-artifact-1",
  "contractName": "AaveV3PoolDelegate",
  "sourceName": "contracts/delegates/aaveV3/AaveV3Pool_Delegate.sol",
  "abi": [
    {
      "inputs": [
        {
          "components": [
            {
              "internalType": "address",
              "name": "pool",
              "type": "address"
            },
            {
              "internalType": "address",
              "name": "asset",
              "type": "address"
            },
            {
              "internalType": "uint256",
              "name": "amount",
              "type": "uint256"
            }
          ],
          "internalType": "struct IPoolDelegate.CallParams",
          "name": "params",
          "type": "tuple"
        }
      ],
      "name": "borrow",
      "outputs": [],
      "stateMutability": "nonpayable",
      "type": "function"
    },
    {
      "inputs": [
        {
          "components": [
            {
              "internalType": "address",
              "name": "pool",
              "type": "address"
            },
            {
              "internalType": "address",
              "name": "asset",
              "type": "address"
            },
            {
              "internalType": "uint256",
              "name": "amount",
              "type": "uint256"
            }
          ],
          "internalType": "struct IPoolDelegate.CallParams",
          "name": "params",
          "type": "tuple"
        }
      ],
      "name": "borrowed",
      "outputs": [
        {
          "internalType": "uint256",
          "name": "",
          "type": "uint256"
        }
      ],
      "stateMutability": "view",
      "type": "function"
    },
    {
      "inputs": [
        {
          "components": [
            {
              "internalType": "address",
              "name": "pool",
              "type": "address"
            },
            {
              "internalType": "address",
              "name": "asset",
              "type": "address"
            },
            {
              "internalType": "uint256",
              "name": "amount",
              "type": "uint256"
            }
          ],
          "internalType": "struct IPoolDelegate.CallParams",
          "name": "params",
          "type": "tuple"
        }
      ],
      "name": "repay",
      "outputs": [],
      "stateMutability": "nonpayable",
      "type": "function"
    },
    {
      "inputs": [
        {
          "components": [
            {
              "internalType": "address",
              "name": "pool",
              "type": "address"
            },
            {
              "internalType": "address",
              "name": "asset",
              "type": "address"
            },
            {
              "internalType": "uint256",
              "name": "amount",
              "type": "uint256"
            }
          ],
          "internalType": "struct IPoolDelegate.CallParams",
          "name": "params",
          "type": "tuple"
        }
      ],
      "name": "supplied",
      "outputs": [
        {
          "internalType": "uint256",
          "name": "",
          "type": "uint256"
        }
      ],
      "stateMutability": "view",
      "type": "function"
    },
    {
      "inputs": [
        {
          "components": [
            {
              "internalType": "address",
              "name": "pool",
              "type": "address"
            },
            {
              "internalType": "address",
              "name": "asset",
              "type": "address"
            },
            {
              "internalType": "uint256",
              "name": "amount",
              "type": "uint256"
            }
          ],
          "internalType": "struct IPoolDelegate.CallParams",
          "name": "params",
          "type": "tuple"
        }
      ],
      "name": "supply",
      "outputs": [],
      "stateMutability": "nonpayable",
      "type": "function"
    },
    {
      "inputs": [
        {
          "components": [
            {
              "internalType": "address",
              "name": "pool",
              "type": "address"
            },
            {
              "internalType": "address",
              "name": "asset",
              "type": "address"
            },
            {
              "internalType": "uint256",
              "name": "amount",
              "type": "uint256"
            }
          ],
          "internalType": "struct IPoolDelegate.CallParams",
          "name": "params",
          "type": "tuple"
        }
      ],
      "name": "withdraw",
      "outputs": [],
      "stateMutability": "nonpayable",
      "type": "function"
    }
  ],
  "bytecode": "0x608060405234801561001057600080fd5b50610e79806100206000396000f3fe608060405234801561001057600080fd5b50600436106100625760003560e01c80630c96b8b014610067578063292d0abe14610083578063516789671461009f5780636abafac3146100bb57806371bd5c65146100eb578063fbc4b6921461011b575b600080fd5b610081600480360381019061007c919061070e565b610137565b005b61009d6004803603810190610098919061070e565b6101d7565b005b6100b960048036038101906100b4919061070e565b610321565b005b6100d560048036038101906100d091906108c4565b6103cd565b6040516100e29190610900565b60405180910390f35b6101056004803603810190610100919061070e565b610454565b6040516101129190610900565b60405180910390f35b6101356004803603810190610130919061070e565b61057f565b005b80600001602081019061014a919061091b565b73ffffffffffffffffffffffffffffffffffffffff1663a415bcad826020016020810190610178919061091b565b836040013560026000306040518663ffffffff1660e01b81526004016101a29594939291906109e5565b600060405180830381600087803b1580156101bc57600080fd5b505af11580156101d0573d6000803e3d6000fd5b5050505050565b60008160200160208101906101ec919061091b565b90508073ffffffffffffffffffffffffffffffffffffffff1663095ea7b383600001602081019061021d919061091b565b84604001356040518363ffffffff1660e01b815260040161023f929190610a38565b6020604051808303816000875af115801561025e573d6000803e3d6000fd5b505050506040513d601f19601f820116820180604052508101906102829190610a99565b50816000016020810190610296919061091b565b73ffffffffffffffffffffffffffffffffffffffff1663617ba0378360200160208101906102c4919061091b565b84604001353060006040518563ffffffff1660e01b81526004016102eb9493929190610ac6565b600060405180830381600087803b15801561030557600080fd5b505af1158015610319573d6000803e3d6000fd5b505050505050565b806000016020810190610334919061091b565b73ffffffffffffffffffffffffffffffffffffffff166369328dec826020016020810190610362919061091b565b8360400135306040518463ffffffff1660e01b815260040161038693929190610b0b565b6020604051808303816000875af11580156103a5573d6000803e3d6000fd5b505050506040513d601f19601f820116820180604052508101906103c99190610b57565b5050565b6000816020015173ffffffffffffffffffffffffffffffffffffffff166370a08231306040518263ffffffff1660e01b815260040161040c9190610b84565b602060405180830381865afa158015610429573d6000803e3d6000fd5b505050506040513d601f19601f8201168201806040525081019061044d9190610b57565b9050919050565b60008082600001602081019061046a919061091b565b73ffffffffffffffffffffffffffffffffffffffff166335ea6a75846020016020810190610498919061091b565b6040518263ffffffff1660e01b81526004016104b49190610b84565b61018060405180830381865afa1580156104d2573d6000803e3d6000fd5b505050506040513d601f19601f820116820180604052508101906104f69190610dd0565b905080610120015173ffffffffffffffffffffffffffffffffffffffff166370a08231306040518263ffffffff1660e01b81526004016105369190610b84565b602060405180830381865afa158015610553573d6000803e3d6000fd5b505050506040513d601f19601f820116820180604052508101906105779190610b57565b915050919050565b6000816020016020810190610594919061091b565b90508073ffffffffffffffffffffffffffffffffffffffff1663095ea7b38360000160208101906105c5919061091b565b84604001356040518363ffffffff1660e01b81526004016105e7929190610a38565b6020604051808303816000875af1158015610606573d6000803e3d6000fd5b505050506040513d601f19601f8201168201806040525081019061062a9190610a99565b5081600001602081019061063e919061091b565b73ffffffffffffffffffffffffffffffffffffffff1663573ade8183602001602081019061066c919061091b565b84604001356002306040518563ffffffff1660e01b81526004016106939493929190610dfe565b6020604051808303816000875af11580156106b2573d6000803e3d6000fd5b505050506040513d601f19601f820116820180604052508101906106d69190610b57565b505050565b6000604051905090565b600080fd5b600080fd5b600060608284031215610705576107046106ea565b5b81905092915050565b600060608284031215610724576107236106e5565b5b6000610732848285016106ef565b91505092915050565b600080fd5b6000601f19601f8301169050919050565b7f4e487b7100000000000000000000000000000000000000000000000000000000600052604160045260246000fd5b61078982610740565b810181811067ffffffffffffffff821117156107a8576107a7610751565b5b80604052505050565b60006107bb6106db565b90506107c78282610780565b919050565b600073ffffffffffffffffffffffffffffffffffffffff82169050919050565b60006107f7826107cc565b9050919050565b610807816107ec565b811461081257600080fd5b50565b600081359050610824816107fe565b92915050565b6000819050919050565b61083d8161082a565b811461084857600080fd5b50565b60008135905061085a81610834565b92915050565b6000606082840312156108765761087561073b565b5b61088060606107b1565b9050600061089084828501610815565b60008301525060206108a484828501610815565b60208301525060406108b88482850161084b565b60408301525092915050565b6000606082840312156108da576108d96106e5565b5b60006108e884828501610860565b91505092915050565b6108fa8161082a565b82525050565b600060208201905061091560008301846108f1565b92915050565b600060208284031215610931576109306106e5565b5b600061093f84828501610815565b91505092915050565b610951816107ec565b82525050565b6000819050919050565b6000819050919050565b600061098661098161097c84610957565b610961565b61082a565b9050919050565b6109968161096b565b82525050565b6000819050919050565b600061ffff82169050919050565b60006109cf6109ca6109c58461099c565b610961565b6109a6565b9050919050565b6109df816109b4565b82525050565b600060a0820190506109fa6000830188610948565b610a0760208301876108f1565b610a14604083018661098d565b610a2160608301856109d6565b610a2e6080830184610948565b9695505050505050565b6000604082019050610a4d6000830185610948565b610a5a60208301846108f1565b9392505050565b60008115159050919050565b610a7681610a61565b8114610a8157600080fd5b50565b600081519050610a9381610a6d565b92915050565b600060208284031215610aaf57610aae6106e5565b5b6000610abd84828501610a84565b91505092915050565b6000608082019050610adb6000830187610948565b610ae860208301866108f1565b610af56040830185610948565b610b0260608301846109d6565b95945050505050565b6000606082019050610b206000830186610948565b610b2d60208301856108f1565b610b3a6040830184610948565b949350505050565b600081519050610b5181610834565b92915050565b600060208284031215610b6d57610b6c6106e5565b5b6000610b7b84828501610b42565b91505092915050565b6000602082019050610b996000830184610948565b92915050565b600060208284031215610bb557610bb461073b565b5b610bbf60206107b1565b90506000610bcf84828501610b42565b60008301525092915050565b60006fffffffffffffffffffffffffffffffff82169050919050565b610c0081610bdb565b8114610c0b57600080fd5b50565b600081519050610c1d81610bf7565b92915050565b600064ffffffffff82169050919050565b610c3d81610c23565b8114610c4857600080fd5b50565b600081519050610c5a81610c34565b92915050565b600081519050610c6f816107fe565b92915050565b600060ff82169050919050565b610c8b81610c75565b8114610c9657600080fd5b50565b600081519050610ca881610c82565b92915050565b60006101808284031215610cc557610cc461073b565b5b610cd06101806107b1565b90506000610ce084828501610b9f565b6000830152506020610cf484828501610c0e565b6020830152506040610d0884828501610c0e565b6040830152506060610d1c84828501610c0e565b6060830152506080610d3084828501610c0e565b60808301525060a0610d4484828501610c0e565b60a08301525060c0610d5884828501610c4b565b60c08301525060e0610d6c84828501610c60565b60e083015250610100610d8184828501610c60565b61010083015250610120610d9784828501610c60565b61012083015250610140610dad84828501610c60565b61014083015250610160610dc384828501610c99565b6101608301525092915050565b60006101808284031215610de757610de66106e5565b5b6000610df584828501610cae565b91505092915050565b6000608082019050610e136000830187610948565b610e2060208301866108f1565b610e2d604083018561098d565b610e3a6060830184610948565b9594505050505056fea26469706673582212202f47434b356ca3396b1c8a8ded51044be717f4da3eda4bff5bd81014c8b146b064736f6c634300080c0033",
  "linkReferences": {},
  "deployedLinkReferences": {}
}