{
  "_format": "hh-sol-artifact-1",
  "contractName": "LinkOneInchAdapter",
  "sourceName": "contracts/oracles/LinkOneInchAdapter.sol",
  "abi": [
    {
      "inputs": [
        {
          "internalType": "address",
          "name": "aggregator_",
          "type": "address"
        },
        {
          "internalType": "bytes32",
          "name": "jobId_",
          "type": "bytes32"
        },
        {
          "internalType": "uint256",
          "name": "fee_",
          "type": "uint256"
        },
        {
          "internalType": "address",
          "name": "linkToken",
          "type": "address"
        },
        {
          "internalType": "address",
          "name": "oracle",
          "type": "address"
        }
      ],
      "stateMutability": "nonpayable",
      "type": "constructor"
    },
    {
      "anonymous": false,
      "inputs": [
        {
          "indexed": false,
          "internalType": "string",
          "name": "endpoint",
          "type": "string"
        },
        {
          "indexed": false,
          "internalType": "string",
          "name": "path",
          "type": "string"
        },
        {
          "indexed": false,
          "internalType": "address",
          "name": "callbackAddress",
          "type": "address"
        },
        {
          "indexed": false,
          "internalType": "bytes4",
          "name": "callbackFuncSelector",
          "type": "bytes4"
        }
      ],
      "name": "APIRequest",
      "type": "event"
    },
    {
      "anonymous": false,
      "inputs": [
        {
          "indexed": true,
          "internalType": "bytes32",
          "name": "id",
          "type": "bytes32"
        }
      ],
      "name": "ChainlinkCancelled",
      "type": "event"
    },
    {
      "anonymous": false,
      "inputs": [
        {
          "indexed": true,
          "internalType": "bytes32",
          "name": "id",
          "type": "bytes32"
        }
      ],
      "name": "ChainlinkFulfilled",
      "type": "event"
    },
    {
      "anonymous": false,
      "inputs": [
        {
          "indexed": true,
          "internalType": "bytes32",
          "name": "id",
          "type": "bytes32"
        }
      ],
      "name": "ChainlinkRequested",
      "type": "event"
    },
    {
      "anonymous": false,
      "inputs": [
        {
          "indexed": true,
          "internalType": "address",
          "name": "previousOwner",
          "type": "address"
        },
        {
          "indexed": true,
          "internalType": "address",
          "name": "newOwner",
          "type": "address"
        }
      ],
      "name": "OwnershipTransferred",
      "type": "event"
    },
    {
      "inputs": [],
      "name": "aggregator",
      "outputs": [
        {
          "internalType": "address",
          "name": "",
          "type": "address"
        }
      ],
      "stateMutability": "view",
      "type": "function"
    },
    {
      "inputs": [],
      "name": "fee",
      "outputs": [
        {
          "internalType": "uint256",
          "name": "",
          "type": "uint256"
        }
      ],
      "stateMutability": "view",
      "type": "function"
    },
    {
      "inputs": [],
      "name": "jobId",
      "outputs": [
        {
          "internalType": "bytes32",
          "name": "",
          "type": "bytes32"
        }
      ],
      "stateMutability": "view",
      "type": "function"
    },
    {
      "inputs": [],
      "name": "owner",
      "outputs": [
        {
          "internalType": "address",
          "name": "",
          "type": "address"
        }
      ],
      "stateMutability": "view",
      "type": "function"
    },
    {
      "inputs": [],
      "name": "renounceOwnership",
      "outputs": [],
      "stateMutability": "nonpayable",
      "type": "function"
    },
    {
      "inputs": [
        {
          "components": [
            {
              "internalType": "address",
              "name": "callee",
              "type": "address"
            },
            {
              "internalType": "bytes4",
              "name": "functionSelector",
              "type": "bytes4"
            }
          ],
          "internalType": "struct ISwapDataRequester.CallbackParams",
          "name": "callbackParams",
          "type": "tuple"
        },
        {
          "components": [
            {
              "internalType": "address",
              "name": "fromTokenAddress",
              "type": "address"
            },
            {
              "internalType": "address",
              "name": "toTokenAddress",
              "type": "address"
            },
            {
              "internalType": "uint256",
              "name": "amount",
              "type": "uint256"
            },
            {
              "internalType": "address",
              "name": "fromAddress",
              "type": "address"
            },
            {
              "internalType": "uint256",
              "name": "slippage",
              "type": "uint256"
            },
            {
              "internalType": "address",
              "name": "destReceiver",
              "type": "address"
            },
            {
              "internalType": "bool",
              "name": "allowPartialFill",
              "type": "bool"
            }
          ],
          "internalType": "struct ISwapDataRequester.SwapDataParams",
          "name": "swapParams",
          "type": "tuple"
        }
      ],
      "name": "request",
      "outputs": [],
      "stateMutability": "nonpayable",
      "type": "function"
    },
    {
      "inputs": [
        {
          "internalType": "address",
          "name": "newOwner",
          "type": "address"
        }
      ],
      "name": "transferOwnership",
      "outputs": [],
      "stateMutability": "nonpayable",
      "type": "function"
    },
    {
      "inputs": [
        {
          "internalType": "uint256",
          "name": "amount",
          "type": "uint256"
        }
      ],
      "name": "withdrawLink",
      "outputs": [],
      "stateMutability": "nonpayable",
      "type": "function"
    }
  ],
  "bytecode": "0x608060405260016005553480156200001657600080fd5b50604051620029683803806200296883398181016040528101906200003c91906200030c565b6200005c62000050620000d860201b60201c565b620000e060201b60201c565b6200006d82620001a460201b60201c565b6200007e81620001e860201b60201c565b84600760006101000a81548173ffffffffffffffffffffffffffffffffffffffff021916908373ffffffffffffffffffffffffffffffffffffffff1602179055508360088190555082600981905550505050505062000394565b600033905090565b60008060009054906101000a900473ffffffffffffffffffffffffffffffffffffffff169050816000806101000a81548173ffffffffffffffffffffffffffffffffffffffff021916908373ffffffffffffffffffffffffffffffffffffffff1602179055508173ffffffffffffffffffffffffffffffffffffffff168173ffffffffffffffffffffffffffffffffffffffff167f8be0079c531659141344cd1fd0a4f28419497f9722a3daafe3b4186f6b6457e060405160405180910390a35050565b80600360006101000a81548173ffffffffffffffffffffffffffffffffffffffff021916908373ffffffffffffffffffffffffffffffffffffffff16021790555050565b80600460006101000a81548173ffffffffffffffffffffffffffffffffffffffff021916908373ffffffffffffffffffffffffffffffffffffffff16021790555050565b600080fd5b600073ffffffffffffffffffffffffffffffffffffffff82169050919050565b60006200025e8262000231565b9050919050565b620002708162000251565b81146200027c57600080fd5b50565b600081519050620002908162000265565b92915050565b6000819050919050565b620002ab8162000296565b8114620002b757600080fd5b50565b600081519050620002cb81620002a0565b92915050565b6000819050919050565b620002e681620002d1565b8114620002f257600080fd5b50565b6000815190506200030681620002db565b92915050565b600080600080600060a086880312156200032b576200032a6200022c565b5b60006200033b888289016200027f565b95505060206200034e88828901620002ba565b94505060406200036188828901620002f5565b935050606062000374888289016200027f565b925050608062000387888289016200027f565b9150509295509295909350565b6125c480620003a46000396000f3fe608060405234801561001057600080fd5b50600436106100885760003560e01c80639547c9d71161005b5780639547c9d7146100ef578063c2939d971461010b578063ddca3f4314610129578063f2fde38b1461014757610088565b8063245a7bfc1461008d578063715018a6146100ab5780637a8042bd146100b55780638da5cb5b146100d1575b600080fd5b610095610163565b6040516100a2919061160a565b60405180910390f35b6100b361018d565b005b6100cf60048036038101906100ca9190611660565b6101a1565b005b6100d96101e5565b6040516100e6919061160a565b60405180910390f35b610109600480360381019061010491906116d0565b61020e565b005b610113610326565b604051610120919061172a565b60405180910390f35b610131610330565b60405161013e9190611754565b60405180910390f35b610161600480360381019061015c919061179b565b61033a565b005b6000600760009054906101000a900473ffffffffffffffffffffffffffffffffffffffff16905090565b6101956103be565b61019f600061043c565b565b6101a96103be565b6101e26101b46101e5565b826101bd610500565b73ffffffffffffffffffffffffffffffffffffffff1661052a9092919063ffffffff16565b50565b60008060009054906101000a900473ffffffffffffffffffffffffffffffffffffffff16905090565b6000610241600854846000016020810190610229919061179b565b85602001602081019061023c9190611820565b6105b0565b90506102956040518060400160405280600381526020017f6765740000000000000000000000000000000000000000000000000000000000815250610285846105e1565b836106ec9092919063ffffffff16565b6103146040518060400160405280600481526020017f70617468000000000000000000000000000000000000000000000000000000008152506040518060400160405280600781526020017f74782c6461746100000000000000000000000000000000000000000000000000815250836106ec9092919063ffffffff16565b6103208160095461071f565b50505050565b6000600854905090565b6000600954905090565b6103426103be565b600073ffffffffffffffffffffffffffffffffffffffff168173ffffffffffffffffffffffffffffffffffffffff1614156103b2576040517f08c379a00000000000000000000000000000000000000000000000000000000081526004016103a9906118d0565b60405180910390fd5b6103bb8161043c565b50565b6103c6610756565b73ffffffffffffffffffffffffffffffffffffffff166103e46101e5565b73ffffffffffffffffffffffffffffffffffffffff161461043a576040517f08c379a00000000000000000000000000000000000000000000000000000000081526004016104319061193c565b60405180910390fd5b565b60008060009054906101000a900473ffffffffffffffffffffffffffffffffffffffff169050816000806101000a81548173ffffffffffffffffffffffffffffffffffffffff021916908373ffffffffffffffffffffffffffffffffffffffff1602179055508173ffffffffffffffffffffffffffffffffffffffff168173ffffffffffffffffffffffffffffffffffffffff167f8be0079c531659141344cd1fd0a4f28419497f9722a3daafe3b4186f6b6457e060405160405180910390a35050565b6000600360009054906101000a900473ffffffffffffffffffffffffffffffffffffffff16905090565b6105ab8363a9059cbb60e01b848460405160240161054992919061195c565b604051602081830303815290604052907bffffffffffffffffffffffffffffffffffffffffffffffffffffffff19166020820180517bffffffffffffffffffffffffffffffffffffffffffffffffffffffff838183161783525050505061075e565b505050565b6105b8611542565b6105c0611542565b6105d785858584610825909392919063ffffffff16565b9150509392505050565b60606106148260000160208101906105f9919061179b565b73ffffffffffffffffffffffffffffffffffffffff166108d5565b61064583602001602081019061062a919061179b565b73ffffffffffffffffffffffffffffffffffffffff166108d5565b6106528460400135610902565b61065f8560800135610902565b610690866060016020810190610675919061179b565b73ffffffffffffffffffffffffffffffffffffffff166108d5565b6106c18760a00160208101906106a6919061179b565b73ffffffffffffffffffffffffffffffffffffffff166108d5565b6040516020016106d696959493929190611b2f565b6040516020818303038152906040529050919050565b610703828460800151610a6390919063ffffffff16565b61071a818460800151610a6390919063ffffffff16565b505050565b600061074e600460009054906101000a900473ffffffffffffffffffffffffffffffffffffffff168484610a88565b905092915050565b600033905090565b60006107c0826040518060400160405280602081526020017f5361666545524332303a206c6f772d6c6576656c2063616c6c206661696c65648152508573ffffffffffffffffffffffffffffffffffffffff16610b549092919063ffffffff16565b905060008151111561082057808060200190518101906107e09190611c15565b61081f576040517f08c379a000000000000000000000000000000000000000000000000000000000815260040161081690611cb4565b60405180910390fd5b5b505050565b61082d611542565b61083d8560800151610100610b6c565b508385600001818152505082856020019073ffffffffffffffffffffffffffffffffffffffff16908173ffffffffffffffffffffffffffffffffffffffff16815250508185604001907bffffffffffffffffffffffffffffffffffffffffffffffffffffffff191690817bffffffffffffffffffffffffffffffffffffffffffffffffffffffff191681525050849050949350505050565b60606108fb8273ffffffffffffffffffffffffffffffffffffffff16601460ff16610bd6565b9050919050565b6060600082141561094a576040518060400160405280600181526020017f30000000000000000000000000000000000000000000000000000000000000008152509050610a5e565b600082905060005b6000821461097c57808061096590611d03565b915050600a826109759190611d7b565b9150610952565b60008167ffffffffffffffff81111561099857610997611dac565b5b6040519080825280601f01601f1916602001820160405280156109ca5781602001600182028036833780820191505090505b5090505b60008514610a57576001826109e39190611ddb565b9150600a856109f29190611e0f565b60306109fe9190611e40565b60f81b818381518110610a1457610a13611e96565b5b60200101907effffffffffffffffffffffffffffffffffffffffffffffffffffffffffffff1916908160001a905350600a85610a509190611d7b565b94506109ce565b8093505050505b919050565b610a708260038351610e12565b610a838183610f9790919063ffffffff16565b505050565b6000806005549050600181610a9d9190611e40565b6005819055506000634042994660e01b60008087600001513089604001518760018c6080015160000151604051602401610ade989796959493929190611f3a565b604051602081830303815290604052907bffffffffffffffffffffffffffffffffffffffffffffffffffffffff19166020820180517bffffffffffffffffffffffffffffffffffffffffffffffffffffffff83818316178352505050509050610b4986838684610fb9565b925050509392505050565b6060610b63848460008561114e565b90509392505050565b610b746115af565b6000602083610b839190611e0f565b14610baf57602082610b959190611e0f565b6020610ba19190611ddb565b82610bac9190611e40565b91505b81836020018181525050604051808452600081528281016020016040525082905092915050565b606060006002836002610be99190611fbf565b610bf39190611e40565b67ffffffffffffffff811115610c0c57610c0b611dac565b5b6040519080825280601f01601f191660200182016040528015610c3e5781602001600182028036833780820191505090505b5090507f300000000000000000000000000000000000000000000000000000000000000081600081518110610c7657610c75611e96565b5b60200101907effffffffffffffffffffffffffffffffffffffffffffffffffffffffffffff1916908160001a9053507f780000000000000000000000000000000000000000000000000000000000000081600181518110610cda57610cd9611e96565b5b60200101907effffffffffffffffffffffffffffffffffffffffffffffffffffffffffffff1916908160001a90535060006001846002610d1a9190611fbf565b610d249190611e40565b90505b6001811115610dc4577f3031323334353637383961626364656600000000000000000000000000000000600f861660108110610d6657610d65611e96565b5b1a60f81b828281518110610d7d57610d7c611e96565b5b60200101907effffffffffffffffffffffffffffffffffffffffffffffffffffffffffffff1916908160001a905350600485901c945080610dbd90612019565b9050610d27565b5060008414610e08576040517f08c379a0000000000000000000000000000000000000000000000000000000008152600401610dff9061208f565b60405180910390fd5b8091505092915050565b60178167ffffffffffffffff1611610e4957610e438160058460ff16901b60ff16178461126290919063ffffffff16565b50610f92565b60ff8167ffffffffffffffff1611610e9f57610e78601860058460ff16901b178461126290919063ffffffff16565b50610e998167ffffffffffffffff166001856112829092919063ffffffff16565b50610f91565b61ffff8167ffffffffffffffff1611610ef657610ecf601960058460ff16901b178461126290919063ffffffff16565b50610ef08167ffffffffffffffff166002856112829092919063ffffffff16565b50610f90565b63ffffffff8167ffffffffffffffff1611610f4f57610f28601a60058460ff16901b178461126290919063ffffffff16565b50610f498167ffffffffffffffff166004856112829092919063ffffffff16565b50610f8f565b610f6c601b60058460ff16901b178461126290919063ffffffff16565b50610f8d8167ffffffffffffffff166008856112829092919063ffffffff16565b505b5b5b5b505050565b610f9f6115af565b610fb1838460000151518485516112a4565b905092915050565b60003084604051602001610fce929190612168565b604051602081830303815290604052805190602001209050846006600083815260200190815260200160002060006101000a81548173ffffffffffffffffffffffffffffffffffffffff021916908373ffffffffffffffffffffffffffffffffffffffff160217905550807fb5e6e01e79f91267dc17b4e6314d5d4d03593d2ceee0fbb452b750bd70ea5af960405160405180910390a2600360009054906101000a900473ffffffffffffffffffffffffffffffffffffffff1673ffffffffffffffffffffffffffffffffffffffff16634000aea08685856040518463ffffffff1660e01b81526004016110c493929190612194565b6020604051808303816000875af11580156110e3573d6000803e3d6000fd5b505050506040513d601f19601f820116820180604052508101906111079190611c15565b611146576040517f08c379a000000000000000000000000000000000000000000000000000000000815260040161113d90612244565b60405180910390fd5b949350505050565b606082471015611193576040517f08c379a000000000000000000000000000000000000000000000000000000000815260040161118a906122d6565b60405180910390fd5b61119c85611393565b6111db576040517f08c379a00000000000000000000000000000000000000000000000000000000081526004016111d290612342565b60405180910390fd5b6000808673ffffffffffffffffffffffffffffffffffffffff168587604051611204919061239e565b60006040518083038185875af1925050503d8060008114611241576040519150601f19603f3d011682016040523d82523d6000602084013e611246565b606091505b50915091506112568282866113b6565b92505050949350505050565b61126a6115af565b61127a838460000151518461141d565b905092915050565b61128a6115af565b61129b848560000151518585611474565b90509392505050565b6112ac6115af565b82518211156112ba57600080fd5b846020015182856112cb9190611e40565b1115611300576112ff8560026112f0886020015188876112eb9190611e40565b611502565b6112fa9190611fbf565b61151e565b5b60008086518051876020830101935080888701111561131f5787860182525b60208701925050505b6020841061136657805182526020826113419190611e40565b91506020816113509190611e40565b905060208461135f9190611ddb565b9350611328565b60006001856020036101000a03905080198251168184511681811785525050508692505050949350505050565b6000808273ffffffffffffffffffffffffffffffffffffffff163b119050919050565b606083156113c657829050611416565b6000835111156113d95782518084602001fd5b816040517f08c379a000000000000000000000000000000000000000000000000000000000815260040161140d91906123ee565b60405180910390fd5b9392505050565b6114256115af565b8360200151831061144b5761144a84600286602001516114459190611fbf565b61151e565b5b8351805160208583010184815381861415611467576001820183525b5050508390509392505050565b61147c6115af565b8460200151848361148d9190611e40565b11156114b5576114b485600286856114a59190611e40565b6114af9190611fbf565b61151e565b5b60006001836101006114c79190612543565b6114d19190611ddb565b905085518386820101858319825116178152815185880111156114f45784870182525b505085915050949350505050565b60008183111561151457829050611518565b8190505b92915050565b6000826000015190506115318383610b6c565b5061153c8382610f97565b50505050565b6040518060a0016040528060008019168152602001600073ffffffffffffffffffffffffffffffffffffffff16815260200160007bffffffffffffffffffffffffffffffffffffffffffffffffffffffff19168152602001600081526020016115a96115af565b81525090565b604051806040016040528060608152602001600081525090565b600073ffffffffffffffffffffffffffffffffffffffff82169050919050565b60006115f4826115c9565b9050919050565b611604816115e9565b82525050565b600060208201905061161f60008301846115fb565b92915050565b600080fd5b6000819050919050565b61163d8161162a565b811461164857600080fd5b50565b60008135905061165a81611634565b92915050565b60006020828403121561167657611675611625565b5b60006116848482850161164b565b91505092915050565b600080fd5b6000604082840312156116a8576116a761168d565b5b81905092915050565b600060e082840312156116c7576116c661168d565b5b81905092915050565b60008061012083850312156116e8576116e7611625565b5b60006116f685828601611692565b9250506040611707858286016116b1565b9150509250929050565b6000819050919050565b61172481611711565b82525050565b600060208201905061173f600083018461171b565b92915050565b61174e8161162a565b82525050565b60006020820190506117696000830184611745565b92915050565b611778816115e9565b811461178357600080fd5b50565b6000813590506117958161176f565b92915050565b6000602082840312156117b1576117b0611625565b5b60006117bf84828501611786565b91505092915050565b60007fffffffff0000000000000000000000000000000000000000000000000000000082169050919050565b6117fd816117c8565b811461180857600080fd5b50565b60008135905061181a816117f4565b92915050565b60006020828403121561183657611835611625565b5b60006118448482850161180b565b91505092915050565b600082825260208201905092915050565b7f4f776e61626c653a206e6577206f776e657220697320746865207a65726f206160008201527f6464726573730000000000000000000000000000000000000000000000000000602082015250565b60006118ba60268361184d565b91506118c58261185e565b604082019050919050565b600060208201905081810360008301526118e9816118ad565b9050919050565b7f4f776e61626c653a2063616c6c6572206973206e6f7420746865206f776e6572600082015250565b600061192660208361184d565b9150611931826118f0565b602082019050919050565b6000602082019050818103600083015261195581611919565b9050919050565b600060408201905061197160008301856115fb565b61197e6020830184611745565b9392505050565b600081905092915050565b7f68747470733a2f2f6170692e31696e63682e696f2f76342e302f34333131342f60008201527f737761703f66726f6d546f6b656e416464726573733d00000000000000000000602082015250565b60006119ec603683611985565b91506119f782611990565b603682019050919050565b600081519050919050565b60005b83811015611a2b578082015181840152602081019050611a10565b83811115611a3a576000848401525b50505050565b6000611a4b82611a02565b611a558185611985565b9350611a65818560208601611a0d565b80840191505092915050565b7f26746f546f6b656e416464726573733d00000000000000000000000000000000815250565b7f26616d6f756e743d000000000000000000000000000000000000000000000000815250565b7f26736c6970706167653d00000000000000000000000000000000000000000000815250565b7f2666726f6d416464726573733d00000000000000000000000000000000000000815250565b7f266465737452656365697665723d000000000000000000000000000000000000815250565b6000611b3a826119df565b9150611b468289611a40565b9150611b5182611a71565b601082019150611b618288611a40565b9150611b6c82611a97565b600882019150611b7c8287611a40565b9150611b8782611abd565b600a82019150611b978286611a40565b9150611ba282611ae3565b600d82019150611bb28285611a40565b9150611bbd82611b09565b600e82019150611bcd8284611a40565b9150819050979650505050505050565b60008115159050919050565b611bf281611bdd565b8114611bfd57600080fd5b50565b600081519050611c0f81611be9565b92915050565b600060208284031215611c2b57611c2a611625565b5b6000611c3984828501611c00565b91505092915050565b7f5361666545524332303a204552433230206f7065726174696f6e20646964206e60008201527f6f74207375636365656400000000000000000000000000000000000000000000602082015250565b6000611c9e602a8361184d565b9150611ca982611c42565b604082019050919050565b60006020820190508181036000830152611ccd81611c91565b9050919050565b7f4e487b7100000000000000000000000000000000000000000000000000000000600052601160045260246000fd5b6000611d0e8261162a565b91507fffffffffffffffffffffffffffffffffffffffffffffffffffffffffffffffff821415611d4157611d40611cd4565b5b600182019050919050565b7f4e487b7100000000000000000000000000000000000000000000000000000000600052601260045260246000fd5b6000611d868261162a565b9150611d918361162a565b925082611da157611da0611d4c565b5b828204905092915050565b7f4e487b7100000000000000000000000000000000000000000000000000000000600052604160045260246000fd5b6000611de68261162a565b9150611df18361162a565b925082821015611e0457611e03611cd4565b5b828203905092915050565b6000611e1a8261162a565b9150611e258361162a565b925082611e3557611e34611d4c565b5b828206905092915050565b6000611e4b8261162a565b9150611e568361162a565b9250827fffffffffffffffffffffffffffffffffffffffffffffffffffffffffffffffff03821115611e8b57611e8a611cd4565b5b828201905092915050565b7f4e487b7100000000000000000000000000000000000000000000000000000000600052603260045260246000fd5b611ece816117c8565b82525050565b600081519050919050565b600082825260208201905092915050565b6000601f19601f8301169050919050565b6000611f0c82611ed4565b611f168185611edf565b9350611f26818560208601611a0d565b611f2f81611ef0565b840191505092915050565b600061010082019050611f50600083018b6115fb565b611f5d602083018a611745565b611f6a604083018961171b565b611f7760608301886115fb565b611f846080830187611ec5565b611f9160a0830186611745565b611f9e60c0830185611745565b81810360e0830152611fb08184611f01565b90509998505050505050505050565b6000611fca8261162a565b9150611fd58361162a565b9250817fffffffffffffffffffffffffffffffffffffffffffffffffffffffffffffffff048311821515161561200e5761200d611cd4565b5b828202905092915050565b60006120248261162a565b9150600082141561203857612037611cd4565b5b600182039050919050565b7f537472696e67733a20686578206c656e67746820696e73756666696369656e74600082015250565b600061207960208361184d565b915061208482612043565b602082019050919050565b600060208201905081810360008301526120a88161206c565b9050919050565b6000819050919050565b60006120d46120cf6120ca846115c9565b6120af565b6115c9565b9050919050565b60006120e6826120b9565b9050919050565b60006120f8826120db565b9050919050565b60008160601b9050919050565b6000612117826120ff565b9050919050565b60006121298261210c565b9050919050565b61214161213c826120ed565b61211e565b82525050565b6000819050919050565b61216261215d8261162a565b612147565b82525050565b60006121748285612130565b6014820191506121848284612151565b6020820191508190509392505050565b60006060820190506121a960008301866115fb565b6121b66020830185611745565b81810360408301526121c88184611f01565b9050949350505050565b7f756e61626c6520746f207472616e73666572416e6443616c6c20746f206f726160008201527f636c650000000000000000000000000000000000000000000000000000000000602082015250565b600061222e60238361184d565b9150612239826121d2565b604082019050919050565b6000602082019050818103600083015261225d81612221565b9050919050565b7f416464726573733a20696e73756666696369656e742062616c616e636520666f60008201527f722063616c6c0000000000000000000000000000000000000000000000000000602082015250565b60006122c060268361184d565b91506122cb82612264565b604082019050919050565b600060208201905081810360008301526122ef816122b3565b9050919050565b7f416464726573733a2063616c6c20746f206e6f6e2d636f6e7472616374000000600082015250565b600061232c601d8361184d565b9150612337826122f6565b602082019050919050565b6000602082019050818103600083015261235b8161231f565b9050919050565b600081905092915050565b600061237882611ed4565b6123828185612362565b9350612392818560208601611a0d565b80840191505092915050565b60006123aa828461236d565b915081905092915050565b60006123c082611a02565b6123ca818561184d565b93506123da818560208601611a0d565b6123e381611ef0565b840191505092915050565b6000602082019050818103600083015261240881846123b5565b905092915050565b60008160011c9050919050565b6000808291508390505b60018511156124675780860481111561244357612442611cd4565b5b60018516156124525780820291505b808102905061246085612410565b9450612427565b94509492505050565b600082612480576001905061253c565b8161248e576000905061253c565b81600181146124a457600281146124ae576124dd565b600191505061253c565b60ff8411156124c0576124bf611cd4565b5b8360020a9150848211156124d7576124d6611cd4565b5b5061253c565b5060208310610133831016604e8410600b84101617156125125782820a90508381111561250d5761250c611cd4565b5b61253c565b61251f848484600161241d565b9250905081840481111561253657612535611cd4565b5b81810290505b9392505050565b600061254e8261162a565b91506125598361162a565b92506125867fffffffffffffffffffffffffffffffffffffffffffffffffffffffffffffffff8484612470565b90509291505056fea264697066735822122083cbddc5890cb914d30d9fae8ca0eceffeec75f93d2d36a93f1d03432c1a716864736f6c634300080c0033",
  "linkReferences": {},
  "deployedLinkReferences": {}
}